:100000000C941E010C943B010C9416050C943B01BE
:100010000C943B010C942B050C943B010C943B017C
:100020000C943B010C943B010C943B010C943B0160
:100030000C943B010C943B010C9496030C943B01F3
:100040000C943B010C943B010C943B010C943B0140
:100050000C943B010C943B010C943B010C943B0130
:100060000C943B010C943B010C943B010C943B0120
:1000700032303139313130310000000000000000F1
:100080000000000000000000000000000000000070
:100090000000000000000000000000000000000060
:1000A0000000000000000000000000000000000050
:1000B0000000000000000000000000000000000040
:1000C0000000000000000000000000000000000030
:1000D000000000000000030506080A0C0E101214B0
:1000E00017191B1E202326292C2F3235393C40435B
:1000F000474B4F53575C60656A6F74797F848A9071
:10010000969CA3A9B0B7BEC5CDD5DDE5EDF6FF0041
:1001100000000000000000000000000000000000DF
:1001200000000000000000000000000000000000CF
:1001300000000000000000000000000000000000BF
:10014000000000000000000000000000000C10157E
:10015000191E23292E343A40474D545C636B737C3F
:10016000858E97A1ACB6C1CDD9E5F2FFFFFFFFFFA9
:10017000FFFFFFFFFFFFFFFFFFFFFFFFFFFFFFFF8F
:10018000FFFFFFFFFFFFFFFFFFFFFFFFFFFFFFFF7F
:10019000FFFFFFFFFFFFFFFFFFFFFFFFFFFFFFFF6F
:1001A000FFFFFFFF0001010202030304050506072C
:1001B00008090A0B0C0D111213141516181A1C1E1F
:1001C000212326292C2F3236393D41454A4F545997
:1001D0005E646A71777E868E969EA7B0BAC4CFDAC7
:1001E000E6F2FFFFFFFFFFFFFFFFFFFFFFFFFFFF45
:1001F000FFFFFFFFFFFFFFFFFFFFFFFFFFFFFFFF0F
:10020000FFFFFFFFFFFFFFFFFFFFFFFFFFFFFFFFFE
:10021000FFFFFFFFFFFFFFFFFFFFFFFFFFFFFFFFEE
:10022000FFFFFFFFFFFFFFFFFFFFFFFFFFFFFFFFDE
:10023000FFFFFFFFFFFFFFFFFFFF000011241FBEB6
:10024000CFEFD4E0DEBFCDBF11E0A0E0B1E0E2EA45
:10025000F3E202C005900D92AC33B107D9F711E07B
:10026000ACE3B1E001C01D92A83DB107E1F70E94E7
:1002700049110C94CF110C94000081E008958091F5
:10028000D501882369F020918C0130918D019091E6
:100290004701291B821B8093470181E08093150150
:1002A0008091D601882319F0835E80931601809196
:1002B0001601873418F086E4809316010895809122
:1002C000D501811180930801089520913D019091FD
:1002D000D5018091D601222381F0911190930F01D5
:1002E000882321F097E9981B90930E018091D70104
:1002F000882361F080930D0108959111909311016D
:10030000882321F097E9981B90931001089588E7BE
:1003100080BB88E08CB981E088B991EA9093720043
:100320008093710091E89BBB8ABB84E082BB87BD50
:100330000895F89498ED9FBD83BF789408958CEF4D
:1003400093E00197F1F70895EF92FF920F931F93B7
:10035000CF93DF931F92CDB7DEB78C017B01842F43
:100360004091890150918A01452B39F0E091890132
:10037000F0918A0129830995298110938A010093BC
:100380008901012B71F0E0918901F0918A01B70197
:10039000822F0F90DF91CF911F910F91FF90EF90DF
:1003A00009940F90DF91CF911F910F91FF90EF90E3
:1003B0000895DC0190914601983098F4E92FF0E01F
:1003C000EE0FFF1FEB53FE4FB183A0839F5F90930F
:1003D000460128E049E0CD010E94A4018091460138
:1003E00008958FEF0895CF93DF93E0914601EE23B8
:1003F00059F0E150E0934601F0E0EE0FFF1FEB53A0
:10040000FE4FC081D18102C0C0E0D0E0E091460142
:10041000EE2341F0F0E0EE0FFF1FED53FE4F808121
:10042000918102C080E090E02AE049E060E070E065
:100430000E94A401CE01DF91CF9108950F931F93E5
:10044000CF93DF9300D0CDB7DEB78C0169837A8379
:100450000E94F30169817A81C8010F900F90DF91AA
:10046000CF911F910F910C94D901813C29F460E048
:1004700070E080E59CE006C0823C41F460E070E002
:100480008BEF9AE00E941E0280E0089581E00895BB
:10049000813C29F460E070E080E59CE006C0823C8D
:1004A00039F460E070E085E392E00E941E0208C02B
:1004B000843C41F460E070E082E590E10E94D90163
:1004C00080E0089581E00895813C29F460E070E0C7
:1004D00080E59CE006C0823C39F460E070E088E48E
:1004E00092E00E941E0208C0843C41F460E070E08B
:1004F00087E590E10E94D90180E0089581E00895A8
:100500001092C20181E08093410108951092780118
:10051000109277019091C201803159F4892F80693E
:100520009F709F3021F48093C20181E008958F5F16
:10053000FACF882329F090689093C20180E0089553
:10054000892F8F7E95FD02C08068EDCF806CEBCF48
:10055000482FDB0120E030E0C90163E070E00E9439
:100560007011FC01EF56FE4F8081882331F02F5F20
:100570003F4F2031310581F703C04083B283A1830F
:10058000089520E030E0F22FE32F2F5F3F4FC901A5
:1005900063E070E00E947011DC01AF56BE4F4C91D9
:1005A0008F2F9E2F63E070E00E947011FC01EF56C8
:1005B000FE4F408311968D919C9112979283818377
:1005C0002F30310501F71092BE011092C001109238
:1005D000BF01089581E08093410108950F931F9317
:1005E000CF93C82F08EA17E0CC2359F082E00E948D
:1005F0009901C8010197F1F780E00E949901C1506B
:10060000F3CFCF911F910F9108950F931F93CF9325
:10061000DF93D82F8B01C0914601C150C7FD0FC099
:10062000EC2FEE0FFF0BEB53FE4F0190F081E02D0E
:10063000B8018D2F09958111F0CF80E001C081E0D4
:10064000DF91CF911F910F9108958091910188239F
:1006500059F06091920170919301809191010E94F3
:1006600005030E94C102F1CF0895CF92DF92EF926D
:10067000FF920F931F93CF93DF9300918901109105
:100680008A01EC0188EAE82E87E0F82E9AEEC92E5E
:10069000DD24D394209709F180914301883028F418
:1006A00082E00E949901C60104C080E00E94990185
:1006B000C7010197F1F780E00E9499018091410103
:1006C00081110DC02091890130918A012197021773
:1006D000130731F40E942503DDCF81E001C080E0E3
:1006E000DF91CF911F910F91FF90EF90DF90CF900E
:1006F00008950C94A8029093780180937701BC012F
:100700008091C2010C94A8028EE884B908958DE00E
:1007100084B9089583B1886483B908958DE084B95C
:10072000379A86EC83B908951F9808951F920F9207
:100730000FB60F9211242F933F934F935F936F93B4
:100740007F938F939F93AF93BF93EF93FF9380918A
:100750009001882309F40DC11092900160B171B12C
:1007600080914201860F8093420180914401882349
:1007700011F081E004C0809176018F5F83708093D7
:10078000760190917601913049F580E098E50E94DC
:100790008D116C5F7F4F76956795609348018091CE
:1007A0007501882321F0815080937501D9C0809113
:1007B00048018D3180F480917401843020F48F5F82
:1007C00080937401CDC060E070E084E00E94A802D4
:1007D00084E18093750110927401C2C0933009F0D6
:1007E000BDC06E50714080914701680F711D87FD3B
:1007F0007A9580911501882379F0109215017093F4
:100800008D0160938C01E4E6F1E06193719321E046
:10081000E437F207D1F71FC020918C0130918D0190
:10082000261737073CF420918C0130918D012F5F02
:100830003F4F0DC020918C0130918D0162177307DD
:1008400054F420918C0130918D0121503109309365
:100850008D0120938C0160918C0170918D0120910C
:1008600063012F5F20936301277071F4E4E6F1E0E8
:10087000228133812193319331E0E237F307C1F7CD
:10088000709373016093720120916401309165014E
:10089000AB01421B530B9A0137FF03C02F5F3F4F41
:1008A00005C02115310511F0215031099150A1F7F2
:1008B00084E0220F331F8A95E1F7CB01820F931F4B
:1008C0009093C4018093C3016091160170E09B0175
:1008D000245031098217930714F010926201861791
:1008E000970714F41092610120916001222321F0F6
:1008F00021502093600136C0681779079CF420913D
:100900006101283020F42F5F209361012BC01092E9
:10091000610124E0209360019C01261B370BB90183
:1009200085E019C06550710986179707DCF420919E
:100930006201283020F42F5F2093620113C01092CF
:10094000620124E020936001209148012E3150F093
:10095000681B790B86E00E94A80204C0923010F454
:100960008DE001C08EE884B98091440181110E941C
:100970009403FF91EF91BF91AF919F918F917F91E0
:100980006F915F914F913F912F910F900FBE0F90FC
:100990001F901895A89580E480BF0895A89583E4DA
:1009A00080BF0895F894A89585B7877F85BF88EDA7
:1009B0008FBD10BE789408950F931F9361E04DE7AB
:1009C00050E02FB122FB222720F9262780915901E0
:1009D00090915A01A0915B01B0915C01880F991F21
:1009E000AA1FBB1F822B8093590190935A01A09399
:1009F0005B01B0935C01FA013197F1F78C019D0125
:100A000001501109210931090E3F1F4F2F4F3F4F50
:100A1000C0F280938F011F910F9108958CB7886069
:100A20008CBF08958CB7877F8CBF08951895CF939E
:100A3000C82F882311F080E101C080E00E94860267
:100A4000882339F0C0938F0180E090E0CF910C941F
:100A50007B03CF9108951F920F920FB60F9211242E
:100A60002F933F934F935F936F937F938F939F93B6
:100A7000AF93BF93CF93DF93EF93FF9381E0809386
:100A8000450180914401882309F1C0915E01D09114
:100A90005F01BE0183E00E94A802CE018827907802
:100AA0002196C82BD92BD0935F01C0935E010E9481
:100AB000250380915E0190915F018F779927892BA3
:100AC00009F05BC08FEF80935D0104C010925F015D
:100AD00010925E01C0918F010E94DC04C8130E9435
:100AE0001705C0917701D0917801CE010196CC27EE
:100AF000D078C82BD92BD0937801C09377018091FF
:100B0000C201807F803B19F460E070E001C0BE014B
:100B100081E00E94A8029091C20194FF0EC095FF4F
:100B200002C0CE0107C06897B8F090629093C201EE
:100B300080E090E00E947B030FC0992369F095FD4F
:100B400009C0629748F090649093C20180E090E001
:100B50000E947B030E94800280915D018F5F8093E1
:100B60005D01837051F48091440181110E948E03D4
:100B70000E948A0381E080939001FF91EF91DF91C1
:100B8000CF91BF91AF919F918F917F916F915F9125
:100B90004F913F912F910F900FBE0F901F9018957E
:100BA0000E94CE040E9494030E94DC048111FCCFB9
:100BB0000E9480020E940E05809144018823A1F0CA
:100BC0001092450186B78F79806486BF86B78061B1
:100BD00086BF889586B78F7E86BF8091450181113B
:100BE000EBCF10924401E8CF81E0809315010E9481
:100BF0008E030C94CA0486B78F7986BF86B780614E
:100C000086BF889586B78F7E86BF089580938E01B4
:100C1000089580918E0190914301891720F480916D
:100C20004301815007C090914301981718F48091B7
:100C300043018F5F9FEF980F292F30E0A9014B559B
:100C40005E4FFA01649170914301971758F4E09157
:100C50006C00F0916D00EF2B29F46F3F19F46FEFEA
:100C600070E01CC0E0916C00F0916D0070E0E61740
:100C7000F70738F460916C0070916D006F5F7F4FE3
:100C80000DC0E0916C00F0916D006E177F0750F47D
:100C900060916C0070916D006150710970936D00EE
:100CA00060936C00B901615F7E4FFB019491E8B3E2
:100CB000E91718F498B39F5F05C0E8B39E1718F4BE
:100CC00098B3915098BB27583F4FF9019491A09148
:100CD0006A00B0916B00E92FF0E0AE17BF0730F467
:100CE000E0916A00F0916B0031960CC0A0916A000F
:100CF000B0916B00EA17FB0748F4E0916A00F091AD
:100D00006B003197F0936B00E0936A00A0916C0048
:100D1000B0916D00FA01449150E0A417B50789F431
:100D200098B3FB01649196130CC040916A005091F6
:100D30006B00F901249130E04217530711F48093BE
:100D400043010895E0910601F09107013196FB708F
:100D5000F460F0930701E0930601809142018B5A01
:100D600080934201E491809142018E0F08950F9388
:100D70001F93CF93DF93F89480E890E00E94B51121
:100D8000853A89F409E711E0C1E8D0E0CE010E947C
:100D9000B511F80181938F012196C139D105B1F7C1
:100DA000789481E002C0789480E0DF91CF911F9128
:100DB0000F9108950F931F93CF93DF93F89409E752
:100DC00011E0C1E8D0E0F80161918F01CE010E94ED
:100DD000BD112196C139D105B1F765EA80E890E0EF
:100DE0000E94BD117894DF91CF911F910F910895CA
:100DF00080914301883010F482E005C0823110F404
:100E000081E001C080E00C9499010F931F93CF9370
:100E1000DF9300D01F92CDB7DEB795E0998394E0C1
:100E20009A8393E09B83FE01319640E050E090E08E
:100E300061E070E0B1919A01220F331F8C0102C072
:100E4000159507952A95E2F79801237069F02130EE
:100E5000E1F4A0B39B010B2E01C0220F0A94EAF724
:100E6000322F30953A231AC0A0B39B010B2E01C03C
:100E7000220F0A94EAF72095322F3A2330BB32B37F
:100E8000322332BB31B323230FC0A0B39B010B2EFF
:100E900001C0220F0A94EAF73A2F322B30BB32B34B
:100EA000322B32BB31B3232B21BB4F5F5F4F43301B
:100EB000510509F0BFCF0F900F900F90DF91CF91A8
:100EC0001F910F910895CF93C82F80934301809372
:100ED0008E0180914401811102C00E940507C11159
:100EE0000AC010926D0010926C0018BA10926B003C
:100EF00010926A001AC0C1508C2F90E0FC01EB5593
:100F0000FE4FE491F0E0F0936D00E0936C00FC0183
:100F1000E15FFE4FE491E8BBFC01E758FF4FE4912D
:100F2000F0E0F0936B00E0936A00CF910C94F80628
:100F30000F931F93CF93C82F882311F008EC02C0A2
:100F400008E0C1E010E089E10E946307C8010E9447
:100F5000350380E00E9463078CE291E00E94350334
:100F6000C15089F784EF91E0CF911F910F910C94BC
:100F70003503CF93DF93C82F843638F08CE98C0F7C
:100F8000843628F0C85C82E004C080E002C0C82F2C
:100F900081E0D0E0CA3018F0DF5FCA50FBCF882371
:100FA000A1F00E949807882399F08D2F0E9498073E
:100FB000882371F08C2F0E949807882349F088EECF
:100FC00093E0DF91CF910C943503D111EECFF2CFA6
:100FD00080E0DF91CF910895809148010C94B9078A
:100FE000CF93DF93883059F410924F0160934E01F4
:100FF00010924D0110924C0110924B0189C081302A
:1010000009F06CC090914D01892F8D7F81F4209162
:101010004B0130914C012F31310538F42F5F3F4F98
:1010200030934C0120934B0176C09F5F26C09130D6
:1010300059F580914E018823F9F0C0914B01D09170
:101040004C019E012F7133272A30310511F485E2BE
:1010500004C02431310521F480E00E94630706C0FA
:101060002F31310519F4815080934E012196D09390
:101070004C01C0934B014CC092E090934D011092F3
:101080004C0110924B0147C09330F9F4C0914B01D1
:10109000D0914C012196D0934C01C0934B01CE01CD
:1010A00083709927009711F489E103C0029719F41E
:1010B00082E10E946307CB3BD10550F180E00E94A2
:1010C000630784E080934D0123C0943009F580913B
:1010D0004F018093C1010E94F3011AC08138D1F4FD
:1010E0000E94800280914D01833091F480914F01E4
:1010F0008F5F80934F0110924C0110924B018BE453
:101100000E94630784E00E94EE0280E00E94630771
:1011100080E001C081E0DF91CF910895982F880F82
:1011200097FD809508950C948701CF93DF93D82F76
:10113000E82FF0E0E65FFE4FC08186E90E9463077A
:10114000D11108C0CA3218F40E949F0108C081E082
:1011500090E003C08C2F869590E00E94350380E0DC
:101160000E9463078C2F90E0DF91CF910C943503A0
:10117000EF92FF920F931F93CF93DF930E94A206EB
:101180008F73E82EF12C0E94A20667E00E94811165
:1011900001E010E0E80102C0CC0FDD1F9A95E2F7F4
:1011A0000E94A20665E00E94811102C0000F111F7B
:1011B0009A95E2F7C00FD11F0E94A20690E0BE01EF
:1011C0000E94A111C80FD91FC739D10514F0C6E973
:1011D000D0E08C2F0E946307C7010E9435039E0157
:1011E00043E0359527954A95E1F72115310509F436
:1011F00021E0022F10E0C7010E943503C01BD10B74
:10120000D7FF02C0C0E0D0E08C2F0E9463070E948D
:10121000A206837041F4C7010E943503CE01959563
:1012200087950E946307C230D1052CF70E94A20661
:101230006DE00E948111C1E0D0E002C0CC0FDD1F43
:101240009A95E2F70E94A20690E0BE010E948D11DD
:10125000C80FD91F80E00E946307CE01DF91CF91B4
:101260001F910F91FF90EF900C943503CF93DF9374
:10127000C0910901CC0FC73908F0C6E9D4E08C2F22
:101280000E94630785E090E00E9435038091090188
:101290000E94630781E490E00E943503D15079F702
:1012A00080ED92E0DF91CF910C943503AF92BF9225
:1012B000CF92DF92EF92FF920F931F93CF93DF9322
:1012C000EB01883021F41092570181E028C0823C64
:1012D00019F41092570144C0813BE1F4809102015E
:1012E000CD2B49F48E3610F09FEF03C0823018F4F6
:1012F00091E090930301C0910301C80F21F481E0B4
:1013000080930201DEC0CF3618F4C093020128C0DA
:101310008EE612C0813E31F4809103018195809365
:1013200003011EC0823B59F481E080930301809148
:1013300002018230A8F081508093020111C0833CE9
:1013400089F480915701843E58F4855E809357015B
:1013500080914301805E0E94630782E00E94EE025A
:10136000C0E0AFC0813009F0ABC06E33710511F43D
:101370008093030120915701FE01FF70213079F421
:101380006091020170E0675E7F4FCF0134E0969577
:1013900087953A95E1F70E947011C92E01C0C12CC2
:1013A000EF3FFF4069F4222359F021502093570169
:1013B000211106C060E070E080E59CE00E941E0202
:1013C000D09056018D2D0E948E08A82EE0905501D8
:1013D0008E2D0E948E08B82E00910101F0905401CC
:1013E0008F2D0E948E08382F10910001209102014C
:1013F0002C198A2D90E067E070E00E947011290F8F
:10140000602F70E08B2D90E00E947011290F612FEA
:1014100070E0832F90E00E947011822F890F87FD6A
:1014200080E00E946307C0FD06C00E94A206817092
:10143000D80ED092560180915301E80EE0925501EA
:101440000E94A20665E20E948111F90EF0925401F9
:101450000E94A2068F7339F40E94A2066DE00E94DA
:10146000811190935301002339F00E94A2068F73DB
:1014700019F40150009301010E94A206811109C0D4
:101480000E94A2066BE00E948111909301011092CC
:101490005501133038F00E94A2068F7119F41150D3
:1014A000109300010E94A206C82FCF7709F058CFF1
:1014B0000E94A20666E00E9481119093000101C083
:1014C000C1E08C2FDF91CF911F910F91FF90EF9092
:1014D000DF90CF90BF90AF900895809112010E944D
:1014E000630784E690E00E94350380E00E94630772
:1014F0008091080190E068EE73E00E9470118456BC
:1015000091090C9435030F931F93CF93DF93EC0154
:10151000809111019091100120913D01222321F031
:1015200080910F0190910E01282F30E0C217D30750
:101530000CF444C0292F30E02C173D07F4F18091C2
:101540003D01811102C08C2F39C0E0910E018091C4
:101550000F01E81B60910D01F0E070E0615071092E
:10156000CF010E94A11160938B0190910F016695AC
:10157000262F30E010E080910D011817F0F4009153
:101580000F0140910D01812F90E0BF010E94701169
:10159000642F70E0615071090E948D11902F960F99
:1015A000AE01491B510957FF03C05195419551099F
:1015B0002417350714F41F5FDECF892FDF91CF91F9
:1015C0001F910F91089580933C010C946307CF9372
:1015D000C82FCC2371F085E20E94630782E00E944D
:1015E000EE0280E00E94630789E10E94EE02C15092
:1015F000F0CFCF910895883059F410925201109293
:10160000510182E00E94E70A88E10E94630708C056
:10161000813C41F460E070E080E59CE00E941E02A5
:1016200080E00895823C29F460E070E084E692E076
:10163000F5CF8130E1F480915101909152010196F2
:10164000853524E2920728F490935201809351014A
:10165000E7CF1092520110925101809143018150C5
:101660000E946307809143018111DACFD3CF81E0DB
:101670000895CF93C091430180E00E94630783E007
:101680000E94EE028C2FCF910C946307CF93DF93CF
:10169000CDB7DEB76A970FB6F894DEBF0FBECDBFE9
:1016A000909148012FEF290F2C3108F468C0382F92
:1016B00032953F708F7020914401211103C0333067
:1016C00008F032E027E0E7E1F1E0DE015496019016
:1016D0000D922A95E1F7873080F0873091F463709E
:1016E00051F480914A0190E0019666E070E00E941A
:1016F000A11180934A0180914A01FE01E80FF11D7A
:1017000019C080914401882351F0963210F0288D41
:1017100012C0913210F02E890EC02C890CC0862F79
:10172000869563E00E948111E92FF0E0EE0FFF1F24
:10173000EC0FFD1F24893330D1F483E1EEE1F1E0B9
:10174000DE01119601900D928A95E1F78091490191
:1017500090E0019663E170E00E948D118093490151
:10176000E1E0F0E0EC0FFD1FE80FF91F30813130B0
:1017700041F028F0323081F4822F880F03C080E0DE
:1017800001C0822F6A960FB6F894DEBF0FBECDBFA0
:10179000DF91CF910C9405076A960FB6F894DEBFDF
:1017A0000FBECDBFDF91CF9108950E94B706882369
:1017B00009F440C08091790180933D0180917A01C4
:1017C0008093110180917B018093100180917C01B5
:1017D00080930F0180917D0180930E0180917E01A5
:1017E00080930D0180917F0180933E018091800163
:1017F00080930C018091810180930A018091820184
:1018000080930B0180918301809309018091840171
:101810008093080180918501809316018091860153
:101820008093470180918701809314018091880102
:1018300080931301089580913D01E9E7F1E08083F1
:1018400080911101818380911001828380910F0129
:10185000838380910E01848380910D018583809123
:101860003E01868380910C018783AAE0B1E08C91D0
:10187000808711968C918187809109018287809160
:1018800008018387809116018487809147018587AD
:101890008091140186878091130187870C94DA0662
:1018A000CF93DF93EB01883079F480E00E946307E7
:1018B00060E0809114010E94460BCD2B19F481E069
:1018C00080934401C0E0BCC0813031F469317105BE
:1018D000C8F38093440196C0833009F493C0813BE0
:1018E00079F481E090E00E94830A0E94630780916E
:1018F0003D01811102C0689728F361E070E02AC0C1
:10190000813ED9F3813889F4C0913E01CC2329F07E
:101910008C2F90E00E94830A25C08091120190E0F4
:101920000E94830A0E9463078BC0813C79F4C091B6
:101930003E01CC2319F06C2F70E00CC060911201B5
:1019400070E084E29DE00E941E027AC0823B29F48E
:1019500066E970E084E29DE06FC0823CC9F38339A0
:1019600021F480E00E946307ADCF833C29F460E05E
:1019700070E085E392E060C0833B29F460E070E0B2
:101980008CEA9EE059C0843C41F482E00E94E70A60
:1019900060E070E08EE89FE04FC0853C41F481E05C
:1019A0000E94E70A60E070E088E49FE045C0873C61
:1019B000B1F490911401892F82958F708F5F83709D
:1019C0008295807F9F70892B8093140160E00E9434
:1019D000460B0E941B0C81E00E94E70A73CF873BF5
:1019E000B9F4CB018F739927892B61F420911401ED
:1019F000822F8F708F5F6AE00E948111207F922B6F
:101A0000909314016C2F809114010E94460B5ACFC1
:101A1000873E19F40E941B0C55CF8A3C39F460E0D4
:101A200070E082E590E10E94D9014CCF8F3C39F4FF
:101A300060E070E08DE391E00E941E0243CFC1E0C0
:101A40008C2FDF91CF9108950F931F93CF93DF9346
:101A5000CDB7DEB728970FB6F894DEBF0FBECDBF67
:101A60009B01409111011091100190913D0199232A
:101A700039F040910F0110910E0100918B0101C0CE
:101A800001E0982F9D7F9830D1F4109240018A3068
:101A900019F42091120130E0842F90E0821793070F
:101AA00038F4812F90E02817390710F420931201A1
:101AB000C9010E94830A0E94E30A81E084C0813C3C
:101AC00039F460E070E080E59CE00E941E0236C1BF
:101AD000823C39F480914301863908F06CC086E974
:101AE0008FC0833C79F490913D0181E0911180E0B9
:101AF00080933D010E941B0C0E94390B8091430191
:101B000090E07AC0843C39F460E070E08BE490E1CE
:101B10000E94D90113C1813B09F050C080913D0161
:101B2000882341F0C90168E170E00E948D11892B82
:101B300009F004C12115310571F480914301811729
:101B400010F08FEF05C0809143014817D8F081E075
:101B50008093050117C0273381E0380798F0809102
:101B60004301811770F72D36324060F080914301B8
:101B7000481740F00E94390B60E070E08EE89FE06B
:101B80000E941E022091430160910501772767FDA5
:101B90007095802F90E00E947011820F911D0E941D
:101BA000830A8093120190914301891721F08113D8
:101BB00002C00E94390B8091120122C0813E31F493
:101BC00080910501819580930501B8C0823BD9F4CD
:101BD00081E08093050180913D01882341F0C90196
:101BE00068E170E00E948D11892B09F0A7C08091F7
:101BF000430190E0801B91090E94830A80931201A7
:101C00000E94E30A9BC0853C29F4809143018093A4
:101C10003E0107C0853B51F4232B09F091C010927F
:101C20003E010E941B0C0E94390B8AC0813009F0D2
:101C300053C02E33310511F48093050120FF0CC0F1
:101C400080914301823808F479C0909143018091DA
:101C50008E01981708F472C088E0E1E3F1E0DE013C
:101C6000119601900D928A95E1F790918E018091E5
:101C70004301891738F421FD61C080918E01909154
:101C8000430104C08091430190918E01891B2091F2
:101C900058012F5F20935801882309F44FC0909179
:101CA0004301923838F04091430130918E0191E028
:101CB000341708F090E09F5F8695E9F7E1E0F0E0E7
:101CC000EC0FFD1FE90FF11D80818217B8F50E940E
:101CD00009061092580132C08530B9F48091430151
:101CE0008F3360F18091430190E0821B930B8E3320
:101CF000910534F08739910528F086E990E002C01B
:101D00008EE390E080938E0119C08630C9F49091E3
:101D1000430180913C01981788F490914301290F69
:101D2000311D90E08217930734F02E33310524F4EF
:101D30002EE330E001C09C0120938E0180E001C0C1
:101D400081E028960FB6F894DEBF0FBECDBFDF91BD
:101D5000CF911F910F9108950F931F93CF93DF930E
:101D6000D82F8B01C0910C0181E080934001C330DA
:101D700019F48D2F0E945609D83021F481E0809308
:101D800004017EC0D13C39F460E070E080E59CE065
:101D90000E941E0275C0D23C51F48C2F90E0019637
:101DA00065E070E00E94A11180930C015AC0D13B04
:101DB00051F5C23090F400FD63C0EC2FF0E0E65F17
:101DC000FE4F808190910401891B883020F08F3F65
:101DD000A1F58EEF32C088E030C0C43009F050C0A9
:101DE0009091090180910401890F809309018091EC
:101DF0000901823010F482E02BC0809109018937FB
:101E000048F188E725C0D13E31F4809104018195E5
:101E10008093040126C0D23B11F581E08093040138
:101E2000C23068F400FD2CC0EC2FF0E0E65FFE4FFE
:101E300080818F3F29F180818F5F808321C0C430F2
:101E4000F9F480910901833028F0809109018150D3
:101E500080930901809109010E94630711C0D23E5D
:101E600019F40E941B0C0CC0D13061F40E33110523
:101E700011F4D093040180914201080F00934201B4
:101E800080E001C081E0DF91CF911F910F91089513
:101E90000F931F93CF93DF93D82F8B01883039F4A2
:101EA00080914001813019F488E00E94AC0E8D2FA2
:101EB0008079803961F481E080933F01C0914001D5
:101EC000C1110CC0809112010E94630721C08038AB
:101ED00039F410923F0180E00E946307C0E018C00F
:101EE000D130A9F4C0913F01CC2359F08091400139
:101EF0008130A1F7B801DF91CF911F910F910C9420
:101F0000AC0E033A134050F3D093440101C0C1E03A
:101F10008C2FDF91CF911F910F910895EF92FF9237
:101F20001F93CF93DF9300D0CDB7DEB7182F7B017F
:101F3000833BB1F480E00E946307C7018F73992748
:101F4000892B09F05CC020911301822F8F708F5F65
:101F50006AE00E948111207F922B909313014FC061
:101F600080798039D9F480911101898380910F01A2
:101F70008A83812F8F70823029F490913D0181E016
:101F8000892702C080913D01E1E0F0E0EC0FFD1FE8
:101F9000E80FF11D80810E9463070EC0803819F49C
:101FA00080E00E946307183039F460E080911301EB
:101FB0000E94460B81E03AC0113039F489E1E816FD
:101FC000F10498F1109344011AC01330C1F0133C8E
:101FD000E1F490911301892F82958F708F5F837048
:101FE0008295807F9F70892B8093130160E00E940F
:101FF000460B0E941B0C81E00E94E70A16C06E2D62
:10200000809113010E94460B10C0133E19F40E94E8
:102010001B0C0BC081E0143C49F40E94E70A60E00D
:1020200070E080E59CE00E941E0280E00F900F901F
:10203000DF91CF911F91FF90EF900895883031F498
:102040001092500180E00E94630723C0813099F410
:1020500060915001641740F470E06F5F7F4F80EF34
:1020600097E00E94D90115C0F90109950E941B0C47
:102070000E94F3010EC08A3061F48091500190916A
:10208000C101E82FF0E0EB52FE4F90838F5F809309
:10209000500180E0089540913D014E5F25E631E01A
:1020A0000C941E102FE331E042E00C941E102FE53B
:1020B00031E041E00C941E10CF93C0E08C2F0E94C1
:1020C000630785E00E94EE028C2F86950E946307CD
:1020D00085E00E94EE020E94DC048823B1F0CF5F0D
:1020E000C03461F785E18093D5011092D6010E943A
:1020F0003F010E941B0CC6E98C2F0E94630781E000
:102100000E94EE02C150C1F70AC0CC2341F08C2FCF
:102110000E94630783E00E94EE02C150F6CFCF9188
:1021200008958091890190918A012EE08C3A92075E
:1021300029F469E170E084E29DE016C084529D407C
:1021400079F480914301823058F0909143012091BD
:10215000430126952695892F8695820F0C94E30AD4
:1021600060E070E080E59CE00C941E02843021F475
:102170000E94911080E0089581E0089582E10E941C
:10218000630783E00E94EE0280E00E9463070E94E2
:10219000DC0481110E945C100E94D50B61E070E0AC
:1021A00080E59CE00C94D9011F93CF93DF9380913D
:1021B000890190918A0121E08D339207C9F4C0E72B
:1021C000D0E01C2F185FFE01849180530E94980775
:1021D0008CE291E00E94350321961C13F4CF60E05D
:1021E00070E080E59CE0DF91CF911F910C941E027E
:1021F0002EE08C3A920761F0EFE088349E07F1F40C
:10220000809140018130E1F580913F018823C1F147
:1022100080910C01823069F038F08430B1F5DF91A3
:10222000CF911F910C943609DF91CF911F910C949F
:102230009508DF91CF911F910C94B808F2E0853397
:102240009F0729F4DF91CF911F910C94EC0722E0B6
:102250008436920729F4DF91CF911F910C946D0A77
:102260008854924069F480918C0190918D010E9474
:10227000B90788EE93E0DF91CF911F910C9435035D
:10228000DF91CF911F910C94FB05DF91CF911F91AE
:102290000895F8940E9487010E940E050E94CA04C6
:1022A0000E948E03789481E00E94EE020E948002D8
:1022B00060E070E086EB90E10E94D9010E94BE10C0
:1022C0000E94250380914401882329F080E00E9428
:1022D00063070E94D0050E94D41010924101F0CFF4
:1022E0000024552704C0080E591F880F991F009716
:1022F00029F076956795B8F37105B9F7802D952F7C
:102300000895991B79E004C0991F961708F0961B51
:10231000881F7A95C9F780950895AA1BBB1B51E1C8
:1023200007C0AA1FBB1FA617B70710F0A61BB70B45
:10233000881F991F5A95A9F780959095BC01CD01EA
:10234000089597FB072E16F4009407D077FD09D067
:102350000E948D1107FC05D03EF4909581959F4F0A
:102360000895709561957F4F0895E199FECF1FBA4A
:102370008EBBE09A99278DB30895262FE199FECF61
:102380001FBA8EBBE09A81500DB2021639F01CBA0A
:102390002DBB0FB6F894E29AE19A0FBE0895F89417
:0223A000FFCF6D
:1023A200060B180101010004023E284303078214B0
:1023B20082015D3717012D01050414101115020168
:1023C200000000000000000100000000000000000A
:0C23D20001F880422211090402050000FD
:00000001FF
