:10000000A9C0C3C08EC4C1C0C0C0BFC0BEC0BDC037
:1000100009C3BBC0BAC0B9C097C4B7C0B6C03230FC
:1000200031393131303100191919191919191919C2
:100030001919191919191919191919191919191930
:100040001919191919191919191919191919191920
:100050001919191919191919191919191919191910
:100060001919191A1B1C1D1E1F202123242526289F
:10007000292A2C2D2F3032333536383A3B3D3F413B
:10008000434546484A4C4F51535557595C5E60634F
:1000900065686A6D707275787B7D808386898C8FC8
:1000A0009396999CA0A3A7AAAEB1B5B8BCC0C4C88A
:1000B000CCD0D4D8DCE0E4E9EDF1F6FAFF04050693
:1000C000060708090B0C0D0F1012131517191B1E2C
:1000D000202225282B2E3134373B3F42464B4F53AD
:1000E000585D62676C72777D838990969DA4ABB3EF
:1000F000BAC2CAD2DBE4ECF6FFFFFFFFFFFFFFFF4F
:10010000FFFFFFFFFFFFFFFFFFFFFFFFFFFFFFFFFF
:10011000FFFFFFFFFFFFFFFFFFFFFFFFFFFFFFFFEF
:10012000FFFFFFFFFFFFFFFFFFFFFFFFFFFFFFFFDF
:10013000FFFFFFFFFFFFFFFFFFFFFFFFFFFFFFFFCF
:10014000FFFFFFFFFFFFFFFFFFFFFFFFFFFFFFFFBF
:10015000FFFFFF0011241FBECFE5D2E0DEBFCDBF01
:1001600010E0A0E6B0E0EAE0FEE102C005900D92EA
:10017000A038B107D9F711E0A0E8B0E001C01D92A6
:10018000A931B107E1F7C6DD3ECE3ACF81E008954F
:1001900080911601882369F02091CD003091CE0026
:1001A00090918B00291B821B80938B0081E08093B0
:1001B000740080911701882319F0835E8093750085
:1001C00080917500873418F086E480937500089557
:1001D000809116018111809368000895209181001B
:1001E0009091160180911701222381F09111909333
:1001F0007000882321F097E9981B90936F008091FD
:100200001801882361F080936E00089591119093F6
:100210007200882321F097E9981B9093710008954C
:10022000BC9AC49A08958CEF93E00197F1F7089572
:10023000EF92FF920F931F93CF93DF931F92CDB74F
:10024000DEB78C017B01842F4091CA005091CB0016
:10025000452B39F0E091CA00F091CB002983099534
:1002600029811093CB000093CA00012B71F0E0911B
:10027000CA00F091CB00B701822F0F90DF91CF9190
:100280001F910F91FF90EF9009940F90DF91CF9104
:100290001F910F91FF90EF900895DC0190918A00DB
:1002A000983090F4E92FF0E0EE0FFF1FEA5FFE4F69
:1002B000B183A0839F5F90938A0028E049E0CD013D
:1002C000B7DF80918A0008958FEF0895CF93DF9371
:1002D000E0918A00EE2359F0E150E0938A00F0E0CB
:1002E000EE0FFF1FEA5FFE4FC081D18102C0C0E068
:1002F000D0E0E0918A00EE2341F0F0E0EE0FFF1F26
:10030000EC5FFE4F8081918102C080E090E02AE0A6
:1003100049E060E070E08CDFCE01DF91CF9108957D
:100320000F931F93CF93DF9300D0CDB7DEB78C012F
:1003300069837A83CBDF69817A81C8010F900F903E
:10034000DF91CF911F910F91A8CF813C29F460E0FC
:1003500070E089E29AE006C0823C39F460E070E027
:100360008BE699E0DDDF80E0089581E00895813C2F
:1003700029F460E070E089E29AE006C0823C31F442
:1003800060E070E085EA91E0CBDF07C0843C39F49F
:1003900060E070E085EB9DE080DF80E0089581E023
:1003A0000895813C29F460E070E089E29AE006C09B
:1003B000823C31F460E070E087EB91E0B1DF07C090
:1003C000843C39F460E070E089EB9DE066DF80E01A
:1003D000089581E008951092030181E080938500E3
:1003E00008951092BA001092B900909103018031E3
:1003F00059F4892F80699F709F3021F48093030105
:1004000081E008958F5FFACF882329F09068909358
:10041000030180E00895892F8F7E95FD02C08068DA
:10042000EDCF806CEBCF482FDB0120E030E0C9013D
:1004300063E070E08ADCFC01EE52FF4F808188238C
:1004400031F02F5F3F4F2031310589F703C04083E2
:10045000B283A183089520E030E0F22FE32F2F5FD5
:100460003F4FC90163E070E070DCDC01AE52BF4F6A
:100470004C918F2F9E2F63E070E067DCFC01EE5201
:10048000FF4F408311968D919C91129792838183A7
:100490002F30310511F71092FF00109201011092D8
:1004A0000001089581E080938500089590E822E09E
:1004B00048EA57E030E0815070F00FB6F89496BDEE
:1004C00026BD0FBEFA013197F1F70FB6F89496BD2D
:1004D00036BD0FBEF0CF08950F931F93CF93DF93D8
:1004E000D82F8B01C0918A00C150C7FD0FC0EC2FDF
:1004F000EE0FFF0BEA5FFE4F0190F081E02DB80197
:100500008D2F09958111F0CF80E001C081E0DF914E
:10051000CF911F910F9108958091D200882349F0C7
:100520006091D3007091D4008091D200D5DF93DF29
:10053000F3CF08958F929F92AF92BF92CF92DF92A6
:10054000EF92FF920F931F93CF93DF931F92CDB73C
:10055000DEB7E090CA00F090CB004C0110E800E05C
:1005600088EAC82E87E0D82E22E09AEEA92EBB2476
:10057000B3948114910451F180918700863038F44E
:100580000FB6F89416BD26BD0FBEC50106C00FB646
:10059000F89416BD06BD0FBEC6010197F1F70FB660
:1005A000F89416BD06BD0FBE80918500811110C064
:1005B0004091CA005091CB0091E0891A9108E4164D
:1005C000F50639F42983A8DF2981D3CF81E001C062
:1005D00080E00F90DF91CF911F910F91FF90EF90EE
:1005E000DF90CF90BF90AF909F908F9008951BCFDA
:1005F0009093BA008093B900BC018091030113CF9E
:100600008FE887B9089581E887B9089586B188642D
:1006100086B9089581E887B9A29A86EC86B90895CB
:10062000379808951F920F920FB60F9211242F93AF
:100630003F934F935F936F937F938F939F93AF936A
:10064000BF93EF93FF938091D100882309F407C1F2
:100650001092D10084B195B120918600280F20938B
:10066000860020918800222311F021E004C020910F
:10067000B8002F5F23702093B8004091B80041303C
:1006800041F525E0880F991F2A95E1F767E172E0AF
:1006900079DB60938C008091B700882321F0815032
:1006A0008093B700D4C080918C008D3178F4809114
:1006B000B600843020F48F5F8093B600C8C060E03D
:1006C00070E084E0B0DE84E18093B7001092B60061
:1006D000BEC0433009F0B9C08351914020918B00D6
:1006E000820F911D27FD9A9520917400222379F0A5
:1006F000109274009093CE008093CD00E6EAF0E073
:100700008193919320E0E63BF207D1F71DC0209141
:10071000CD003091CE002817390734F48091CD00F8
:100720009091CE0001960CC02091CD003091CE006A
:10073000821793074CF48091CD009091CE000197E1
:100740009093CE008093CD006091CD007091CE004B
:100750009091A5009F5F9093A500977071F4E6EAD1
:10076000F0E0828193818193919330E0E43BF30741
:10077000C1F77093B5006093B4008091A60090918A
:10078000A7009B01281B390B37FF03C02F5F3F4F8A
:1007900005C02115310511F0215031094150A1F753
:1007A00084E0220F331F8A95E1F7CB01820F931F5C
:1007B00090930501809304016091750070E09B01A6
:1007C000245031098217930714F01092A400861761
:1007D000970714F41092A3002091A200222321F085
:1007E00021502093A20035C0681779079CF420910E
:1007F000A300283020F42F5F2093A3002AC010927A
:10080000A3002CE02093A2009C01261B370BB9010A
:1008100085E019C06550710986179707D4F42091B7
:10082000A400283020F42F5F2093A40012C010925F
:10083000A4002CE02093A20020918C002E3148F0DF
:10084000681B790B86E0EFDD04C0423010F481E8CC
:1008500001C08FE887B9809188008111E1DEFF91A6
:10086000EF91BF91AF919F918F917F916F915F9128
:100870004F913F912F910F900FBE0F901F901895A1
:10088000A89581B5886181BD80E481BD0895A89552
:1008900081B5886181BD85E481BD0895A89584B73F
:1008A000877F84BF81B5886181BD11BC08950F9396
:1008B0001F9361E04DE750E026B323FB222720F988
:1008C000262780919B0090919C00A0919D00B09163
:1008D0009E00880F991FAA1FBB1F822B80939B002D
:1008E00090939C00A0939D00B0939E00FA013197D5
:1008F000F1F78C019D0101501109210931090E3FC9
:100900001F4F2F4F3F4FC0F28093D0001F910F9188
:1009100008958BB780628BBF08958BB78F7D8BBF97
:1009200008951895CF93C82F882311F080E101C056
:1009300080E057DD882331F0C093D00080E090E064
:10094000CF9156CECF9108951F920F920FB60F926E
:1009500011242F933F934F935F936F937F938F93C4
:100960009F93AF93BF93CF93DF93EF93FF9381E078
:1009700080938900809188008823F9F0C091A000BD
:10098000D091A100BE0183E04EDDCE018827907892
:100990002196C82BD92BD093A100C093A000BCDD19
:1009A0008091A0009091A1008F779927892B09F061
:1009B00053C08FEF80939F0004C01092A10010924B
:1009C000A000C091D00073DFC813ACDFC091B900A4
:1009D000D091BA00CE010196CC27D078C82BD92B64
:1009E000D093BA00C093B90080910301807F803B0F
:1009F00019F460E070E001C0BE0181E014DD909167
:100A0000030194FF0DC095FF02C0CE0107C0689797
:100A1000A0F090629093030180E090E0E9DD0DC0CA
:100A2000992359F095FD08C0629738F0906490932F
:100A3000030180E090E0DCDDCEDC80919F008F5FE1
:100A400080939F00837041F4809188008111E2DDE2
:100A5000DDDD81E08093D100FF91EF91DF91CF91B7
:100A6000BF91AF919F918F917F916F915F914F91C6
:100A70003F912F910F900FBE0F901F90189507DF99
:100A8000CFDD15DF8111FDCFA6DC43DF809188002B
:100A90008823A1F01092890085B7877E806185BF89
:100AA00085B7806285BF889585B78F7D85BF80912A
:100AB00089008111EBCF10928800E8CF81E080930C
:100AC0007400A8DDDDCE85B7877E85BF85B78062DF
:100AD00085BF889585B78F7D85BF08958093CF00AA
:100AE00008958091CF0090918700891720F480911C
:100AF0008700815007C090918700981718F4809163
:100B000087008F5F6FEF680F262F30E0A9014354F5
:100B10005F4FFA01949170918700671728F469B5C7
:100B2000611102C09F3F59F069B5691718F499B572
:100B30009F5F05C069B5961718F499B5915099BD96
:100B4000295D3F4FF901949168B5691718F498B57C
:100B50009F5F05C068B5961718F498B5915098BD79
:100B600099B5FA014491941307C098B5F9012491FD
:100B7000921302C0809387000895E0916600F0917F
:100B800067003196FB70F460F0936700E0936600B5
:100B9000809186008B5A80938600E4918091860034
:100BA0008E0F08950F931F93CF93DF93F89480E0F7
:100BB00091E00FD9853A89F40BEB10E0C1E0D1E068
:100BC000CE0107D9F80181938F012196C031F1E060
:100BD000DF07B1F7789481E002C0789480E0DF917C
:100BE000CF911F910F9108950F931F93CF93DF9390
:100BF000F8940BEB10E0C1E0D1E0F80161918F01B6
:100C0000CE01EFD82196C031F1E0DF07B1F765EAF8
:100C100080E091E0E6D87894DF91CF911F910F9119
:100C2000089580918700863010F492E005C08131EC
:100C300010F491E001C090E080E80FB6F89486BD12
:100C400096BD0FBE0895882329F0813031F4BC98F9
:100C5000C49A0895BC98C4980895E2CACF93C82F47
:100C6000809387008093CF008091880081110AC013
:100C700091E0CD3308F490E081E0C11101C080E043
:100C8000890FE1DFC11103C019BC18BC0DC0C150F0
:100C90008C2F90E0FC01E354FF4FE491E9BDFC018F
:100CA000E95DFF4FE491E8BDCF91BBCF0F931F9358
:100CB000CF93C82F882311F008EC02C008E0C1E0F0
:100CC00010E089E1CBDFC80135DC80E0C7DF8CE2D2
:100CD00091E030DCC150A9F784EF91E0CF911F91F2
:100CE0000F9128CCCF93DF93C82F843638F08CE94E
:100CF0008C0F843628F0C85C82E004C080E002C01B
:100D0000C82F81E0D0E0CA3018F0DF5FCA50FBCFB7
:100D1000882381F0CBDF882381F08D2FC7DF8823E4
:100D200061F08C2FC3DF882341F088EE93E0DF91E0
:100D3000CF9100CCD111F1CFF4CF80E0DF91CF91F2
:100D4000089580918C00CECFCF93DF93883059F4F3
:100D5000109291006093900010928F0010928E007C
:100D600010928D0081C0813009F068C090918F0091
:100D7000892F8D7F81F420918D0030918E002F314D
:100D8000310538F42F5F3F4F30938E0020938D0054
:100D90006EC09F5F25C0913051F5809190008823EF
:100DA000F1F0C0918D00D0918E009E012F713327FC
:100DB0002A30310511F485E204C02431310519F4DB
:100DC00080E04CDF06C02F31310519F4815080934B
:100DD00090002196D0938E00C0938D0045C092E084
:100DE00090938F0010928E0010928D0040C093302F
:100DF000E9F4C0918D00D0918E002196D0938E00A1
:100E0000C0938D00CE0183709927009711F489E17A
:100E100003C0029711F482E121DFCB3BD10520F121
:100E200080E01CDF84E080938F001EC09430E1F4EA
:100E3000809191008093020149DA16C08138B1F4A3
:100E4000CADA80918F00833079F4809191008F5FAE
:100E50008093910010928E0010928D008BE4FEDE44
:100E600084E024DB80E0FADE80E001C081E0DF91F5
:100E7000CF910895982F880F97FD80950895B89A7F
:100E800081E083BF81EA8ABDB99A88E088BB85BBCF
:100E90000895CF93DF93D82FE82FF0E0E659FF4F66
:100EA000C08186E9DBDED11107C0CA3210F4BBD99C
:100EB00007C081E090E003C08C2F869590E03ADB7C
:100EC00080E0CCDE8C2F90E0DF91CF9133CBEF929E
:100ED000FF920F931F93CF93DF934FDE8F73E82E14
:100EE000F12C4BDE67E042D701E010E0E80102C0E0
:100EF000CC0FDD1F9A95E2F740DE65E037D702C0E0
:100F0000000F111F9A95E2F7C00FD11F36DE90E057
:100F1000BE014CD7C80FD91FC739D10514F0C6E997
:100F2000D0E08C2F9BDEC70105DB9E0143E03595A9
:100F300027954A95E1F72115310509F421E0022FA3
:100F400010E0C701F7DAC01BD10BD7FF02C0C0E029
:100F5000D0E08C2F83DE11DE837031F4C701EADA32
:100F6000CE01959587957ADEC230D10554F705DE1E
:100F70006DE0FCD6C1E0D0E002C0CC0FDD1F9A9539
:100F8000E2F7FBDD90E0BE01FDD6C80FD91F80E07F
:100F900065DECE01DF91CF911F910F91FF90EF9011
:100FA000C9CACF93DF93C0916900CC0FC73908F04D
:100FB000C6E9D4E08C2F52DE85E090E0BBDA809168
:100FC00069004CDE81E490E0B5DAD15099F780ED0C
:100FD00092E0DF91CF91AECAAF92BF92CF92DF92F3
:100FE000EF92FF920F931F93CF93DF93EB01883023
:100FF00021F41092990081E028C0823C19F41092EB
:10100000990042C0813BE1F480916200CD2B49F40C
:101010008E3610F09FEF03C0823018F491E0909369
:101020006300C0916300C80F21F481E080936200E7
:10103000C5C0CF3618F4C093620026C08EE612C039
:10104000813E31F4809163008195809363001CC0E0
:10105000823B59F481E0809363008091620082308A
:1010600098F08150809362000FC0833C79F48091A6
:101070009900843E48F4855E8093990080918700B2
:10108000805EECDD82E012DAC0E098C0813009F0C9
:1010900094C06E33710511F4809363002091990020
:1010A000FE01FF70213071F46091620070E0675EB4
:1010B0007F4FCF0134E0969587953A95E1F745D675
:1010C000C92E01C0C12CEF3FFF4061F4222351F033
:1010D000215020939900211105C060E070E089E261
:1010E0009AE01ED9D09098008D2DC4DEA82EE090F5
:1010F00097008E2DBFDEB82E00916100F090960013
:101100008F2DB8DE382F10916000209162002C19CD
:101110008A2D90E067E070E018D6290F602F70E00C
:101120008B2D90E012D6290F612F70E0832F90E075
:101130000CD6822F890F87FD80E090DDC0FD05C0B1
:101140001CDD8170D80ED092980080919500E80E39
:10115000E092970012DD65E209D6F90EF092960052
:101160000CDD8F7329F409DD6DE000D690939500B6
:10117000002331F002DD8F7319F4015000936100F8
:10118000FCDC811107C0F9DC6BE0F0D590936100C5
:1011900010929700133030F0F0DC8F7119F4115079
:1011A00010936000EADCC82FCF7709F06DCFE5DC43
:1011B00066E0DCD59093600001C0C1E08C2FDF9128
:1011C000CF911F910F91FF90EF90DF90CF90BF9044
:1011D000AF9008958091730041DD84E690E0AAD934
:1011E00080E03CDD8091680090E068EE73E0ADD572
:1011F000845691099FC90F931F93CF93DF93EC01FE
:10120000809172009091710020918100222321F041
:101210008091700090916F00282F30E0C217D307A3
:101220000CF441C0292F30E02C173D07DCF18091F0
:101230008100811102C08C2F36C0E0916F00809137
:101240007000E81B60916E00F0E070E06150710981
:10125000CF01ACD56093CC00909170006695262F9D
:1012600030E010E080916E001817E0F400917000FB
:1012700040916E00812F90E0BF0167D5642F70E030
:10128000615071097FD5902F960FAE01491B51090E
:1012900057FF03C05195419551092417350714F4A0
:1012A0001F5FE0CF892FDF91CF911F910F9108959C
:1012B00080938000D3CCCF93C82FCC2351F085E20C
:1012C000CDDC82E0F3D880E0C9DC89E1EFD8C15001
:1012D000F4CFCF910895883049F410929400109281
:1012E000930082E0E8DF88E1B9DC07C0813C39F493
:1012F00060E070E089E29AE013D880E00895823CD3
:1013000029F460E070E081ED91E0F6CF8130D9F40E
:1013100080919300909194000196853524E2920784
:1013200028F49093940080939300E7CF1092940058
:101330001092930080918700815090DC809187000B
:101340008111DBCFD5CF81E00895CF93C091870085
:1013500080E084DC83E0AAD88C2FCF917FCC909161
:101360008C009D3110F480E06ECC8770E1F758C797
:1013700019DC8823E1F18091BB008093810080918A
:10138000BC00809372008091BD00809371008091B9
:10139000BE00809370008091BF0080936F008091A9
:1013A000C00080936E008091C10080938200809184
:1013B000C20080936C008091C30080936A0080918A
:1013C000C40080936B008091C50080936900809178
:1013D000C600809368008091C7008093750080915B
:1013E000C80080938B008091C90080936D000895A0
:1013F00080918100EBEBF0E080838091720081832B
:1014000080917100828380917000838380916F004E
:10141000848380916E008583809182008683809191
:101420006C008783AAE6B0E08C91808711968C913E
:10143000818780916900828780916800838780918D
:101440007500848780918B00858780916D008687E9
:10145000CBCBCF93DF93EB01883069F480E0FEDBE8
:1014600080916D008370EFDBCD2B19F481E08093C8
:101470008800C0E08CC0813051F469317105C8F337
:101480008093880080916D008370DDDBF2CF833024
:1014900041F480916D008370833059F7862F5FDFB0
:1014A000E8CF813B69F481E090E0A5DED7DB809155
:1014B0008100811102C06897E0F261E070E026C00F
:1014C000813ED9F3813871F4C0918200CC2321F0A0
:1014D0008C2F90E090DE22C08091730090E08BDE34
:1014E000BDDB55C0813C71F4C0918200CC2319F062
:1014F0006C2F70E00BC06091730070E08BEC9AE091
:101500000FD745C0823B29F466E970E08BEC9AE086
:101510003BC0823CC9F3833919F480E09FDBA9CF3B
:10152000833C29F460E070E085EA91E02DC0833BC4
:1015300029F460E070E084E39CE026C0843C39F448
:1015400082E0B9DE60E070E08DE09DE01DC0853C8A
:1015500039F481E0B0DE60E070E08BEC9CE014C018
:10156000873C61F490916D0081E0890F83709C7FCE
:10157000982B90936D0067DB3BDF7BCF8F3C31F482
:1015800060E070E086EC90E0CBD673CFC1E08C2FAA
:10159000DF91CF9108951F93CF93DF93CDB7DEB73F
:1015A00028970FB6F894DEBF0FBECDBF9B014091C8
:1015B0007200E091710090918100992339F040917F
:1015C0007000E0916F001091CC0001C011E0982FE5
:1015D0009D7F9830C1F4109284008A3019F42091D4
:1015E000730030E0842F90E08217930738F48E2F39
:1015F00090E02817390710F420937300C901FBDD30
:1016000057DE81E06FC0813C31F460E070E089E238
:101610009AE086D61CC1823C49F4809187008639C5
:1016200010F486E97AC08091730077C0833C69F436
:101630009091810081E0911180E080938100D8DE5B
:1016400084DE8091870090E065C0843C31F460E0E6
:1016500070E08FEA9DE021D6FAC0813BF1F58091E0
:101660008100882339F0C90168E170E08BD3892BB0
:1016700009F0EDC02115310571F4809187008E17B6
:1016800010F08FEF05C0809187004817C8F081E007
:101690008093650015C0273381E0380788F080917A
:1016A00087008E1770F72D36324050F080918700FA
:1016B000481730F04ADE60E070E08DE09DE030D603
:1016C0002091870060916500772767FD7095812FD5
:1016D00090E03BD3820F911D1DC0813E31F480917B
:1016E0006500819580936500B2C0823BC1F481E0C2
:1016F0008093650080918100882339F0C90168E1F9
:1017000070E040D3892B09F0A2C08091870090E05F
:10171000811B910970DD80937300CADD98C0853C00
:1017200029F4809187008093820007C0853B41F4B3
:10173000232B09F08EC0109282005ADE06DE89C08B
:10174000813009F052C02E33310511F480936500C9
:1017500020FF0CC0809187008A3808F478C09091EF
:1017600087008091CF00981708F471C088E0E6E701
:10177000F0E0DE01119601900D928A95E1F79091CB
:10178000CF0080918700891738F421FD60C08091D7
:10179000CF009091870004C0809187009091CF0086
:1017A000891B20919A002F5F20939A00882309F4C7
:1017B0004EC0909187009A3838F040918700309160
:1017C000CF0091E0341708F090E09F5F8695E9F72D
:1017D000E1E0F0E0EC0FFD1FE90FF11D80818217C1
:1017E000B0F57FD910929A0032C08530B9F480915B
:1017F00087008D3360F18091870090E0821B930B0E
:101800008C33910534F08739910528F086E990E012
:1018100002C08CE390E08093CF0019C08630C9F4F9
:101820009091870080918000981788F490918700AC
:10183000290F311D90E08217930734F02C333105C6
:1018400024F42CE330E001C09C012093CF0080E021
:1018500001C081E028960FB6F894DEBF0FBECDBF61
:10186000DF91CF911F9108950F931F93CF93DF9333
:10187000D82F8B01C0916C0081E080938400C3302D
:1018800011F48D2FA9DBD83021F481E0809364001E
:101890007AC0D13C31F460E070E089E29AE040D552
:1018A00072C0D23C49F48C2F90E0019665E070E064
:1018B0007DD280936C0059C0D13B51F5C23090F479
:1018C00000FD61C0EC2FF0E0E659FF4F8081909160
:1018D0006400891B883020F08F3FA1F58EEF32C065
:1018E00088E030C0C43009F04EC09091690080910A
:1018F0006400890F8093690080916900823010F440
:1019000082E02BC080916900893748F188E725C0C3
:10191000D13E31F48091640081958093640025C0AC
:10192000D23B09F581E080936400C23068F400FD89
:101930002AC0EC2FF0E0E659FF4F80818F3F19F16C
:1019400080818F5F80831FC0C430E9F4809169007B
:10195000833028F0809169008150809369008091E4
:1019600069007CD910C0D23E11F442DD0CC0D130E8
:1019700061F40E33110511F4D09364008091860058
:10198000080F0093860080E001C081E0DF91CF91D5
:101990001F910F9108950F931F93CF93DF93D82F2B
:1019A0008B01883031F480918400813011F488E01B
:1019B0005BDF8D2F8079803959F481E0809383003B
:1019C000C0918400C1110AC08091730047D91FC023
:1019D000803831F41092830080E040D9C0E017C015
:1019E000D130A1F4C0918300CC2351F080918400C8
:1019F0008130A1F7B801DF91CF911F910F9134CFC2
:101A0000033A134058F3D093880001C0C1E08C2FF3
:101A1000DF91CF911F910F910895EF92FF921F9345
:101A2000CF93DF9300D0CDB7DEB7182F7B0180793D
:101A3000803901F5809172008983809170008A83DA
:101A4000812F8F70823059F48091810091E0982726
:101A5000E1E0F0E0EC0FFD1FE90FF11D08C08091FF
:101A60008100E1E0F0E0EC0FFD1FE80FF11D808147
:101A7000F5D81CC0803819F480E0F0D809C01830BF
:101A800039F480916D0086958695DDD881E036C069
:101A9000113061F489E1E816F10488F010938800B0
:101AA00080916D0086958695CED809C0133049F493
:101AB00090916D009C709C3011F48E2D50DC80E074
:101AC0001DC0133C89F490916D00892F86958695F1
:101AD0008F5F8370282F220F220F9370920F9093A5
:101AE0006D00B1D885DCEBCF81E0143C39F4E3DB49
:101AF00060E070E089E29AE013D4E1CF0F900F909C
:101B0000DF91CF911F91FF90EF900895883029F4D5
:101B10001092920080E0A2D820C0813081F46091C0
:101B20009200641738F470E06F5F7F4F84EA96E0AC
:101B3000B4D313C0F90109955BDCC8D30EC08A3059
:101B400061F48091920090910201E82FF0E0EA5E4A
:101B5000FE4F90838F5F8093920080E008954091C4
:101B600081004E5F2EEE30E0D1CF28EC30E042E035
:101B7000CDCF28EE30E041E0C9CFCF93C0E08C2F2D
:101B80006DD885E093D48C2F869568D885E08ED467
:101B90008ED6882391F0CF5FC03489F785E180939A
:101BA000160110921701F4D223DCC6E98C2F56D807
:101BB00081E07CD4C150D1F708C0CC2331F08C2F08
:101BC0004DD883E073D4C150F8CFCF910895809160
:101BD000CA009091CB002CE08433920729F469E18C
:101BE00070E08BEC9AE015C08B5C9A4071F48091A8
:101BF0008700823050F090918700209187002695D1
:101C00002695892F8695820F53CB60E070E089E29C
:101C10009AE086C3843019F4DADF80E0089581E029
:101C2000089582E11BD883E041D480E017D83FD6E5
:101C30008111A3DF9DDB61E070E089E29AE02DC3B2
:101C40001F93CF93DF938091CA009091CB0020E047
:101C5000863C9207B1F4CEE1D0E01C2F185FFE0164
:101C60008491805323D88CE291E064D421961C1394
:101C7000F6CF60E070E089E29AE0DF91CF911F91AA
:101C80004FC32CE08433920761F0ECE08B3C9E075D
:101C9000D9F4809184008130A9F580918300882354
:101CA00089F180916C00823059F030F0843071F508
:101CB000DF91CF911F9175C9DF91CF911F91E9C835
:101CC000DF91CF911F9103C9F1E0853A9F0721F47D
:101CD000DF91CF911F9135C821E0813D920721F41A
:101CE000DF91CF911F9176CA875B914059F4809123
:101CF000CD009091CE00F6D788EE93E0DF91CF91A2
:101D00001F9118C4DF91CF911F91DDC6DF91CF9154
:101D10001F910895F894B3D8FCD5B2D57BD47894AC
:101D200081E0C4D358D360E070E08AE09EE0B5D291
:101D300078DFF2D380918800882319F080E08ED775
:101D40009ED67EDF10928500F4CF0024552704C074
:101D5000080E591F880F991F009729F076956795EF
:101D6000B8F37105B9F7802D952F0895991B79E087
:101D700004C0991F961708F0961B881F7A95C9F71B
:101D800080950895AA1BBB1B51E107C0AA1FBB1F6A
:101D9000A617B70710F0A61BB70B881F991F5A95F7
:101DA000A9F780959095BC01CD01089597FB072E6A
:101DB00016F4009406D077FD08D0E4DF07FC05D0C8
:101DC0003EF4909581959F4F0895709561957F4F52
:101DD0000895E199FECF9FBB8EBBE09A99278DB302
:101DE0000895262FE199FECF9FBB8EBBE09A019705
:101DF0000DB2021639F01CBA2DBB0FB6F894E29A58
:0A1E0000E19A0FBE0895F894FFCF99
:101E0A00060B180101010004023C28430309078A52
:101E1A00018A013C012DF8804222110904020500C1
:00000001FF
