:100000000C94D3000C94F0000C94C7040C94F000F2
:100010000C94F0000C94DC040C94F0000C94F000B0
:100020000C94F0000C94F0000C94F0000C94F00090
:100030000C94F0000C94F0000C9447030C94F00026
:100040000C94F0000C94F0000C94F0000C94F00070
:100050000C94F0000C94F0000C94F0000C94F00060
:100060000C94F0000C94F0000C94F0000C94F00050
:1000700032303139313130310000000000000000F1
:100080000000000000000000000000000000000070
:100090000000000000000000000000000000000060
:1000A0000000000000000000000000000000000050
:1000B0000000000000000000000000000203030533
:1000C000060608090A0B0C0E0F1012121415171849
:1000D0001A1B1D1E2021242527292B2C2E303234BB
:1000E00036383A3D3F414346484A4D4F525456599F
:1000F0005C5F6164676A6C6F7275787C7F828589EA
:100100008C9093979A9DA1A5A9ACB0B4B8BCC0013E
:100110000102020303040405060708090A0C0D0E78
:100120000F11131416181A1D1F2224272A2D3033DD
:10013000373B3E42464B4F54595D63686E73797F3F
:10014000868C939AA1A8B0B8C0C8D1D9E2ECF5FFCB
:10015000FFFFFFFFFFFFFFFFFFFFFFFFFFFFFFFFAF
:10016000FFFFFFFFFFFFFFFFFFFFFFFFFFFFFFFF9F
:10017000FFFFFFFFFFFFFFFFFFFFFFFFFFFFFFFF8F
:10018000FFFFFFFFFFFFFFFFFFFFFFFFFFFFFFFF7F
:10019000FFFFFFFFFFFFFFFFFFFFFFFFFFFFFFFF6F
:1001A000FFFFFFFFFF0011241FBECFEFD4E0DEBF33
:1001B000CDBF11E0A0E0B1E0E6EEF2E202C00590B2
:1001C0000D92AC33B107D9F711E0ACE3B1E001C057
:1001D0001D92A83DB107E1F70E94EB100C9471113C
:1001E0000C94000081E008958091D501882369F086
:1001F00020918C0130918D0190914701291B821B28
:100200008093470181E0809315018091D601882376
:1002100019F0835E8093160180911601873418F0DF
:1002200086E48093160108958091D5018111809311
:100230000801089520913D019091D5018091D6014A
:10024000222381F0911190930F01882321F097E9E7
:10025000981B90930E018091D701882361F08093C1
:100260000D010895911190931101882321F097E9D0
:10027000981B90931001089588E08CB988E780BBA3
:1002800081EA8093720081E08093710084E082BBF8
:1002900087BD0895F89498ED9FBD83BF7894089525
:1002A0008CEF93E00197F1F70895EF92FF920F938F
:1002B0001F93CF93DF931F92CDB7DEB78C017B01E5
:1002C000842F4091890150918A01452B39F0E091AA
:1002D0008901F0918A0129830995298110938A0166
:1002E00000938901012B71F0E0918901F0918A015D
:1002F000B701822F0F90DF91CF911F910F91FF9047
:10030000EF9009940F90DF91CF911F910F91FF9083
:10031000EF900895DC0190914601983098F4E92F10
:10032000F0E0EE0FFF1FEB53FE4FB183A0839F5F02
:100330009093460128E049E0CD010E94550180914B
:10034000460108958FEF0895CF93DF93E091460122
:10035000EE2359F0E150E0934601F0E0EE0FFF1F6D
:10036000EB53FE4FC081D18102C0C0E0D0E0E091EC
:100370004601EE2341F0F0E0EE0FFF1FED53FE4F7C
:100380008081918102C080E090E02AE049E060E055
:1003900070E00E945501CE01DF91CF9108950F9337
:1003A0001F93CF93DF9300D0CDB7DEB78C01698365
:1003B0007A830E94A40169817A81C8010F900F900D
:1003C000DF91CF911F910F910C948A01813C29F408
:1003D00060E070E086EE9BE006C0823C41F460E0A5
:1003E00070E081E99AE00E94CF0180E0089581E009
:1003F0000895813C29F460E070E086EE9BE006C041
:10040000823C39F460E070E086EE91E00E94CF011A
:1004100008C0843C41F460E070E084EF9FE00E94FB
:100420008A0180E0089581E00895813C29F460E02C
:1004300070E086EE9BE006C0823C39F460E070E03C
:1004400089EF91E00E94CF0108C0843C41F460E054
:1004500070E089EF9FE00E948A0180E0089581E0CA
:1004600008951092C20181E0809341010895109295
:100470007801109277019091C201803159F4892F4F
:1004800080699F709F3021F48093C20181E00895BC
:100490008F5FFACF882329F090689093C20180E0A3
:1004A0000895892F8F7E95FD02C08068EDCF806C06
:1004B000EBCF482FDB0120E030E0C90163E070E0C2
:1004C0000E941211FC01EF56FE4F8081882331F00B
:1004D0002F5F3F4F2031310581F703C04083B28346
:1004E000A183089520E030E0F22FE32F2F5F3F4FEC
:1004F000C90163E070E00E941211DC01AF56BE4FEB
:100500004C918F2F9E2F63E070E00E941211FC012E
:10051000EF56FE4F408311968D919C9112979283D6
:1005200081832F30310501F71092BE011092C00176
:100530001092BF01089581E08093410108950F93C7
:100540001F93CF93C82F08EA17E0CC2359F082E01D
:100550000E944A01C8010197F1F780E00E944A0118
:10056000C150F3CFCF911F910F9108950F931F9317
:10057000CF93DF93D82F8B01C0914601C150C7FDA7
:100580000FC0EC2FEE0FFF0BEB53FE4F0190F081ED
:10059000E02DB8018D2F09958111F0CF80E001C0C9
:1005A00081E0DF91CF911F910F910895809191018A
:1005B000882359F06091920170919301809191018B
:1005C0000E94B6020E947202F1CF0895CF92DF928C
:1005D000EF92FF920F931F93CF93DF9300918901C6
:1005E00010918A01EC0188EAE82E87E0F82E9AEE55
:1005F000C92EDD24D394209709F1809143018630E0
:1006000028F482E00E944A01C60104C080E00E94F2
:100610004A01C7010197F1F780E00E944A018091E9
:10062000410181110DC02091890130918A012197EA
:100630000217130731F40E94D602DDCF81E001C01A
:1006400080E0DF91CF911F910F91FF90EF90DF90AD
:10065000CF9008950C94590290937801809377017C
:10066000BC018091C2010C9459028EE884B90895AE
:100670008DE084B9089583B1886483B908958DE0CD
:1006800084B9379A86EC83B908951F9808951F920C
:100690000F920FB60F9211242F933F934F935F93B6
:1006A0006F937F938F939F93AF93BF93EF93FF933A
:1006B00080919001882309F40DC11092900160B1DE
:1006C00071B180914201860F809342018091440173
:1006D000882311F081E004C0809176018F5F8370E0
:1006E0008093760190917601913049F580E098E50C
:1006F0000E942F116C5F7F4F76956795609348013C
:1007000080917501882321F0815080937501D9C0B3
:10071000809148018D3180F480917401843020F4FF
:100720008F5F80937401CDC060E070E084E00E9430
:10073000590284E18093750110927401C2C0933014
:1007400009F0BDC06E50714080914701680F711D66
:1007500087FD7A9580911501882379F01092150113
:1007600070938D0160938C01E4E6F1E061937193E5
:1007700021E0E437F207D1F71FC020918C013091BE
:100780008D01261737073CF420918C0130918D01A3
:100790002F5F3F4F0DC020918C0130918D0162176A
:1007A000730754F420918C0130918D01215031094F
:1007B00030938D0120938C0160918C0170918D019B
:1007C000209163012F5F20936301237071F4E4E6AD
:1007D000F1E0228133812193319331E0E237F30755
:1007E000C1F770937301609372012091640130919D
:1007F0006501AB01421B530B9A0137FF03C02F5F0A
:100800003F4F05C02115310511F02150310991509C
:10081000A1F784E0220F331F8A95E1F7CB01820F05
:10082000931F9093C4018093C3016091160170E0FF
:100830009B01245031098217930714F01092620132
:100840008617970714F4109261012091600122230A
:1008500021F021502093600136C0681779079CF47D
:1008600020916101283020F42F5F209361012BC07B
:100870001092610124E0209360019C01261B370B3C
:10088000B90185E019C06550710986179707DCF436
:1008900020916201283020F42F5F2093620113C061
:1008A0001092620124E020936001209148012E31D2
:1008B00050F0681B790B86E00E94590204C0923008
:1008C00010F48DE001C08EE884B98091440181115B
:1008D0000E944503FF91EF91BF91AF919F918F913E
:1008E0007F916F915F914F913F912F910F900FBE2C
:1008F0000F901F901895A89580E480BF0895A89543
:1009000083E480BF0895F894A89585B7877F85BF55
:1009100088ED8FBD10BE789408950F931F9361E00A
:100920004DE750E02FB122FB222720F926278091A6
:10093000590190915A01A0915B01B0915C01880F1F
:10094000991FAA1FBB1F822B8093590190935A01B4
:10095000A0935B01B0935C01FA013197F1F78C0130
:100960009D0101501109210931090E3F1F4F2F4FE1
:100970003F4FC0F280938F011F910F9108958CB764
:1009800088608CBF08958CB7877F8CBF08951895B9
:10099000CF93C82F882311F080E101C080E00E942E
:1009A0003702882339F0C0938F0180E090E0CF9127
:1009B0000C942C03CF9108951F920F920FB60F92B3
:1009C00011242F933F934F935F936F937F938F9354
:1009D0009F93AF93BF93CF93DF93EF93FF9381E008
:1009E0008093450180914401882309F1C0915E0103
:1009F000D0915F01BE0183E00E945902CE01882799
:100A000090782196C82BD92BD0935F01C0935E01BB
:100A10000E94D60280915E0190915F018F779927A5
:100A2000892B09F05BC08FEF80935D0104C01092A9
:100A30005F0110925E01C0918F010E948D04C81366
:100A40000E94C804C0917701D0917801CE0101962F
:100A5000CC27D078C82BD92BD0937801C0937701BD
:100A60008091C201807F803B19F460E070E001C09A
:100A7000BE0181E00E9459029091C20194FF0EC014
:100A800095FF02C0CE0107C06897B8F090629093BE
:100A9000C20180E090E00E942C030FC0992369F00E
:100AA00095FD09C0629748F090649093C20180E080
:100AB00090E00E942C030E94310280915D018F5FC3
:100AC00080935D01837051F48091440181110E94F3
:100AD0003F030E943B0381E080939001FF91EF91DF
:100AE000DF91CF91BF91AF919F918F917F916F9146
:100AF0005F914F913F912F910F900FBE0F901F90DC
:100B000018950E947F040E9445030E948D04811164
:100B1000FCCF0E9431020E94BF04809144018823CF
:100B2000A1F01092450186B78F79806486BF86B7A1
:100B3000806186BF889586B78F7E86BF809145018C
:100B40008111EBCF10924401E8CF81E08093150131
:100B50000E943F030C947B0486B78F7986BF86B7CB
:100B6000806186BF889586B78F7E86BF0895809303
:100B70008E01089580918E0190914301891720F490
:100B800080914301815007C090914301981718F458
:100B9000809143018F5F9FEF980F292F30E0A901CB
:100BA000415F5E4FFA01649170914301971758F4C9
:100BB000E0916C00F0916D00EF2B29F46F3F19F478
:100BC0006FEF70E01CC0E0916C00F0916D0070E080
:100BD000E617F70738F460916C0070916D006F5F55
:100BE0007F4F0DC0E0916C00F0916D006E177F0794
:100BF00050F460916C0070916D00615071097093B8
:100C00006D0060936C0027583F4FF9016491E091AB
:100C10006A00F0916B0070E0E617F70738F4609116
:100C20006A0070916B006F5F7F4F0DC0E0916A00AA
:100C3000F0916B006E177F0750F460916A0070911D
:100C40006B006150710970936B0060936A00609152
:100C50006C0070916D00FA01449150E064177507C3
:100C600061F440916A0050916B00F901249130E0E9
:100C70004217530711F4809343010895E091060150
:100C8000F09107013196FB70F460F0930701E09357
:100C90000601809142018B5A80934201E491809138
:100CA00042018E0F08950F931F93CF93DF93F89413
:100CB00080E890E00E945711853A89F409E711E035
:100CC000C1E8D0E0CE010E945711F80181938F0155
:100CD0002196C139D105B1F7789481E002C07894AA
:100CE00080E0DF91CF911F910F9108950F931F9393
:100CF000CF93DF93F89409E711E0C1E8D0E0F80161
:100D000061918F01CE010E945F112196C139D105F9
:100D1000B1F765EA80E890E00E945F117894DF9176
:100D2000CF911F910F91089580914301863010F467
:100D300082E005C08E3010F481E001C080E00C94A8
:100D40004A010F931F93CF93DF9300D01F92CDB72B
:100D5000DEB795E0998394E09A8393E09B83FE014C
:100D6000319640E050E090E061E070E0B1919A018E
:100D7000220F331F8C0102C0159507952A95E2F7C3
:100D80009801237069F02130E1F4A0B39B010B2E90
:100D900001C0220F0A94EAF7322F30953A231AC085
:100DA000A0B39B010B2E01C0220F0A94EAF72095F5
:100DB000322F3A2330BB32B3322332BB31B3232339
:100DC0000FC0A0B39B010B2E01C0220F0A94EAF7BB
:100DD0003A2F322B30BB32B3322B32BB31B3232B01
:100DE00021BB4F5F5F4F4330510509F0BFCF0F90DC
:100DF0000F900F90DF91CF911F910F910895CF9396
:100E0000C82F8093430180938E018091440181110A
:100E100002C00E94A106C11109C010926D0010927B
:100E20006C0010926B0010926A0015C0C1508C2F9C
:100E300090E0FC01E15FFE4FE491F0E0F0936D0083
:100E4000E0936C00FC01E758FF4FE491F0E0F09371
:100E50006B00E0936A00CF910C9494060F931F935C
:100E6000CF93C82F882311F008EC02C008E0C1E03E
:100E700010E089E10E94FF06C8010E94E60280E0BE
:100E80000E94FF068CE291E00E94E602C15089F7C1
:100E900084EF91E0CF911F910F910C94E602CF93D4
:100EA000DF93C82F843638F08CE98C0F843628F015
:100EB000C85C82E004C080E002C0C82F81E0D0E0BE
:100EC000CA3018F0DF5FCA50FBCF8823A1F00E9420
:100ED0002E07882399F08D2F0E942E07882371F00A
:100EE0008C2F0E942E07882349F088EE93E0DF9133
:100EF000CF910C94E602D111EECFF2CF80E0DF91DA
:100F0000CF910895809148010C944F07CF93DF93C0
:100F1000883059F410924F0160934E0110924D01A8
:100F200010924C0110924B0189C0813009F06CC0C5
:100F300090914D01892F8D7F81F420914B0130914B
:100F40004C012F31310538F42F5F3F4F30934C0166
:100F500020934B0176C09F5F26C0913059F5809158
:100F60004E018823F9F0C0914B01D0914C019E01B4
:100F70002F7133272A30310511F485E204C0243162
:100F8000310521F480E00E94FF0606C02F313105B3
:100F900019F4815080934E012196D0934C01C09357
:100FA0004B014CC092E090934D0110924C01109275
:100FB0004B0147C09330F9F4C0914B01D0914C01E3
:100FC0002196D0934C01C0934B01CE018370992799
:100FD000009711F489E103C0029719F482E10E949D
:100FE000FF06CB3BD10550F180E00E94FF0684E074
:100FF00080934D0123C0943009F580914F01809377
:10100000C1010E94A4011AC08138D1F40E943102AA
:1010100080914D01833091F480914F018F5F8093D7
:101020004F0110924C0110924B018BE40E94FF067D
:1010300084E00E949F0280E00E94FF0680E001C0E1
:1010400081E0DF91CF910895982F880F97FD8095CB
:1010500008950C943C01CF93DF93D82FE82FF0E054
:10106000E65FFE4FC08186E90E94FF06D11108C0ED
:10107000CA3218F40E94500108C081E090E003C019
:101080008C2F869590E00E94E60280E00E94FF0689
:101090008C2F90E0DF91CF910C94E602EF92FF92BB
:1010A0000F931F93CF93DF930E943E068F73E82E1A
:1010B000F12C0E943E0667E00E94231101E010E03F
:1010C000E80102C0CC0FDD1F9A95E2F70E943E06B0
:1010D00065E00E94231102C0000F111F9A95E2F7EC
:1010E000C00FD11F0E943E0690E0BE010E94431136
:1010F000C80FD91FC739D10514F0C6E9D0E08C2F2D
:101100000E94FF06C7010E94E6029E0143E035955A
:1011100027954A95E1F72115310509F421E0022FC1
:1011200010E0C7010E94E602C01BD10BD7FF02C02E
:10113000C0E0D0E08C2F0E94FF060E943E06837024
:1011400041F4C7010E94E602CE01959587950E9461
:10115000FF06C230D1052CF70E943E066DE00E94CA
:101160002311C1E0D0E002C0CC0FDD1F9A95E2F759
:101170000E943E0690E0BE010E942F11C80FD91FA9
:1011800080E00E94FF06CE01DF91CF911F910F9169
:10119000FF90EF900C94E602CF93DF93C09109018A
:1011A000CC0FC73908F0C6E9D4E08C2F0E94FF06A7
:1011B00085E090E00E94E602809109010E94FF060E
:1011C00081E490E00E94E602D15079F780ED92E050
:1011D000DF91CF910C94E602AF92BF92CF92DF9253
:1011E000EF92FF920F931F93CF93DF93EB01883021
:1011F00021F41092570181E028C0823C19F410922A
:10120000570144C0813BE1F480910201CD2B49F4A8
:101210008E3610F09FEF03C0823018F491E0909367
:101220000301C0910301C80F21F481E08093020102
:10123000DEC0CF3618F4C093020128C08EE612C07B
:10124000813E31F4809103018195809303011EC09A
:10125000823B59F481E08093030180910201823046
:10126000A8F081508093020111C0833C89F48091E1
:101270005701843E58F4855E809357018091430165
:10128000805E0E94FF0682E00E949F02C0E0AFC025
:10129000813009F0ABC06E33710511F48093030106
:1012A00020915701FE01FF70213079F46091020115
:1012B00070E0675E7F4FCF0134E0969587953A9551
:1012C000E1F70E941211C92E01C0C12CEF3FFF406F
:1012D00069F4222359F0215020935701211106C0AF
:1012E00060E070E086EE9BE00E94CF01D090560156
:1012F0008D2D0E942408A82EE09055018E2D0E946D
:101300002408B82E00910101F09054018F2D0E9405
:101310002408382F10910001209102012C198A2DE8
:1013200090E067E070E00E941211290F602F70E0DA
:101330008B2D90E00E941211290F612F70E0832FF6
:1013400090E00E941211822F890F87FD80E00E9499
:10135000FF06C0FD06C00E943E068170D80ED092E6
:10136000560180915301E80EE09255010E943E061D
:1013700065E20E942311F90EF09254010E943E068C
:101380008F7339F40E943E066DE00E942311909302
:101390005301002339F00E943E068F7319F4015067
:1013A000009301010E943E06811109C00E943E0681
:1013B0006BE00E94231190930101109255011330AC
:1013C00038F00E943E068F7119F4115010930001FD
:1013D0000E943E06C82FCF7709F058CF0E943E06E4
:1013E00066E00E9423119093000101C0C1E08C2FA0
:1013F000DF91CF911F910F91FF90EF90DF90CF90F1
:10140000BF90AF900895809112010E94FF0684E67C
:1014100090E00E94E60280E00E94FF0680910801B1
:1014200090E068EE73E00E941211845691090C94CA
:10143000E6020F931F93CF93DF93EC01809111018C
:101440009091100120913D01222321F080910F0104
:1014500090910E01282F30E0C217D3070CF444C03E
:10146000292F30E02C173D07F4F180913D018111C7
:1014700002C08C2F39C0E0910E0180910F01E81B52
:1014800060910D01F0E070E061507109CF010E94A0
:10149000431160938B0190910F016695262F30E0E8
:1014A00010E080910D011817F0F400910F014091A8
:1014B0000D01812F90E0BF010E941211642F70E096
:1014C000615071090E942F11902F960FAE01491B98
:1014D000510957FF03C0519541955109241735070C
:1014E00014F41F5FDECF892FDF91CF911F910F91F1
:1014F000089580933C010C94FF06CF93C82FCC2312
:1015000071F085E20E94FF0682E00E949F0280E067
:101510000E94FF0689E10E949F02C150F0CFCF9147
:101520000895883059F4109252011092510182E0CE
:101530000E947D0A88E10E94FF0608C0813C41F4B8
:1015400060E070E086EE9BE00E94CF0180E00895AD
:10155000823C29F460E070E085E192E0F5CF8130D3
:10156000E1F480915101909152010196853524E278
:10157000920728F49093520180935101E7CF109283
:101580005201109251018091430181500E94FF0647
:10159000809143018111DACFD3CF81E00895CF93B9
:1015A000C091430180E00E94FF0683E00E949F02F9
:1015B0008C2FCF910C94FF06CF93DF93CDB7DEB77E
:1015C0006A970FB6F894DEBF0FBECDBF9091480169
:1015D0002FEF290F2C3108F468C0382F32953F7057
:1015E0008F7020914401211103C0333008F032E0A4
:1015F00027E0E7E1F1E0DE01549601900D922A9593
:10160000E1F7873080F0873091F4637051F4809176
:101610004A0190E0019666E070E00E9443118093D9
:101620004A0180914A01FE01E80FF11D19C0809125
:101630004401882351F0963210F0288D12C0913267
:1016400010F02E890EC02C890CC0862F869563E081
:101650000E942311E92FF0E0EE0FFF1FEC0FFD1F9A
:1016600024893330D1F483E1EEE1F1E0DE0111961B
:1016700001900D928A95E1F78091490190E00196E1
:1016800063E170E00E942F1180934901E1E0F0E0F6
:10169000EC0FFD1FE80FF91F3081313041F028F0C9
:1016A000323081F4822F880F03C080E001C0822F86
:1016B0006A960FB6F894DEBF0FBECDBFDF91CF9113
:1016C0000C94A1066A960FB6F894DEBF0FBECDBF8C
:1016D000DF91CF9108950E945306882309F440C0FA
:1016E0008091790180933D0180917A01809311016D
:1016F00080917B018093100180917C0180930F0188
:1017000080917D0180930E0180917E0180930D0177
:1017100080917F0180933E018091800180930C0134
:101720008091810180930A018091820180930B0155
:101730008091830180930901809184018093080145
:1017400080918501809316018091860180934701E5
:101750008091870180931401809188018093130107
:10176000089580913D01E9E7F1E0808380911101C6
:10177000818380911001828380910F018383809106
:101780000E01848380910D01858380913E018683C3
:1017900080910C018783AAE0B1E08C91808711963B
:1017A0008C918187809109018287809108018387CC
:1017B000809116018487809147018587809114016B
:1017C00086878091130187870C947606CF93DF93E9
:1017D000EB01883079F480E00E94FF0660E08091A0
:1017E00014010E94DC0ACD2B19F481E0809344019E
:1017F000C0E0BCC0813031F469317105C8F3809319
:10180000440196C0833009F493C0813B79F481E0B0
:1018100090E00E94190A0E94FF0680913D0181110B
:1018200002C0689728F361E070E02AC0813ED9F3D6
:10183000813889F4C0913E01CC2329F08C2F90E0AF
:101840000E94190A25C08091120190E00E94190A95
:101850000E94FF068BC0813C79F4C0913E01CC23ED
:1018600019F06C2F70E00CC06091120170E08AEBEF
:101870009CE00E94CF017AC0823B29F466E970E0C7
:101880008AEB9CE06FC0823CC9F3833921F480E08D
:101890000E94FF06ADCF833C29F460E070E086EE45
:1018A00091E060C0833B29F460E070E08EE49EE04C
:1018B00059C0843C41F482E00E947D0A60E070E0FF
:1018C00080E39FE04FC0853C41F481E00E947D0AA7
:1018D00060E070E08AEE9EE045C0873CB1F49091F4
:1018E0001401892F82958F708F5F83708295807F1E
:1018F0009F70892B8093140160E00E94DC0A0E9493
:10190000B10B81E00E947D0A73CF873BB9F4CB0114
:101910008F739927892B61F420911401822F8F7086
:101920008F5F6AE00E942311207F922B9093140115
:101930006C2F809114010E94DC0A5ACF873E19F463
:101940000E94B10B55CF8A3C39F460E070E084EF1F
:101950009FE00E948A014CCF8F3C39F460E070E038
:1019600082EF90E00E94CF0143CFC1E08C2FDF9146
:10197000CF9108950F931F93CF93DF93CDB7DEB729
:1019800028970FB6F894DEBF0FBECDBF9B014091E4
:1019900011011091100190913D01992339F040916E
:1019A0000F0110910E0100918B0101C001E0982FF1
:1019B0009D7F9830D1F4109240018A3019F4209123
:1019C000120130E0842F90E08217930738F4812FC2
:1019D00090E02817390710F420931201C9010E94E2
:1019E000190A0E94790A81E086C0813C39F460E0DE
:1019F00070E086EE9BE00E94CF0142C1823C39F448
:101A000080914301863908F09BC086E99BC0833CE6
:101A100099F490913D0181E0911180E080933D0126
:101A20000E94B10B0E94CF0A8091430190E00E9476
:101A3000190A8093120186C0843C39F460E070E09A
:101A40008DEE9FE00E948A011BC1813B09F04EC0D0
:101A500080913D01882341F0C90168E170E00E9456
:101A60002F11892B09F00CC12115310571F48091DA
:101A70004301811710F08FEF05C080914301481793
:101A8000D8F081E08093050117C0273381E0380743
:101A900098F080914301811770F72D36324060F045
:101AA00080914301481740F00E94CF0A60E070E047
:101AB00080E39FE00E94CF012091430160910501E6
:101AC000772767FD7095802F90E00E941211820F9A
:101AD000911D0E94190A8093120190914301891768
:101AE00079F1813459F181132BC028C0813E31F442
:101AF00080910501819580930501C2C0823B29F543
:101B000081E08093050180913D01882341F0C90166
:101B100068E170E00E942F11892B09F0B1C080911B
:101B2000430190E0801B91090E94190A80931201E1
:101B300090914301891721F0813411F40E94CF0A5A
:101B4000809112010E94790A9BC0853C29F4809102
:101B5000430180933E0107C0853B51F4232B09F0DC
:101B600091C010923E010E94B10B0E94CF0A8AC020
:101B7000813009F053C02E33310511F480930501F3
:101B800020FF0CC080914301893608F479C0909100
:101B9000430180918E01981708F472C088E0E1E358
:101BA000F1E0DE01119601900D928A95E1F7909196
:101BB0008E0180914301891738F421FD61C0809125
:101BC0008E019091430104C08091430190918E0158
:101BD000891B209158012F5F20935801882309F415
:101BE0004FC090914301993638F0409143013091B4
:101BF0008E0191E0341708F090E09F5F8695E9F739
:101C0000E1E0F0E0EC0FFD1FE90FF11D808182178C
:101C1000B8F50E94BA051092580132C08530B9F467
:101C200080914301823460F18091430190E0821BF6
:101C3000930B8134910534F08739910528F086E9BA
:101C400090E002C081E490E080938E0119C086305C
:101C5000C9F49091430180913C01981788F49091C8
:101C60004301290F311D90E08217930734F021348E
:101C7000310524F421E430E001C09C0120938E0161
:101C800080E001C081E028960FB6F894DEBF0FBE59
:101C9000CDBFDF91CF911F910F9108950F931F93A7
:101CA000CF93DF93D82F8B01C0910C0181E08093FB
:101CB0004001C33019F48D2F0E94EC08D83021F474
:101CC00081E0809304017EC0D13C39F460E070E093
:101CD00086EE9BE00E94CF0175C0D23C51F48C2F60
:101CE00090E0019665E070E00E94431180930C0142
:101CF0005AC0D13B51F5C23090F400FD63C0EC2FC7
:101D0000F0E0E65FFE4F808190910401891B8830EE
:101D100020F08F3FA1F58EEF32C088E030C0C43094
:101D200009F050C09091090180910401890F8093BE
:101D3000090180910901823010F482E02BC080916A
:101D40000901893748F188E725C0D13E31F48091F7
:101D5000040181958093040126C0D23B11F581E0F6
:101D600080930401C23068F400FD2CC0EC2FF0E039
:101D7000E65FFE4F80818F3F29F180818F5F8083F6
:101D800021C0C430F9F480910901833028F080919A
:101D90000901815080930901809109010E94FF0689
:101DA00011C0D23E19F40E94B10B0CC0D13061F4C5
:101DB0000E33110511F4D093040180914201080FF4
:101DC0000093420180E001C081E0DF91CF911F913B
:101DD0000F9108950F931F93CF93DF93D82F8B010B
:101DE000883039F480914001813019F488E00E94F4
:101DF0004E0E8D2F8079803961F481E080933F0110
:101E0000C0914001C1110CC0809112010E94FF06D7
:101E100021C0803839F410923F0180E00E94FF0613
:101E2000C0E018C0D130A9F4C0913F01CC2359F0D3
:101E3000809140018130A1F7B801DF91CF911F91CE
:101E40000F910C944E0E033A134050F3D09344017B
:101E500001C0C1E08C2FDF91CF911F910F910895A8
:101E6000EF92FF921F93CF93DF9300D0CDB7DEB7F1
:101E7000182F7B01833BB1F480E00E94FF06C7016D
:101E80008F739927892B09F05CC020911301822F51
:101E90008F708F5F6AE00E942311207F922B9093B6
:101EA00013014FC080798039D9F480911101898361
:101EB00080910F018A83812F8F70823029F4909155
:101EC0003D0181E0892702C080913D01E1E0F0E021
:101ED000EC0FFD1FE80FF11D80810E94FF060EC070
:101EE000803819F480E00E94FF06183039F460E071
:101EF000809113010E94DC0A81E03AC0113039F46C
:101F000089E1E816F10498F1109344011AC01330E6
:101F1000C1F0133CE1F490911301892F82958F70E9
:101F20008F5F83708295807F9F70892B80931301D0
:101F300060E00E94DC0A0E94B10B81E00E947D0AF1
:101F400016C06E2D809113010E94DC0A10C0133E52
:101F500019F40E94B10B0BC081E0143C49F40E94BB
:101F60007D0A60E070E086EE9BE00E94CF0180E099
:101F70000F900F90DF91CF911F91FF90EF900895F8
:101F8000883031F41092500180E00E94FF0623C097
:101F9000813099F460915001641740F470E06F5FF4
:101FA0007F4F86E897E00E948A0115C0F9010995E4
:101FB0000E94B10B0E94A4010EC08A3061F480918E
:101FC00050019091C101E82FF0E0EB52FE4F908359
:101FD0008F5F8093500180E0089540913D014E5FF6
:101FE0002AE131E00C94C00F24EF30E042E00C9481
:101FF000C00F24E131E041E00C94C00FCF93C0E06A
:102000008C2F0E94FF0685E00E949F028C2F8695F0
:102010000E94FF0685E00E949F020E948D04882393
:10202000B1F0CF5FC03461F785E18093D5011092A4
:10203000D6010E94F4000E94B10BC6E98C2F0E94C9
:10204000FF0681E00E949F02C150C1F70AC0CC2365
:1020500041F08C2F0E94FF0683E00E949F02C15036
:10206000F6CFCF9108958091890190918A012EE059
:102070008E34920729F469E170E08AEB9CE016C087
:102080008A5B9C4079F480914301823058F09091B2
:1020900043012091430126952695892F8695820F2D
:1020A0000C94790A60E070E086EE9BE00C94CF011E
:1020B000843021F40E94331080E0089581E0089577
:1020C00082E10E94FF0683E00E949F0280E00E945E
:1020D000FF060E948D0481110E94FE0F0E946B0B6F
:1020E00061E070E086EE9BE00C948A011F93CF9331
:1020F000DF938091890190918A0120E0823F9207CD
:10210000C9F4C0E7D0E01C2F185FFE018491805312
:102110000E942E078CE291E00E94E60221961C1399
:10212000F4CF60E070E086EE9BE0DF91CF911F91ED
:102130000C94CF012EE08E34920761F0EEE08A3EDF
:102140009E07F1F4809140018130E1F580913F01DB
:102150008823C1F180910C01823069F038F084301D
:10216000B1F5DF91CF911F910C94CC08DF91CF9105
:102170001F910C942B08DF91CF911F910C944E0866
:10218000F1E0863E9F0729F4DF91CF911F910C94D7
:10219000820722E08531920729F4DF91CF911F91C8
:1021A0000C94030A895F914069F480918C019091AD
:1021B0008D010E944F0788EE93E0DF91CF911F9130
:1021C0000C94E602DF91CF911F910C94AC05DF9146
:1021D000CF911F910895F8940E943C010E94BF0482
:1021E0000E947B040E943F03789481E00E949F023A
:1021F0000E94310260E070E088E590E10E948A016F
:102200000E9460100E94D60280914401882329F028
:1022100080E00E94FF060E9481050E9476101092C5
:102220004101F0CF0024552704C0080E591F880F24
:10223000991F009729F076956795B8F37105B9F75E
:10224000802D952F0895991B79E004C0991F96174A
:1022500008F0961B881F7A95C9F780950895AA1BE8
:10226000BB1B51E107C0AA1FBB1FA617B70710F081
:10227000A61BB70B881F991F5A95A9F780959095B3
:10228000BC01CD01089597FB072E16F4009407D0EA
:1022900077FD09D00E942F1107FC05D03EF49095E0
:1022A00081959F4F0895709561957F4F0895E199AD
:1022B000FECF1FBA8EBBE09A99278DB30895262FC3
:1022C000E199FECF1FBA8EBBE09A81500DB2021683
:1022D00039F01CBA2DBB0FB6F894E29AE19A0FBE02
:0622E0000895F894FFCF01
:1022E600060B180101010004024128430307780A7E
:1022F6007801413717012D0105041410111502014B
:1023060000000000000000010000000000000000C6
:0C23160001F880422211090402050000B9
:00000001FF
