:10000000A9C0C3C091C4C1C0C0C0BFC0BEC0BDC034
:100010000AC3BBC0BAC0B9C09AC4B7C0B6C03230F8
:1000200031393131303100000000000000000000A3
:1000300000000000000000000000000000000000C0
:1000400000000000000000000000000000000000B0
:1000500000000000000000000000000000000000A0
:100060000000000000000000000000000000000090
:100070000000000000000000000000010203040571
:10008000060708090A0B0C0D0F1011131416171987
:100090001B1C1E1F21232527292B2D2F32343739D6
:1000A0003C3F4144474A4D5053575A5D6165696C26
:1000B0007074797D81868B8F94999FA4A901010228
:1000C000020303040405050606070808090A0A0BCB
:1000D0000C0D0E0F10111213151617191A1B1D1FD8
:1000E00020222426282A2C2E313336383B3E414408
:1000F000474A4E5155595D61656A6E73787D8288B5
:100100008D9399A0A6ADB4BBC3CAD2DBE3ECF5FFD7
:10011000FFFFFFFFFFFFFFFFFFFFFFFFFFFFFFFFEF
:10012000FFFFFFFFFFFFFFFFFFFFFFFFFFFFFFFFDF
:10013000FFFFFFFFFFFFFFFFFFFFFFFFFFFFFFFFCF
:10014000FFFFFFFFFFFFFFFFFFFFFFFFFFFFFFFFBF
:10015000FFFFFF0011241FBECFE5D2E0DEBFCDBF01
:1001600010E0A0E6B0E0E2E1FEE102C005900D92F1
:10017000A038B107D9F711E0A0E8B0E001C01D92A6
:10018000A931B107E1F7CADD42CE3ACF81E0089547
:1001900080911601882369F02091CD003091CE0026
:1001A00090918B00291B821B80938B0081E08093B0
:1001B000740080911701882319F0835E8093750085
:1001C00080917500873418F086E480937500089557
:1001D000809116018111809368000895209181001B
:1001E0009091160180911701222381F09111909333
:1001F0007000882321F097E9981B90936F008091FD
:100200001801882361F080936E00089591119093F6
:100210007200882321F097E9981B9093710008954C
:10022000BA9AC29ABC9AC49A08958CEF93E0019747
:10023000F1F70895EF92FF920F931F93CF93DF93FF
:100240001F92CDB7DEB78C017B01842F4091CA008D
:100250005091CB00452B39F0E091CA00F091CB00D2
:100260002983099529811093CB000093CA00012BA3
:1002700071F0E091CA00F091CB00B701822F0F908E
:10028000DF91CF911F910F91FF90EF9009940F9004
:10029000DF91CF911F910F91FF90EF900895DC01B6
:1002A00090918A00983090F4E92FF0E0EE0FFF1F54
:1002B000EA5FFE4FB183A0839F5F90938A0028E09E
:1002C00049E0CD01B7DF80918A0008958FEF08954E
:1002D000CF93DF93E0918A00EE2359F0E150E09351
:1002E0008A00F0E0EE0FFF1FEA5FFE4FC081D18170
:1002F00002C0C0E0D0E0E0918A00EE2341F0F0E0DF
:10030000EE0FFF1FEC5FFE4F8081918102C080E005
:1003100090E02AE049E060E070E08CDFCE01DF9100
:10032000CF9108950F931F93CF93DF9300D0CDB754
:10033000DEB78C0169837A83CBDF69817A81C8015A
:100340000F900F90DF91CF911F910F91A8CF813C1B
:1003500029F460E070E087E29AE006C0823C39F45C
:1003600060E070E089E699E0DDDF80E0089581E0FB
:100370000895813C29F460E070E087E29AE006C0CD
:10038000823C31F460E070E087EA91E0CBDF07C0A7
:10039000843C39F460E070E089EB9DE080DF80E030
:1003A000089581E00895813C29F460E070E087E2DF
:1003B0009AE006C0823C31F460E070E089EB91E0A5
:1003C000B1DF07C0843C39F460E070E08DEB9DE064
:1003D00066DF80E0089581E008951092030181E0D6
:1003E0008093850008951092BA001092B900909100
:1003F0000301803159F4892F80699F709F3021F467
:100400008093030181E008958F5FFACF882329F05C
:1004100090689093030180E00895892F8F7E95FD69
:1004200002C08068EDCF806CEBCF482FDB0120E06D
:1004300030E0C90163E070E08CDCFC01EE52FF4F5C
:100440008081882331F02F5F3F4F2031310589F7BC
:1004500003C04083B283A183089520E030E0F22FEF
:10046000E32F2F5F3F4FC90163E070E072DCDC01D6
:10047000AE52BF4F4C918F2F9E2F63E070E069DC2E
:10048000FC01EE52FF4F408311968D919C91129783
:10049000928381832F30310511F71092FF00109263
:1004A000010110920001089581E080938500089574
:1004B00090E822E048EA57E030E0815070F00FB653
:1004C000F89496BD26BD0FBEFA013197F1F70FB62D
:1004D000F89496BD36BD0FBEF0CF08950F931F93CD
:1004E000CF93DF93D82F8B01C0918A00C150C7FDF5
:1004F0000FC0EC2FEE0FFF0BEA5FFE4F0190F08173
:10050000E02DB8018D2F09958111F0CF80E001C059
:1005100081E0DF91CF911F910F9108958091D200DA
:10052000882349F06091D3007091D4008091D2006B
:10053000D5DF93DFF3CF08958F929F92AF92BF9252
:10054000CF92DF92EF92FF920F931F93CF93DF939F
:100550001F92CDB7DEB7E090CA00F090CB004C01FF
:1005600010E800E088EAC82E87E0D82E22E09AEE54
:10057000A92EBB24B3948114910451F1809187007A
:10058000863038F40FB6F89416BD26BD0FBEC501EF
:1005900006C00FB6F89416BD06BD0FBEC601019782
:1005A000F1F70FB6F89416BD06BD0FBE8091850019
:1005B000811110C04091CA005091CB0091E0891A7E
:1005C0009108E416F50639F42983A8DF2981D3CFF1
:1005D00081E001C080E00F90DF91CF911F910F91DA
:1005E000FF90EF90DF90CF90BF90AF909F908F9053
:1005F00008951BCF9093BA008093B900BC018091FD
:10060000030113CF8FE887B908958CE087B9089567
:1006100086B1886486B908958CE087B986EC86B97E
:100620000895379808951F920F920FB60F921124D4
:100630002F933F934F935F936F937F938F939F93EA
:10064000AF93BF93EF93FF938091D100882309F478
:1006500009C11092D10064B175B180918600860FF6
:100660008093860080918800882311F081E004C087
:100670008091B8008F5F83708093B8009091B8002C
:10068000913039F580E098E581DB695F7F4F7695A1
:10069000679560938C008091B700882321F081508A
:1006A0008093B700D7C080918C008D3178F4809111
:1006B000B600843020F48F5F8093B600CBC060E03A
:1006C00070E084E0B2DE84E18093B7001092B6005F
:1006D000C1C0933009F0BCC06351714080918B0060
:1006E000680F711D87FD7A9580917400882379F0D9
:1006F000109274007093CE006093CD00E6EAF0E0B3
:100700006193719320E0E63BF207D1F71FC020917F
:10071000CD003091CE00261737073CF42091CD0054
:100720003091CE002F5F3F4F0DC02091CD00309112
:10073000CE006217730754F42091CD003091CE00A3
:10074000215031093093CE002093CD006091CD002F
:100750007091CE002091A5002F5F2093A5002770F7
:1007600071F4E6EAF0E0228133812193319330E0A5
:10077000E43BF307C1F77093B5006093B400209198
:10078000A6003091A700AB01421B530B9A0137FF23
:1007900003C02F5F3F4F05C02115310511F02150D7
:1007A00031099150A1F784E0220F331F8A95E1F7B8
:1007B000CB01820F931F90930501809304016091F8
:1007C000750070E09B01245031098217930714F0E3
:1007D0001092A4008617970714F41092A30020919A
:1007E000A200222321F021502093A20035C06817D7
:1007F00079079CF42091A300283020F42F5F2093E8
:10080000A3002AC01092A3002CE02093A2009C0118
:10081000261B370BB90185E019C065507109861791
:100820009707D4F42091A400283020F42F5F209360
:10083000A40012C01092A4002CE02093A2002091EA
:100840008C002E3148F0681B790B86E0EEDD04C089
:10085000923010F48CE001C08FE887B98091880055
:100860008111DFDEFF91EF91BF91AF919F918F9149
:100870007F916F915F914F913F912F910F900FBE9C
:100880000F901F901895A89581B5886181BD80E46F
:1008900081BD0895A89581B5886181BD85E481BD3C
:1008A0000895A89584B7877F84BF81B5886181BD8D
:1008B00011BC08950F931F9361E04DE750E026B3FC
:1008C00023FB222720F9262780919B0090919C00F2
:1008D000A0919D00B0919E00880F991FAA1FBB1F79
:1008E000822B80939B0090939C00A0939D00B093DB
:1008F0009E00FA013197F1F78C019D010150110919
:10090000210931090E3F1F4F2F4F3F4FC0F28093F7
:10091000D0001F910F9108958BB780628BBF08950F
:100920008BB78F7D8BBF08951895CF93C82F8823E1
:1009300011F080E101C080E056DD882331F0C093E2
:10094000D00080E090E0CF9155CECF9108951F92D6
:100950000F920FB60F9211242F933F934F935F93F3
:100960006F937F938F939F93AF93BF93CF93DF93B7
:10097000EF93FF9381E08093890080918800882322
:10098000F9F0C091A000D091A100BE0183E04DDD3F
:10099000CE01882790782196C82BD92BD093A1001F
:1009A000C093A000BBDD8091A0009091A1008F7743
:1009B0009927892B09F053C08FEF80939F0004C0C3
:1009C0001092A1001092A000C091D00073DFC81354
:1009D000ACDFC091B900D091BA00CE010196CC270E
:1009E000D078C82BD92BD093BA00C093B90080918E
:1009F0000301807F803B19F460E070E001C0BE011C
:100A000081E013DD9091030194FF0DC095FF02C0BA
:100A1000CE0107C06897A0F090629093030180E038
:100A200090E0E8DD0DC0992359F095FD08C062976C
:100A300038F090649093030180E090E0DBDDCDDC42
:100A400080919F008F5F80939F00837041F480911D
:100A500088008111E1DDDCDD81E08093D100FF9130
:100A6000EF91DF91CF91BF91AF919F918F917F9146
:100A70006F915F914F913F912F910F900FBE0F900B
:100A80001F90189507DFCDDD15DF8111FDCFA5DCA7
:100A900043DF809188008823A1F01092890085B7F8
:100AA000877E806185BF85B7806285BF889585B761
:100AB0008F7D85BF809189008111EBCF10928800D6
:100AC000E8CF81E080937400A7DDDDCE85B7877E17
:100AD00085BF85B7806285BF889585B78F7D85BFC7
:100AE00008958093CF0008958091CF009091870062
:100AF000891720F480918700815007C0909187006A
:100B0000981718F4809187008F5F6FEF680F262F7A
:100B100030E0A90143545F4FFA019491709187002E
:100B2000671728F469B5611102C09F3F59F069B594
:100B3000691718F499B59F5F05C069B5961718F441
:100B400099B5915099BD295D3F4FF901949168B5D0
:100B5000691718F498B59F5F05C068B5961718F423
:100B600098B5915098BD99B5FA014491941307C076
:100B700098B5F9012491921302C0809387000895DB
:100B8000E0916600F09167003196FB70F460F0939D
:100B90006700E0936600809186008B5A8093860000
:100BA000E491809186008E0F08950F931F93CF9349
:100BB000DF93F89480E091E010D9853A89F40BEB4B
:100BC00010E0C1E0D1E0CE0108D9F80181938F0196
:100BD0002196C031F1E0DF07B1F7789481E002C0DF
:100BE000789480E0DF91CF911F910F9108950F933A
:100BF0001F93CF93DF93F8940BEB10E0C1E0D1E0AB
:100C0000F80161918F01CE01F0D82196C031F1E059
:100C1000DF07B1F765EA80E091E0E7D87894DF91EB
:100C2000CF911F910F91089580918700863010F425
:100C300092E005C08D3010F491E001C090E080E8B2
:100C40000FB6F89486BD96BD0FBE0895882339F07F
:100C5000813051F4BA98C29ABC98C49A0895BA984F
:100C6000C298BC98C4980895DBCACF93C82F8093CC
:100C700087008093CF0080918800811101C0E6DF5A
:100C8000C11103C019BC18BC0DC0C1508C2F90E01D
:100C9000FC01E354FF4FE491E9BDFC01E95DFF4F26
:100CA000E491E8BDCF91C0CF0F931F93CF93C82F8E
:100CB000882311F008EC02C008E0C1E010E089E1EF
:100CC000D4DFC80139DC80E0D0DF8CE291E034DC95
:100CD000C150A9F784EF91E0CF911F910F912CCCD7
:100CE000CF93DF93C82F843638F08CE98C0F84368D
:100CF00028F0C85C82E004C080E002C0C82F81E018
:100D0000D0E0CA3018F0DF5FCA50FBCF882381F0F3
:100D1000CBDF882381F08D2FC7DF882361F08C2FF4
:100D2000C3DF882341F088EE93E0DF91CF9104CCBC
:100D3000D111F1CFF4CF80E0DF91CF910895809170
:100D40008C00CECFCF93DF93883059F4109291006E
:100D50006093900010928F0010928E0010928D0080
:100D600081C0813009F068C090918F00892F8D7FFC
:100D700081F420918D0030918E002F31310538F4AF
:100D80002F5F3F4F30938E0020938D006EC09F5F8A
:100D900025C0913051F5809190008823F1F0C091E9
:100DA0008D00D0918E009E012F7133272A3031059E
:100DB00011F485E204C02431310519F480E055DFD7
:100DC00006C02F31310519F481508093900021968F
:100DD000D0938E00C0938D0045C092E090938F0019
:100DE00010928E0010928D0040C09330E9F4C091B3
:100DF0008D00D0918E002196D0938E00C0938D00EF
:100E0000CE0183709927009711F489E103C00297FE
:100E100011F482E12ADFCB3BD10520F180E025DF10
:100E200084E080938F001EC09430E1F480919100A3
:100E3000809302014DDA16C08138B1F4CEDA809188
:100E40008F00833079F4809191008F5F80939100BF
:100E500010928E0010928D008BE407DF84E028DB77
:100E600080E003DF80E001C081E0DF91CF91089551
:100E7000982F880F97FD80950895B89A81E083BFD9
:100E800081EA8ABDB99A88E088BB85BB0895CF9373
:100E9000DF93D82FE82FF0E0E659FF4FC08186E9B5
:100EA000E4DED11107C0CA3210F4BFD907C081E017
:100EB00090E003C08C2F869590E03EDB80E0D5DE8D
:100EC0008C2F90E0DF91CF9137CBEF92FF920F9371
:100ED0001F93CF93DF9354DE8F73E82EF12C50DEF7
:100EE00067E048D701E010E0E80102C0CC0FDD1F49
:100EF0009A95E2F745DE65E03DD702C0000F111F6D
:100F00009A95E2F7C00FD11F3BDE90E0BE0152D7A9
:100F1000C80FD91FC739D10514F0C6E9D0E08C2F0E
:100F2000A4DEC70109DB9E0143E0359527954A956C
:100F3000E1F72115310509F421E0022F10E0C70186
:100F4000FBDAC01BD10BD7FF02C0C0E0D0E08C2F72
:100F50008CDE16DE837031F4C701EEDACE01959592
:100F6000879583DEC230D10554F70ADE6DE002D7E3
:100F7000C1E0D0E002C0CC0FDD1F9A95E2F700DEA1
:100F800090E0BE0103D7C80FD91F80E06EDECE010E
:100F9000DF91CF911F910F91FF90EF90CDCACF932A
:100FA000DF93C0916900CC0FC73908F0C6E9D4E0DF
:100FB0008C2F5BDE85E090E0BFDA8091690055DE22
:100FC00081E490E0B9DAD15099F780ED92E0DF91B9
:100FD000CF91B2CAAF92BF92CF92DF92EF92FF92BF
:100FE0000F931F93CF93DF93EB01883021F410927E
:100FF000990081E028C0823C19F41092990042C007
:10100000813BE1F480916200CD2B49F48E3610F0E3
:101010009FEF03C0823018F491E090936300C09179
:101020006300C80F21F481E080936200C5C0CF3611
:1010300018F4C093620026C08EE612C0813E31F4DF
:10104000809163008195809363001CC0823B59F4BA
:1010500081E08093630080916200823098F081503B
:10106000809362000FC0833C79F480919900843EA4
:1010700048F4855E8093990080918700805EF5DD5D
:1010800082E016DAC0E098C0813009F094C06E3377
:10109000710511F48093630020919900FE01FF70A7
:1010A000213071F46091620070E0675E7F4FCF0184
:1010B00034E0969587953A95E1F74BD6C92E01C055
:1010C000C12CEF3FFF4061F4222351F021502093C7
:1010D0009900211105C060E070E087E29AE022D912
:1010E000D09098008D2DC4DEA82EE09097008E2D14
:1010F000BFDEB82E00916100F09096008F2DB8DE13
:10110000382F10916000209162002C198A2D90E0F8
:1011100067E070E01ED6290F602F70E08B2D90E005
:1011200018D6290F612F70E0832F90E012D6822FFE
:10113000890F87FD80E099DDC0FD05C021DD81704C
:10114000D80ED092980080919500E80EE09297001A
:1011500017DD65E20FD6F90EF092960011DD8F7360
:1011600029F40EDD6DE006D690939500002331F052
:1011700007DD8F7319F401500093610001DD8111C7
:1011800007C0FEDC6BE0F6D59093610010929700EB
:10119000133030F0F5DC8F7119F4115010936000AA
:1011A000EFDCC82FCF7709F06DCFEADC66E0E2D53F
:1011B0009093600001C0C1E08C2FDF91CF911F910F
:1011C0000F91FF90EF90DF90CF90BF90AF90089578
:1011D000809173004ADD84E690E0AED980E045DD81
:1011E0008091680090E068EE73E0B3D58456910971
:1011F000A3C90F931F93CF93DF93EC0180917200EB
:101200009091710020918100222321F08091700043
:1012100090916F00282F30E0C217D3070CF441C023
:10122000292F30E02C173D07DCF1809181008111DE
:1012300002C08C2F36C0E0916F0080917000E81BD7
:1012400060916E00F0E070E061507109CF01B2D59D
:101250006093CC00909170006695262F30E010E0EE
:1012600080916E001817E0F40091700040916E00BC
:10127000812F90E0BF016DD5642F70E0615071093E
:1012800085D5902F960FAE01491B510957FF03C01A
:101290005195419551092417350714F41F5FE0CF8C
:1012A000892FDF91CF911F910F9108958093800036
:1012B000DCCCCF93C82FCC2351F085E2D6DC82E082
:1012C000F7D880E0D2DC89E1F3D8C150F4CFCF91D8
:1012D0000895883049F4109294001092930082E0AF
:1012E000E8DF88E1C2DC07C0813C39F460E070E0EF
:1012F00087E29AE017D880E00895823C29F460E004
:1013000070E083ED91E0F6CF8130D9F480919300C5
:10131000909194000196853524E2920728F49093E9
:10132000940080939300E7CF109294001092930062
:1013300080918700815099DC809187008111DBCFFB
:10134000D5CF81E00895CF93C091870080E08DDCF8
:1013500083E0AED88C2FCF9188CC90918C009D31BA
:1013600010F480E073CC8770E1F75AC71EDC882345
:10137000E1F18091BB00809381008091BC0080935B
:1013800072008091BD00809371008091BE008093B7
:1013900070008091BF0080936F008091C0008093A7
:1013A0006E008091C100809382008091C200809382
:1013B0006C008091C30080936A008091C400809388
:1013C0006B008091C500809369008091C600809376
:1013D00068008091C700809375008091C800809359
:1013E0008B008091C90080936D00089580918100E9
:1013F000EBEBF0E08083809172008183809171003B
:10140000828380917000838380916F0084838091B8
:101410006E00858380918200868380916C00878333
:10142000AAE6B0E08C91808711968C91818780919B
:101430006900828780916800838780917500848726
:1014400080918B00858780916D008687D0CBCF936C
:10145000DF93EB01883069F480E007DC80916D0058
:101460008370F4DBCD2B19F481E080938800C0E019
:101470008FC0813051F469317105C8F380938800C1
:1014800080916D008370E2DBF2CF833041F4809174
:101490006D008370833059F7862F5FDFE8CF813B83
:1014A00069F481E090E0A5DEE0DB809181008111AC
:1014B00002C06897E0F261E070E026C0813ED9F397
:1014C000813871F4C0918200CC2321F08C2F90E000
:1014D00090DE22C08091730090E08BDEC6DB58C0A6
:1014E000813C71F4C0918200CC2319F06C2F70E024
:1014F0000BC06091730070E08CEC9AE013D748C089
:10150000823B29F466E970E08CEC9AE03EC0823CB4
:10151000C9F3833919F480E0A8DBA9CF833C29F40F
:1015200060E070E087EA91E030C0833B29F460E03E
:1015300070E085E39CE029C0843C39F482E0B9DEA8
:1015400060E070E08EE09DE020C0853C39F481E0F1
:10155000B0DE60E070E08CEC9CE017C0873C79F472
:1015600090916D0081E0890F8370813009F482E0F1
:101570009C7F982B90936D0069DB38DF78CF8F3C90
:1015800031F460E070E086EC90E0CCD670CFC1E042
:101590008C2FDF91CF9108951F93CF93DF93CDB719
:1015A000DEB728970FB6F894DEBF0FBECDBF9B0104
:1015B00040917200E091710090918100992339F07F
:1015C00040917000E0916F001091CC0001C011E0DB
:1015D000982F9D7F9830C1F4109284008A3019F4BE
:1015E0002091730030E0842F90E08217930738F445
:1015F0008E2F90E02817390710F420937300C9014B
:10160000F8DD54DE81E06FC0813C31F460E070E0D1
:1016100087E29AE087D61CC1823C49F4809187001A
:10162000863910F486E97AC08091730077C0833CD4
:1016300069F49091810081E0911180E080938100B4
:10164000D5DE81DE8091870090E065C0843C31F476
:1016500060E070E083EB9DE022D6FAC0813BF1F5BB
:1016600080918100882339F0C90168E170E08ED350
:10167000892B09F0EDC02115310571F480918700A7
:101680008E1710F08FEF05C0809187004817C8F0C3
:1016900081E08093650015C0273381E0380788F02A
:1016A000809187008E1770F72D36324050F0809170
:1016B0008700481730F047DE60E070E08EE09DE084
:1016C00031D62091870060916500772767FD70957E
:1016D000812F90E03ED3820F911D1DC0813E31F4D9
:1016E00080916500819580936500B2C0823BC1F412
:1016F00081E08093650080918100882339F0C901E1
:1017000068E170E043D3892B09F0A2C08091870083
:1017100090E0811B91096DDD80937300C7DD98C057
:10172000853C29F4809187008093820007C0853B27
:1017300041F4232B09F08EC01092820057DE03DEA5
:1017400089C0813009F052C02E33310511F48093E5
:10175000650020FF0CC080918700873808F478C0AE
:10176000909187008091CF00981708F471C088E0AD
:10177000E6E7F0E0DE01119601900D928A95E1F71F
:101780009091CF0080918700891738F421FD60C0C7
:101790008091CF009091870004C080918700909144
:1017A000CF00891B20919A002F5F20939A008823F5
:1017B00009F44EC090918700973838F04091870027
:1017C0003091CF0091E0341708F090E09F5F86954C
:1017D000E9F7E1E0F0E0EC0FFD1FE90FF11D80817A
:1017E0008217B0F581D910929A0032C08530B9F4D1
:1017F000809187008D3360F18091870090E0821B9B
:10180000930B8C33910534F08739910528F086E9E4
:1018100090E002C08CE390E08093CF0019C0863046
:10182000C9F49091870080918000981788F4909176
:101830008700290F311D90E08217930734F02C3375
:10184000310524F42CE330E001C09C012093CF004B
:1018500080E001C081E028960FB6F894DEBF0FBE8D
:10186000CDBFDF91CF911F9108950F931F93CF9319
:10187000DF93D82F8B01C0916C0081E080938400AE
:10188000C33011F48D2FA6DBD83021F481E0809392
:1018900064007AC0D13C31F460E070E087E29AE005
:1018A00041D572C0D23C49F48C2F90E0019665E09E
:1018B00070E080D280936C0059C0D13B51F5C230AA
:1018C00090F400FD61C0EC2FF0E0E659FF4F8081FD
:1018D00090916400891B883020F08F3FA1F58EEF36
:1018E00032C088E030C0C43009F04EC09091690029
:1018F00080916400890F8093690080916900823033
:1019000010F482E02BC080916900893748F188E7A4
:1019100025C0D13E31F480916400819580936400AC
:1019200025C0D23B09F581E080936400C23068F4A1
:1019300000FD2AC0EC2FF0E0E659FF4F80818F3F79
:1019400019F180818F5F80831FC0C430E9F48091DA
:101950006900833028F0809169008150809369008C
:101960008091690082D910C0D23E11F43FDD0CC0D5
:10197000D13061F40E33110511F4D09364008091DD
:101980008600080F0093860080E001C081E0DF91AF
:10199000CF911F910F9108950F931F93CF93DF93D2
:1019A000D82F8B01883031F480918400813011F47C
:1019B00088E05BDF8D2F8079803959F481E0809356
:1019C0008300C0918400C1110AC0809173004DD979
:1019D0001FC0803831F41092830080E046D9C0E007
:1019E00017C0D130A1F4C0918300CC2351F0809175
:1019F00084008130A1F7B801DF91CF911F910F9141
:101A000034CF033A134058F3D093880001C0C1E0AB
:101A10008C2FDF91CF911F910F910895EF92FF923C
:101A20001F93CF93DF9300D0CDB7DEB7182F7B0184
:101A30008079803901F580917200898380917000EE
:101A40008A83812F8F70823059F48091810091E0D8
:101A50009827E1E0F0E0EC0FFD1FE90FF11D08C051
:101A600080918100E1E0F0E0EC0FFD1FE80FF11D37
:101A70008081FBD81CC0803819F480E0F6D809C0FA
:101A8000183039F480916D0086958695DFD881E015
:101A900039C0113061F489E1E816F10488F010933F
:101AA000880080916D0086958695D0D809C0133046
:101AB00049F490916D009C709C3011F48E2D4DDC9A
:101AC00080E020C0133CA1F490916D00892F869591
:101AD00086958F5F8370813009F482E0282F220F72
:101AE000220F9370920F90936D00B0D87FDCE8CFF7
:101AF00081E0143C39F4DDDB60E070E087E29AE0DD
:101B000011D4DECF0F900F90DF91CF911F91FF90F6
:101B1000EF900895883029F41092920080E0A5D8C3
:101B200020C0813081F460919200641738F470E035
:101B30006F5F7F4F82EA96E0B2D313C0F901099537
:101B400055DCC6D30EC08A3061F48091920090912A
:101B50000201E82FF0E0EA5EFE4F90838F5F8093F2
:101B6000920080E00895409181004E5F2EEE30E0BB
:101B7000D1CF28EC30E042E0CDCF28EE30E041E09C
:101B8000C9CFCF93C0E08C2F70D885E091D48C2F33
:101B900086956BD885E08CD48DD6882391F0CF5F65
:101BA000C03489F785E18093160110921701F0D2B5
:101BB0001DDCC6E98C2F59D881E07AD4C150D1F709
:101BC00008C0CC2331F08C2F50D883E071D4C150A1
:101BD000F8CFCF9108958091CA009091CB002CE06E
:101BE0008533920729F469E170E08CEC9AE015C026
:101BF0008C5C9A4071F480918700823050F0909113
:101C000087002091870026952695892F8695820F3B
:101C10004DCB60E070E087E29AE084C3843019F431
:101C2000DADF80E0089581E0089582E11ED883E044
:101C30003FD480E01AD83ED68111A3DF97DB61E064
:101C400070E087E29AE02BC31F93CF93DF938091DC
:101C5000CA009091CB0020E0863C9207B1F4CEE11F
:101C6000D0E01C2F185FFE01849180531DD88CE2B8
:101C700091E062D421961C13F6CF60E070E087E219
:101C80009AE0DF91CF911F914DC32CE085339207ED
:101C900061F0ECE08C3C9E07D9F4809184008130A7
:101CA000A9F580918300882389F180916C008230AE
:101CB00059F030F0843071F5DF91CF911F916FC9E9
:101CC000DF91CF911F91E3C8DF91CF911F91FDC8A4
:101CD000F1E0873A9F0721F4DF91CF911F912FC840
:101CE00021E0833D920721F4DF91CF911F9170CACB
:101CF000895B914059F48091CD009091CE00F0D74E
:101D000088EE93E0DF91CF911F9116C4DF91CF91C0
:101D10001F91DCC6DF91CF911F910895F894ADD843
:101D2000FBD5B1D579D4789481E0C2D356D360E0A5
:101D300070E08EE09EE0B3D278DFF0D3809188002F
:101D4000882319F080E091D79DD67EDF1092850020
:101D5000F4CF0024552704C0080E591F880F991F7F
:101D6000009729F076956795B8F37105B9F7802D3E
:101D7000952F0895991B79E004C0991F961708F0D4
:101D8000961B881F7A95C9F780950895AA1BBB1BDF
:101D900051E107C0AA1FBB1FA617B70710F0A61B6B
:101DA000B70B881F991F5A95A9F780959095BC018C
:101DB000CD01089597FB072E16F4009406D077FD09
:101DC00008D0E4DF07FC05D03EF4909581959F4F45
:101DD0000895709561957F4F0895E199FECF9FBB5F
:101DE0008EBBE09A99278DB30895262FE199FECFF7
:101DF0009FBB8EBBE09A01970DB2021639F01CBA58
:101E00002DBB0FB6F894E29AE19A0FBE0895F894AC
:021E1000FFCF02
:101E1200060B18010101000402532843030E077840
:101E22000A780153012DF8804222110904020500AB
:00000001FF
