:10000000A9C0C3C08BC4C1C0C0C0BFC0BEC0BDC03A
:1000100006C3BBC0BAC0B9C094C4B7C0B6C0323002
:1000200031393131303100000000000000000000A3
:1000300000000000000000000000000000000000C0
:1000400000000000000000000000000000000000B0
:1000500000000000000000000000000000000000A0
:100060000000000000000000000000000102020388
:1000700003040405060708090A0B0C0D0E101113E2
:10008000141617191A1C1E1F21232527292B2D2F63
:10009000313436393B3E414346494C5053565A5D04
:1000A0006165696D71757A7E83878C91979CA1A734
:1000B000ADB3B9BFC5CCD3DAE1E8EFF7FF01010278
:1000C0000203030404050506070708090A0B0C0DC3
:1000D0000E0F1112131516181A1C1E202224262981
:1000E0002C2E3134373B3E42464A4E53575C6166B4
:1000F0006C72787E858B939AA2AAB2BBC4CED7E2EB
:10010000ECF8FFEBFFF0FFF5FFFFFFFFFFFFFFFF46
:10011000FFFFFFFFFFFFFFFFFFFFFFFFFFFFFFFFEF
:10012000FFFFFFFFFFFFFFFFFFFFFFFFFFFFFFFFDF
:10013000FFFFFFFFFFFFFFFFFFFFFFFFFFFFFFFFCF
:10014000FFFFFFFFFFFFFFFFFFFFFFFFFFFFFFFFBF
:10015000FFFF000011241FBECFE5D2E0DEBFCDBF00
:1001600010E0A0E6B0E0E8E7FEE102C005900D92E5
:10017000A039B107D9F711E0A0E9B0E001C01D92A4
:10018000A932B107E1F7FDDD75CE3ACF81E00895E0
:1001900080912601882369F02091DD003091DE00F6
:1001A00090919B00291B821B80939B0081E0809390
:1001B000740080912701882319F0835E8093750075
:1001C00080917500873418F086E480937500089557
:1001D00080912601811180936800089520919100FB
:1001E0009091260180912701222381F09111909313
:1001F0007000882321F097E9981B90936F008091FD
:100200002801882361F080936E00089591119093E6
:100210007200882321F097E9981B9093710008954C
:100220008CEF93E00197F1F70895EF92FF920F930F
:100230001F93CF93DF931F92CDB7DEB78C017B0165
:10024000842F4091DA005091DB00452B39F0E0918A
:10025000DA00F091DB002983099529811093DB00F6
:100260000093DA00012B71F0E091DA00F091DB00ED
:10027000B701822F0F90DF91CF911F910F91FF90C7
:10028000EF9009940F90DF91CF911F910F91FF9004
:10029000EF900895DC0190919A00983090F4E92F46
:1002A000F0E0EE0FFF1FEA5EFE4FB183A0839F5F79
:1002B00090939A0028E049E0CD01B7DF80919A0041
:1002C00008958FEF0895CF93DF93E0919A00EE2386
:1002D00059F0E150E0939A00F0E0EE0FFF1FEA5E64
:1002E000FE4FC081D18102C0C0E0D0E0E0919A0011
:1002F000EE2341F0F0E0EE0FFF1FEC5EFE4F808139
:10030000918102C080E090E02AE049E060E070E086
:100310008CDFCE01DF91CF9108950F931F93CF9380
:10032000DF9300D0CDB7DEB78C0169837A83CBDF52
:1003300069817A81C8010F900F90DF91CF911F9151
:100340000F91A8CF813C29F460E070E08FE39AE040
:1003500006C0823C39F460E070E080E699E0DDDFC1
:1003600080E0089581E00895813C29F460E070E028
:100370008FE39AE006C0823C31F460E070E082EAEC
:1003800091E0CBDF07C0843C39F460E070E08CEE94
:100390009DE080DF80E0089581E00895813C29F4AC
:1003A00060E070E08FE39AE006C0823C31F460E0E8
:1003B00070E084EB91E0B1DF07C0843C39F460E089
:1003C00070E080EF9DE066DF80E0089581E00895B1
:1003D0001092130181E08093950008951092CA0055
:1003E0001092C90090911301803159F4892F8069CE
:1003F0009F709F3021F48093130181E008958F5FF7
:10040000FACF882329F090689093130180E0089533
:10041000892F8F7E95FD02C08068EDCF806CEBCF79
:10042000482FDB0120E030E0C90163E070E0C4DC6C
:10043000FC01EE51FF4F8081882331F02F5F3F4F49
:100440002031310589F703C04083B283A183089529
:1004500020E030E0F22FE32F2F5F3F4FC90163E030
:1004600070E0AADCDC01AE51BF4F4C918F2F9E2F64
:1004700063E070E0A1DCFC01EE51FF4F4083119678
:100480008D919C911297928381832F30310511F7C2
:1004900010920F011092110110921001089581E045
:1004A00080939500089590E822E048EA57E030E014
:1004B000815070F00FB6F89496BD26BD0FBEFA01BC
:1004C0003197F1F70FB6F89496BD36BD0FBEF0CF59
:1004D00008950F931F93CF93DF93D82F8B01C09173
:1004E0009A00C150C7FD0FC0EC2FEE0FFF0BEA5E64
:1004F000FE4F0190F081E02DB8018D2F09958111FB
:10050000F0CF80E001C081E0DF91CF911F910F918A
:1005100008958091E200882349F06091E300709192
:10052000E4008091E200D5DF93DFF3CF08958F924E
:100530009F92AF92BF92CF92DF92EF92FF920F9372
:100540001F93CF93DF931F92CDB7DEB7E090DA0011
:10055000F090DB004C0110E800E088EAC82E87E04C
:10056000D82E22E09AEEA92EBB24B39481149104D4
:1005700051F180919700863038F40FB6F89416BD8B
:1005800026BD0FBEC50106C00FB6F89416BD06BD48
:100590000FBEC6010197F1F70FB6F89416BD06BD60
:1005A0000FBE80919500811110C04091DA005091EA
:1005B000DB0091E0891A9108E416F50639F42983E5
:1005C000A8DF2981D3CF81E001C080E00F90DF91C7
:1005D000CF911F910F91FF90EF90DF90CF90BF9040
:1005E000AF909F908F9008951BCF9093CA008093F7
:1005F000C900BC018091130113CF8FE887B908951A
:1006000081E887B9089586B1886486B9089581E83C
:1006100087B9A29A86EC86B90895379808951F92F3
:100620000F920FB60F9211242F933F934F935F9326
:100630006F937F938F939F93AF93BF93EF93FF93AA
:100640008091E100882309F407C11092E10084B190
:1006500095B120919600280F209396002091980044
:10066000222311F021E004C02091C8002F5F2370E5
:100670002093C8004091C800413041F525E0880F23
:10068000991F2A95E1F768EA72E0B3DB60939C005A
:100690008091C700882321F081508093C700D4C087
:1006A00080919C008D3178F48091C600843020F4D4
:1006B0008F5F8093C600C8C060E070E084E0B0DE69
:1006C00084E18093C7001092C600BEC0433009F099
:1006D000B9C08351914020919B00820F911D27FD4D
:1006E0009A9520917400222379F0109274009093CF
:1006F000DE008093DD00E6EBF0E08193919320E053
:10070000E63CF207D1F71DC02091DD003091DE00FC
:100710002817390734F48091DD009091DE000196AE
:100720000CC02091DD003091DE00821793074CF45D
:100730008091DD009091DE0001979093DE00809320
:10074000DD006091DD007091DE009091B5009F5F4B
:100750009093B500977071F4E6EBF0E0828193819D
:100760008193919330E0E43CF307C1F77093C500A7
:100770006093C4008091B6009091B7009B01281B44
:10078000390B37FF03C02F5F3F4F05C021153105DF
:1007900011F0215031094150A1F784E0220F331F9D
:1007A0008A95E1F7CB01820F931F909315018093F7
:1007B00014016091750070E09B012450310982178B
:1007C000930714F01092B4008617970714F4109250
:1007D000B3002091B200222321F021502093B200D7
:1007E00035C0681779079CF42091B300283020F4B5
:1007F0002F5F2093B3002AC01092B3002CE0209307
:10080000B2009C01261B370BB90185E019C0655069
:10081000710986179707D4F42091B400283020F48A
:100820002F5F2093B40012C01092B4002CE02093EC
:10083000B20020919C002E3148F0681B790B86E0B5
:10084000EFDD04C0423010F481E801C08FE887B9C1
:10085000809198008111E1DEFF91EF91BF91AF91FE
:100860009F918F917F916F915F914F913F912F91C8
:100870000F900FBE0F901F901895A89581B58861B5
:1008800081BD80E481BD0895A89581B5886181BD51
:1008900083E481BD0895A89584B7877F84BF81B51F
:1008A000886181BD11BC08950F931F9361E04DE7EE
:1008B00050E026B323FB222720F926278091AB00A6
:1008C0009091AC00A091AD00B091AE00880F991F3F
:1008D000AA1FBB1F822B8093AB009093AC00A09308
:1008E000AD00B093AE00FA013197F1F78C019D0194
:1008F00001501109210931090E3F1F4F2F4F3F4F62
:10090000C0F28093E0001F910F9108958BB7806231
:100910008BBF08958BB78F7D8BBF08951895CF93AC
:10092000C82F882311F080E101C080E057DD8823C3
:1009300031F0C093E00080E090E0CF9156CECF91AF
:1009400008951F920F920FB60F9211242F933F9389
:100950004F935F936F937F938F939F93AF93BF93C7
:10096000CF93DF93EF93FF9381E080939900809181
:1009700098008823F9F0C091B000D091B100BE0179
:1009800083E04EDDCE01882790782196C82BD92BA5
:10099000D093B100C093B000BCDD8091B0009091C5
:1009A000B1008F779927892B09F053C08FEF80937F
:1009B000AF0004C01092B1001092B000C091E000EE
:1009C00073DFC813ACDFC091C900D091CA00CE015B
:1009D0000196CC27D078C82BD92BD093CA00C093CE
:1009E000C90080911301807F803B19F460E070E0C2
:1009F00001C0BE0181E014DD9091130194FF0DC090
:100A000095FF02C0CE0107C06897A0F09062909356
:100A1000130180E090E0E9DD0DC0992359F095FDC8
:100A200008C0629738F090649093130180E090E0E2
:100A3000DCDDCEDC8091AF008F5F8093AF008370F0
:100A400041F4809198008111E2DDDDDD81E0809349
:100A5000E100FF91EF91DF91CF91BF91AF919F9115
:100A60008F917F916F915F914F913F912F910F9057
:100A70000FBE0F901F90189507DFCFDD15DF811196
:100A8000FDCFA6DC43DF809198008823A1F010926F
:100A9000990085B7877E806185BF85B7806285BFF5
:100AA000889585B78F7D85BF809199008111EBCFA7
:100AB00010929800E8CF81E080937400A8DDDDCE2D
:100AC00085B7877E85BF85B7806285BF889585B7E6
:100AD0008F7D85BF08958093DF0008958091DF00AA
:100AE00090919700891720F480919700815007C05A
:100AF00090919700981718F4809197008F5F6FEF8F
:100B0000680F262F30E0A90143545F4FFA019491FA
:100B100070919700671728F469B5611102C09F3F73
:100B200059F069B5691718F499B59F5F05C069B5A3
:100B3000961718F499B5915099BD295D3F4FF90169
:100B4000949168B5691718F498B59F5F05C068B5AA
:100B5000961718F498B5915098BD99B5FA0144913B
:100B6000941307C098B5F9012491921302C08093A1
:100B700097000895E0916600F09167003196FB7050
:100B8000F460F0936700E0936600809196008B5AC2
:100B900080939600E491809196008E0F08950F93B4
:100BA0001F93CF93DF93F89480E091E049D9853A81
:100BB00089F40BEC10E0C1E0D1E0CE0141D9F8019D
:100BC00081938F012196C031F1E0DF07B1F778946E
:100BD00081E002C0789480E0DF91CF911F910F9166
:100BE00008950F931F93CF93DF93F8940BEC10E0CD
:100BF000C1E0D1E0F80161918F01CE0129D92196A0
:100C0000C031F1E0DF07B1F765EA80E091E020D97B
:100C10007894DF91CF911F910F9108958091970063
:100C2000863010F492E005C0873110F491E001C0E5
:100C300090E080E80FB6F89486BD96BD0FBE08958B
:100C4000882321F0813029F4BC9804C0BC98C49852
:100C50000895BC9AC49A0895CF93C82F80939700A3
:100C60008093DF0080919800811101C0E9DFC111FC
:100C700003C019BC18BC0DC0C1508C2F90E0FC0102
:100C8000E354FF4FE491E9BDFC01E95DFF4FE491BE
:100C9000E8BDCF91C3CF0F931F93CF93C82F882365
:100CA00011F008EC02C008E0C1E010E089E1D4DFF7
:100CB000C8013DDC80E0D0DF8CE291E038DCC1503F
:100CC000A9F784EF91E0CF911F910F9130CCCF9392
:100CD000DF93C82F843638F08CE98C0F843628F0E7
:100CE000C85C82E004C080E002C0C82F81E0D0E090
:100CF000CA3018F0DF5FCA50FBCF882381F0CBDF0A
:100D0000882381F08D2FC7DF882361F08C2FC3DF0C
:100D1000882341F088EE93E0DF91CF9108CCD11188
:100D2000F1CFF4CF80E0DF91CF91089580919C00C6
:100D3000CECFCF93DF93883059F41092A100609307
:100D4000A00010929F0010929E0010929D0081C002
:100D5000813009F068C090919F00892F8D7F81F4C8
:100D600020919D0030919E002F31310538F42F5F86
:100D70003F4F30939E0020939D006EC09F5F25C023
:100D8000913051F58091A0008823F1F0C0919D0031
:100D9000D0919E009E012F7133272A30310511F426
:100DA00085E204C02431310519F480E055DF06C026
:100DB0002F31310519F481508093A0002196D093F2
:100DC0009E00C0939D0045C092E090939F001092BA
:100DD0009E0010929D0040C09330E9F4C0919D00A8
:100DE000D0919E002196D0939E00C0939D00CE018D
:100DF00083709927009711F489E103C0029711F4D9
:100E000082E12ADFCB3BD10520F180E025DF84E0C1
:100E100080939F001EC09430E1F48091A1008093E4
:100E2000120151DA16C08138B1F4D2DA80919F00F4
:100E3000833079F48091A1008F5F8093A10010929C
:100E40009E0010929D008BE407DF84E02CDB80E0A5
:100E500003DF80E001C081E0DF91CF910895982FFA
:100E6000880F97FD80950895B89A81E083BF81EA45
:100E70008ABDB99A88E088BB85BB0895CF93DF937C
:100E8000D82FE82FF0E0E659FF4FC08186E9E4DE75
:100E9000D11107C0CA3210F4C3D907C081E090E075
:100EA00003C08C2F869590E042DB80E0D5DE8C2F4E
:100EB00090E0DF91CF913BCBEF92FF920F931F9386
:100EC000CF93DF9357DE8F73E82EF12C53DE67E06C
:100ED00084D701E010E0E80102C0CC0FDD1F9A9535
:100EE000E2F748DE65E079D702C0000F111F9A953E
:100EF000E2F7C00FD11F3EDE90E0BE018ED7C80FD3
:100F0000D91FC739D10514F0C6E9D0E08C2FA4DE73
:100F1000C7010DDB9E0143E0359527954A95E1F722
:100F20002115310509F421E0022F10E0C701FFDA95
:100F3000C01BD10BD7FF02C0C0E0D0E08C2F8CDEED
:100F400019DE837031F4C701F2DACE0195958795E9
:100F500083DEC230D10554F70DDE6DE03ED7C1E02F
:100F6000D0E002C0CC0FDD1F9A95E2F703DE90E0DF
:100F7000BE013FD7C80FD91F80E06EDECE01DF91E2
:100F8000CF911F910F91FF90EF90D1CACF93DF9334
:100F9000C0916900CC0FC73908F0C6E9D4E08C2FA6
:100FA0005BDE85E090E0C3DA8091690055DE81E484
:100FB00090E0BDDAD15099F780ED92E0DF91CF91CA
:100FC000B6CAAF92BF92CF92DF92EF92FF920F9389
:100FD0001F93CF93DF93EB01883021F41092A90087
:100FE00081E028C0823C19F41092A90042C0813BE4
:100FF000E1F480916200CD2B49F48E3610F09FEF22
:1010000003C0823018F491E090936300C0916300B4
:10101000C80F21F481E080936200C5C0CF3618F478
:10102000C093620026C08EE612C0813E31F48091EA
:1010300063008195809363001CC0823B59F481E07A
:101040008093630080916200823098F08150809399
:1010500062000FC0833C79F48091A900843E48F47B
:10106000855E8093A90080919700805EF5DD82E027
:101070001ADAC0E098C0813009F094C06E3371056F
:1010800011F4809363002091A900FE01FF702130CC
:1010900071F46091620070E0675E7F4FCF0134E0D1
:1010A000969587953A95E1F787D6C92E01C0C12C50
:1010B000EF3FFF4061F4222351F021502093A9001B
:1010C000211105C060E070E08FE39AE026D9D0904E
:1010D000A8008D2DC4DEA82EE090A7008E2DBFDEC7
:1010E000B82E00916100F090A6008F2DB8DE382F49
:1010F00010916000209162002C198A2D90E067E029
:1011000070E05AD6290F602F70E08B2D90E054D6F6
:10111000290F612F70E0832F90E04ED6822F890F28
:1011200087FD80E099DDC0FD05C024DD8170D80E0B
:10113000D092A8008091A500E80EE092A7001ADDE9
:1011400065E24BD6F90EF092A60014DD8F7329F4F8
:1011500011DD6DE042D69093A500002331F00ADD49
:101160008F7319F401500093610004DD811107C0F1
:1011700001DD6BE032D6909361001092A70013302E
:1011800030F0F8DC8F7119F4115010936000F2DC2C
:10119000C82FCF7709F06DCFEDDC66E01ED69093B7
:1011A000600001C0C1E08C2FDF91CF911F910F91A2
:1011B000FF90EF90DF90CF90BF90AF900895809117
:1011C00073004ADD84E690E0B2D980E045DD80918D
:1011D000680090E068EE73E0EFD584569109A7C9E6
:1011E0000F931F93CF93DF93EC0180917200909146
:1011F000710020919100222321F080917000909144
:101200006F00282F30E0C217D3070CF441C0292FFC
:1012100030E02C173D07DCF180919100811102C074
:101220008C2F36C0E0916F0080917000E81B6091B8
:101230006E00F0E070E061507109CF01EED560936F
:10124000DC00909170006695262F30E010E08091D0
:101250006E001817E0F40091700040916E00812F2D
:1012600090E0BF01A9D5642F70E061507109C1D52C
:10127000902F960FAE01491B510957FF03C051959E
:10128000419551092417350714F41F5FE0CF892FCA
:10129000DF91CF911F910F91089580939000DCCC46
:1012A000CF93C82FCC2351F085E2D6DC82E0FBD867
:1012B00080E0D2DC89E1F7D8C150F4CFCF91089516
:1012C000883049F41092A4001092A30082E0E8DF75
:1012D00088E1C2DC07C0813C39F460E070E08FE354
:1012E0009AE01BD880E00895823C29F460E070E029
:1012F0008EEC91E0F6CF8130D9F48091A3009091EB
:10130000A4000196853524E2920728F49093A40066
:101310008093A300E7CF1092A4001092A3008091C5
:101320009700815099DC809197008111DBCFD5CF58
:1013300081E00895CF93C091970080E08DDC83E039
:10134000B2D88C2FCF9188CCCF93DF93CDB7DEB7B7
:1013500060970FB6F894DEBF0FBECDBF90919C0092
:101360009D3110F480E011C090E1E6E7F0E0DE018D
:10137000119601900D929A95E1F78F70E1E0F0E0FF
:10138000EC0FFD1FE80FF11D808160960FB6F894F9
:10139000DEBF0FBECDBFDF91CF9152CC00DC8823E2
:1013A000E1F18091CB00809391008091CC008093FB
:1013B00072008091CD00809371008091CE00809367
:1013C00070008091CF0080936F008091D000809357
:1013D0006E008091D100809392008091D200809322
:1013E0006C008091D30080936A008091D400809338
:1013F0006B008091D500809369008091D600809326
:1014000068008091D700809375008091D800809308
:101410009B008091D90080936D0008958091910088
:10142000EBECF0E080838091720081838091710009
:10143000828380917000838380916F008483809188
:101440006E00858380919200868380916C008783F3
:10145000AAE6B0E08C91808711968C91818780916B
:1014600069008287809168008387809175008487F6
:1014700080919B00858780916D008687B2CBCF934A
:10148000DF93EB01883069F480E0E6DB80916D004A
:101490008370D6DBCD2B19F481E080939800C0E0F7
:1014A00094C0813051F469317105C8F3809398007C
:1014B00080916D008370C4DBF2CF833041F4809162
:1014C0006D008370833059F7862F3EDFE8CF813B74
:1014D00069F481E090E084DEBFDB809191008111AE
:1014E00002C06897E0F261E070E026C0813ED9F367
:1014F000813871F4C0919200CC2321F08C2F90E0C0
:101500006FDE22C08091730090E06ADEA5DB5DC0D3
:10151000813C71F4C0919200CC2319F06C2F70E0E3
:101520000BC06091730070E089EE9AE0F6D64DC072
:10153000823B29F466E970E089EE9AE043C0823C80
:10154000C9F3833919F480E087DBA9CF833C29F400
:1015500060E070E082EA91E035C0833B29F460E00E
:1015600070E08BE69CE02EC0843C39F482E098DE8B
:1015700060E070E084E49DE025C0853C39F481E0C2
:101580008FDE60E070E082E09DE01CC0873C61F48B
:1015900090916D0081E0890F83709C7F982B9093D0
:1015A0006D004EDB3BDF7BCF8A3C31F460E070E0C6
:1015B0008CEE9DE06FD673CF8F3C31F460E070E02D
:1015C00086EC90E0AAD66BCFC1E08C2FDF91CF9153
:1015D00008950F931F93CF93DF93CDB7DEB728976E
:1015E0000FB6F894DEBF0FBECDBF9B0140917200D5
:1015F0001091710090919100992339F04091700001
:1016000010916F000091DC0001C001E0982F9D7FD8
:101610009830C1F4109294008A3019F4209173002C
:1016200030E0842F90E08217930738F4812F90E008
:101630002817390710F420937300C901D1DD2DDE7E
:1016400081E07AC0813C31F460E070E08FE39AE0A1
:1016500064D633C1823C39F480919700863908F012
:1016600063C086E984C0833C69F49091910081E075
:10167000911180E080939100D1DE5CDE8091970033
:1016800090E072C0843C31F460E070E086EE9DE052
:1016900001D613C1813B09F04AC080919100882393
:1016A00039F0C90168E170E0A4D3892B09F005C1C4
:1016B0002115310571F480919700811710F08FEF9B
:1016C00005C0809197004817C8F081E080936500BD
:1016D00015C0273381E0380788F080919700811783
:1016E00070F72D36324050F080919700481730F057
:1016F00021DE60E070E084E49DE00FD62091970049
:1017000060916500772767FD7095802F90E054D336
:10171000820F911D65DD809373009091970089176A
:1017200019F0811301C006DE8091730020C0813E54
:1017300031F480916500819580936500BEC0823B45
:10174000C1F481E08093650080919100882339F095
:10175000C90168E170E04DD3892B09F0AEC08091DA
:10176000970090E0801B91093BDD8093730095DD2D
:10177000A4C0853C29F4809197008093920007C013
:10178000853B41F4232B09F09AC01092920046DE6B
:10179000D1DD95C0813009F054C02E33310511F4EC
:1017A0008093650020FF0CC0809197008D3708F46E
:1017B00084C0909197008091DF00981708F47DC055
:1017C000809197008D3740F0909197008091DF00D5
:1017D000891710F483D971C088E0E6E8F0E0DE01F3
:1017E000119601900D928A95E1F79091DF0080911A
:1017F0009700891738F421FD60C08091DF00909137
:10180000970004C0809197009091DF00891B909110
:10181000AA009F5F9093AA00882309F44EC020E09D
:101820002F5F8695E9F7E1E0F0E0EC0FFD1FE20F96
:10183000F11D8081891708F040C050D91092AA008C
:101840003CC0853009F580919700863931F48DE7E9
:101850008093DF008093900030C0809197008734A0
:1018600060F18091970090E0821B930B8634910584
:1018700034F08739910528F086E990E002C086E4CB
:1018800090E08093DF0019C08630C9F490919700F2
:1018900080919000981788F490919700290F311D3E
:1018A00090E08217930734F02634310524F426E4BF
:1018B00030E001C09C012093DF0080E001C081E0A6
:1018C00028960FB6F894DEBF0FBECDBFDF91CF9143
:1018D0001F910F9108950F931F93CF93DF93D82FEC
:1018E0008B01C0916C0081E080939400C33011F4AF
:1018F0008D2F67DBD83021F481E0809364007AC0BB
:10190000D13C31F460E070E08FE39AE006D572C01C
:10191000D23C49F48C2F90E0019665E070E07DD2D6
:1019200080936C0059C0D13B51F5C23090F400FD5A
:1019300061C0EC2FF0E0E659FF4F80819091640088
:10194000891B883020F08F3FA1F58EEF32C088E0F0
:1019500030C0C43009F04EC090916900809164009D
:10196000890F8093690080916900823010F482E0D1
:101970002BC080916900893748F188E725C0D13EA6
:1019800031F48091640081958093640025C0D23B3E
:1019900009F581E080936400C23068F400FD2AC03C
:1019A000EC2FF0E0E659FF4F80818F3F19F18081E5
:1019B0008F5F80831FC0C430E9F480916900833059
:1019C00028F08091690081508093690080916900BE
:1019D00043D910C0D23E11F421DD0CC0D13061F4E6
:1019E0000E33110511F4D093640080919600080F16
:1019F0000093960080E001C081E0DF91CF911F91BC
:101A00000F9108950F931F93CF93DF93D82F8B01DE
:101A1000883031F480919400813011F488E05BDFEC
:101A20008D2F8079803959F481E080939300C091A3
:101A30009400C1110AC0809173000ED91FC0803874
:101A400031F41092930080E007D9C0E017C0D13084
:101A5000A1F4C0919300CC2351F080919400813087
:101A6000A1F7B801DF91CF911F910F9134CF033AC5
:101A7000134058F3D093980001C0C1E08C2FDF9140
:101A8000CF911F910F910895EF92FF921F93CF93E3
:101A9000DF9300D0CDB7DEB7182F7B018079803976
:101AA00001F5809172008983809170008A83812F73
:101AB0008F70823059F48091910091E09827E1E095
:101AC000F0E0EC0FFD1FE90FF11D08C080919100BF
:101AD000E1E0F0E0EC0FFD1FE80FF11D8081BCD8C4
:101AE0001CC0803819F480E0B7D809C0183039F428
:101AF00080916D0086958695A3D881E036C011301F
:101B000061F489E1E816F10488F01093980080915F
:101B10006D008695869594D809C0133049F490914C
:101B20006D009C709C3011F48E2D0EDC80E01DC089
:101B3000133C89F490916D00892F869586958F5F6F
:101B40008370282F220F220F9370920F90936D00B5
:101B500077D864DCEBCF81E0143C39F4A1DB60E0A2
:101B600070E08FE39AE0D9D3E1CF0F900F90DF912F
:101B7000CF911F91FF90EF900895883029F4109233
:101B8000A20080E069D820C0813081F46091A20079
:101B9000641738F470E06F5F7F4F89E996E07AD37D
:101BA00013C0F90109953ADC8ED30EC08A3061F476
:101BB0008091A20090911201E82FF0E0EA5DFE4FC3
:101BC00090838F5F8093A20080E008954091910000
:101BD0004E5F2EEE30E0D1CF28EC30E042E0CDCFAA
:101BE00028EE30E041E0C9CFCF93C0E08C2F34D84D
:101BF00085E059D48C2F86952FD885E054D454D6BF
:101C0000882391F0CF5FC03489F785E18093260166
:101C100010922701BDD202DCC6E98C2F1DD881E0CD
:101C200042D4C150D1F708C0CC2331F08C2F14D846
:101C300083E039D4C150F8CFCF9108958091DA0074
:101C40009091DB002CE08B36920729F469E170E07B
:101C500089EE9AE015C0895E9A4071F480919700F0
:101C6000823050F09091970020919700269526950C
:101C7000892F8695820F11CB60E070E08FE39AE0A8
:101C80004CC3843019F4DADF80E0089581E00895D0
:101C900082E1E2D783E007D480E0DED705D6811168
:101CA000A3DF7CDB61E070E08FE39AE0F3C21F9377
:101CB000CF93DF938091DA009091DB0020E0863CA7
:101CC0009207B1F4CEE1D0E01C2F185FFE018491A1
:101CD0008053E1D78CE291E02AD421961C13F6CFF1
:101CE00060E070E08FE39AE0DF91CF911F9115C320
:101CF0002CE08B36920761F0EDE082309E07D9F43C
:101D0000809194008130A9F580919300882389F116
:101D100080916C00823059F030F0843071F5DF91A1
:101D2000CF911F9133C9DF91CF911F91A7C8DF9148
:101D3000CF911F91C1C8F1E0823A9F0721F4DF9152
:101D4000CF911F91F3C721E08E3C920721F4DF91E0
:101D5000CF911F9134CA845B914059F48091DD008A
:101D60009091DE00B4D788EE93E0DF91CF911F9180
:101D7000DEC3DF91CF911F91A3C6DF91CF911F9159
:101D80000895F89471D8C2D578D541D4789481E07B
:101D90008AD31ED360E070E081E49EE07BD278DFDE
:101DA000B8D380919800882319F080E055D764D685
:101DB0007EDF10929500F4CF0024552704C0080E52
:101DC000591F880F991F009729F076956795B8F3EA
:101DD0007105B9F7802D952F0895991B79E004C0FE
:101DE000991F961708F0961B881F7A95C9F780955A
:101DF0000895AA1BBB1B51E107C0AA1FBB1FA61752
:101E0000B70710F0A61BB70B881F991F5A95A9F7A3
:101E100080959095BC01CD01089597FB072E16F48F
:101E2000009406D077FD08D0E4DF07FC05D03EF42F
:101E3000909581959F4F0895709561957F4F089576
:101E4000E199FECF9FBB8EBBE09A99278DB3089591
:101E5000262FE199FECF9FBB8EBBE09A01970DB272
:101E6000021639F01CBA2DBB0FB6F894E29AE19A2B
:081E70000FBE0895F894FFCFA6
:101E7800060B18010101000402462843030D0778E8
:101E880014780146012D0001020100000000000045
:101E9800010000000000F880422211090402050038
:00000001FF
