:100000005EC078C043C376C075C074C073C072C090
:1000100080C270C06FC06EC04CC36CC06BC0323049
:10002000313931313031000101020203030404058A
:100030000506060707080809090A0B0B0C0D0D0E2B
:100040000F0F1011121213141515161718191A1B69
:100050001C1D1E1F202122232425262728292B2C66
:100060002D2E30313233353638393A3C3D3F40421F
:10007000434546484A4B4D4F5052545557595B5D86
:100080005F61626466686A6C6F71737577797C7E94
:1000900080828587898C8E919396989B9DA0A3A53D
:1000A000A8ABADB0B3B6B9BCBEC1C4C7CACDD1D47C
:1000B000D7DADDE0E4E7EAEEF1F5F8FBFF00112422
:1000C0001FBECFE5D2E0DEBFCDBF10E0A0E6B0E0BE
:1000D000E8E0FBE102C005900D92AA38B107D9F71C
:1000E00011E0AAE8B0E001C01D92A830B107E1F725
:1000F00090DC08CD85CF81E00895809105018111C4
:100100008093690008952091740090910501809179
:100110000601222381F0911190937100882321F030
:1001200097E9981B9093700080910701882361F0F4
:1001300080936F000895911190937300882321F0AC
:1001400097E9981B9093720008958CEF93E00197C4
:10015000F1F70895EF92FF920F931F93CF93DF93E0
:100160001F92CDB7DEB78C017B01842F4091BE007A
:100170005091BF00452B39F0E091BE00F091BF00D7
:100180002983099529811093BF000093BE00012B9C
:1001900071F0E091BE00F091BF00B701822F0F9087
:1001A000DF91CF911F910F91FF90EF9009940F90E5
:1001B000DF91CF911F910F91FF90EF900895DC0197
:1001C00090919200983090F4E92FF0E0EE0FFF1F2D
:1001D000EB50FF4FB183A0839F5F9093920028E084
:1001E00049E0CD01B7DF8091920008958FEF089527
:1001F000CF93DF93E0919200EE2359F0E150E0932A
:100200009200F0E0EE0FFF1FEB50FF4FC081D18155
:1002100002C0C0E0D0E0E0919200EE2341F0F0E0B7
:10022000EE0FFF1FED50FF4F8081918102C080E0F3
:1002300090E02AE049E060E070E08CDFCE01DF91E1
:10024000CF9108950F931F93CF93DF9300D0CDB735
:10025000DEB78C0169837A83CBDF69817A81C8013B
:100260000F900F90DF91CF911F910F91A8CF813CFC
:1002700029F460E070E088EE98E006C0823C39F432
:1002800060E070E080E198E0DDDF80E0089581E0EB
:100290000895813C29F460E070E088EE98E006C0A3
:1002A000823C31F460E070E087E391E0CBDF07C08F
:1002B000843C39F460E070E088E49CE080DF80E01A
:1002C000089581E008951092F40081E080938D00FC
:1002D00008951092AF001092AE009091F40080311A
:1002E00059F4892F80699F709F3021F48093F40026
:1002F00081E008958F5FFACF882329F0906890936A
:10030000F40080E00895892F8F7E95FD02C08068FB
:10031000EDCF806CEBCF482FDB0120E030E0C9014E
:1003200063E070E091DBFC01ED53FF4F8081882397
:1003300031F02F5F3F4F2031310589F703C04083F3
:10034000B283A183089520E030E0F22FE32F2F5FE6
:100350003F4FC90163E070E077DBDC01AD53BF4F75
:100360004C918F2F9E2F63E070E06EDBFC01ED530C
:10037000FF4F408311968D919C91129792838183B8
:100380002F30310511F71092F0001092F200109208
:10039000F100089581E080938D00089590E822E0B7
:1003A00048EA57E030E0815070F00FB6F89496BDFF
:1003B00026BD0FBEFA013197F1F70FB6F89496BD3E
:1003C00036BD0FBEF0CF08950F931F93CF93DF93E9
:1003D000D82F8B01C0919200C150C7FD0FC0EC2FE8
:1003E000EE0FFF0BEB50FF4F0190F081E02DB801B5
:1003F0008D2F09958111F0CF80E001C081E0DF9160
:10040000CF911F910F9108958091C300882349F0E7
:100410006091C4007091C5008091C300D5DF93DF67
:10042000F3CF08958F929F92AF92BF92CF92DF92B7
:10043000EF92FF920F931F93CF93DF931F92CDB74D
:10044000DEB7E090BE00F090BF004C0110E800E085
:1004500088EAC82E87E0D82E22E09AEEA92EBB2487
:10046000B3948114910451F180918F00853038F458
:100470000FB6F89416BD26BD0FBEC50106C00FB657
:10048000F89416BD06BD0FBEC6010197F1F70FB671
:10049000F89416BD06BD0FBE80918D00811110C06D
:1004A0004091BE005091BF0091E0891A9108E41676
:1004B000F50639F42983A8DF2981D3CF81E001C073
:1004C00080E00F90DF91CF911F910F91FF90EF90FF
:1004D000DF90CF90BF90AF909F908F9008951BCFEB
:1004E0009093AF008093AE00BC018091F40013CFD5
:1004F0008FE887B908958CE087B9089586B188643C
:1005000086B908958CE087B986EC86B90895379846
:1005100008951F920F920FB60F9211242F933F93BD
:100520004F935F936F937F938F939F93AF93BF93FB
:10053000EF93FF938091C200882309F445C0109285
:10054000C20064B175B180918E00860F80938E00D9
:1005500080919000882311F081E004C08091AD006B
:100560008F5F81708093AD008091AD00813031F557
:1005700080E098E586DA695F7F4F769567956093AE
:1005800093008091AC00882321F081508093AC00CF
:1005900015C0809193008D3178F48091AB00883044
:1005A00020F48F5F8093AB0009C060E070E084E0CE
:1005B000B2DE88E28093AC001092AB008CE087B989
:1005C000809190008111A3DFFF91EF91BF91AF91D6
:1005D0009F918F917F916F915F914F913F912F915B
:1005E0000F900FBE0F901F901895A89581B5886148
:1005F00081BD80E481BD0895A89581B5886181BDE4
:1006000083E481BD0895A89584B7877F84BF81B5B1
:10061000886181BD11BC08950F931F9361E04DE780
:1006200050E026B323FB222720F926278091A4003F
:100630009091A500A091A600B091A700880F991FE6
:10064000AA1FBB1F822B8093A4009093A500A093A8
:10065000A600B093A700FA013197F1F78C019D0134
:1006600001501109210931090E3F1F4F2F4F3F4FF4
:10067000C0F28093C1001F910F9108958BB78062E3
:100680008BBF08958BB78F7D8BBF08951895CF933F
:10069000C82F882311F080E101C080E01ADE882392
:1006A00031F0C093C10080E090E0CF9119CFCF919D
:1006B00008951F920F920FB60F9211242F933F931C
:1006C0004F935F936F937F938F939F93AF93BF935A
:1006D000CF93DF93EF93FF9381E08093910080911C
:1006E00090008823F9F0C091A900D091AA00BE0122
:1006F00083E011DECE01882790782196C82BD92B74
:10070000D093AA00C093A9007FDE8091A9009091A8
:10071000AA008F779927892B09F053C08FEF809318
:10072000A80004C01092AA001092A900C091C100B4
:1007300073DFC813ACDFC091AE00D091AF00CE0123
:100740000196CC27D078C82BD92BD093AF00C0937B
:10075000AE008091F400807F803B19F460E070E08F
:1007600001C0BE0181E0D7DD9091F40094FF0DC07F
:1007700095FF02C0CE0107C06897A0F090629093E9
:10078000F40080E090E0ACDE0DC0992359F095FDB7
:1007900008C0629738F090649093F40080E090E095
:1007A0009FDE91DD8091A8008F5F8093A800837009
:1007B00041F4809190008111A5DEA0DE81E080935C
:1007C000C200FF91EF91DF91CF91BF91AF919F91C7
:1007D0008F917F916F915F914F913F912F910F90EA
:1007E0000FBE0F901F90189507DF91DE15DF811166
:1007F000FDCF69DD43DF809190008823A1F0109246
:10080000910085B7877E806185BF85B7806285BF8F
:10081000889585B78F7D85BF809191008111EBCF41
:1008200010929000E8CF6EDEE0CE85B7877E85BF60
:1008300085B7806285BF889585B78F7D85BF089510
:10084000E0916700F09168003196FB70F460F093DE
:100850006800E093670080918E008B5A80938E0031
:10086000E49180918E008E0F08950F931F93CF9384
:10087000DF93F89480E091E02BD9853A89F400EB7E
:1008800010E0C1E0D1E0CE0123D9F80181938F01BE
:100890002196CF30F1E0DF07B1F7789481E002C014
:1008A000789480E0DF91CF911F910F9108950F937D
:1008B0001F93CF93DF93F89400EB10E0C1E0D1E0F9
:1008C000F80161918F01CE010BD92196CF30F1E073
:1008D000DF07B1F765EA80E091E002D97894DF9113
:1008E000CF911F910F91089580918F00853010F462
:1008F00092E005C08E3010F491E001C090E080E8F5
:100900000FB6F89486BD96BD0FBE0895882321F0DA
:10091000813029F4BC9804C0BC98C4980895BC9A4E
:10092000C49A0895982F880F97FD809508950F9386
:100930001F93CF93C82F80938F00809190008111D7
:100940000AC091E0C23408F490E081E0C11101C016
:1009500080E0890FDBDFC11103C019BC18BC4FC098
:100960002FEF2C0F422F50E0FA01E95DFF4FE49189
:1009700080917600811109C0CA016FEF70E064D8E0
:1009800066E970E07ED8C62F15C08F3F51F4CA01CA
:100990006FEF70E059D866E970E073D8C62FC09544
:1009A00009C090E064E670E04FD863E670E07DD85F
:1009B000CFEFC60F0E2F10E02F30A8F08C2FB2DF34
:1009C000282FC8016AE170E03FD8BC0186E0769527
:1009D00067958A95E1F7822F90E036D86FEF70E047
:1009E00050D8060F171F6C2F70E0C8012DD8815802
:1009F0009F4F6FEF70E045D8061B09BD68BDCF91D2
:100A00001F910F9171CF0F931F93CF93C82F8823FE
:100A100011F008EC02C008E0C1E010E089E187DFD6
:100A2000C80100DD80E083DF8CE291E0FBDCC15097
:100A3000A9F784EF91E0CF911F910F91F3CCCF9361
:100A4000DF93C82F843638F08CE98C0F843628F079
:100A5000C85C82E004C080E002C0C82F81E0D0E022
:100A6000CA3018F0DF5FCA50FBCF882381F0CBDF9C
:100A7000882381F08D2FC7DF882361F08C2FC3DF9F
:100A8000882341F088EE93E0DF91CF91CBCCD11158
:100A9000F1CFF4CF80E0DF91CF9108958091930062
:100AA000CECFCF93DF93883059F4109298006093A3
:100AB000970010929600109295001092940081C0B9
:100AC000813009F068C090919600892F8D7F81F464
:100AD00020919400309195002F31310538F42F5F2B
:100AE0003F4F30939500209394006EC09F5F25C0C8
:100AF000913051F5809197008823F1F0C0919400D6
:100B0000D09195009E012F7133272A30310511F4C1
:100B100085E204C02431310519F480E008DF06C005
:100B20002F31310519F48150809397002196D0938D
:100B30009500C093940045C092E090939600109267
:100B400095001092940040C09330E9F4C091940055
:100B5000D09195002196D0939500C0939400CE013A
:100B600083709927009711F489E103C0029711F46B
:100B700082E1DDDECB3BD10520F180E0D8DE84E0F0
:100B8000809396001EC09430E1F480919800809389
:100B9000F3002EDB16C08138B1F495DB809196000E
:100BA000833079F4809198008F5F80939800109241
:100BB0009500109294008BE4BADE84E0EFDB80E0D5
:100BC000B6DE80E001C081E0DF91CF910895B89A50
:100BD00081E083BF81EA8ABDB99A88E088BB85BB82
:100BE0000895CF93DF93D82FE82FF0E0E559FF4F1A
:100BF000C08186E99CDED11107C0CA3210F4A5DAA3
:100C000007C081E090E003C08C2F869590E00ADC5D
:100C100080E08DDE8C2F90E0DF91CF9103CCEF92BE
:100C2000FF920F931F93CF93DF930ADE8F73E82E0B
:100C3000F12C06DE67E019D701E010E0E80102C000
:100C4000CC0FDD1F9A95E2F7FBDD65E00ED702C001
:100C5000000F111F9A95E2F7C00FD11FF1DD90E050
:100C6000BE0123D7C80FD91FC739D10514F0C6E973
:100C7000D0E08C2F5CDEC701D5DB9E0143E03595CB
:100C800027954A95E1F72115310509F421E0022F56
:100C900010E0C701C7DBC01BD10BD7FF02C0C0E00B
:100CA000D0E08C2F44DECCDD837031F4C701BADB99
:100CB000CE01959587953BDEC230D10554F7C0DD56
:100CC0006DE0D3D6C1E0D0E002C0CC0FDD1F9A9515
:100CD000E2F7B6DD90E0BE01D4D6C80FD91F80E0A0
:100CE00026DECE01DF91CF911F910F91FF90EF9003
:100CF00099CBCF93DF93C0916A00CC0FC73908F02E
:100D0000C6E9D4E08C2F13DE85E090E08BDB809188
:100D10006A000DDE81E490E085DBD15099F780ED2B
:100D200092E0DF91CF917ECBAF92BF92CF92DF92D4
:100D3000EF92FF920F931F93CF93DF93EB018830D5
:100D400021F41092A00081E028C0823C19F4109296
:100D5000A00042C0813BE1F480916200CD2B49F4B8
:100D60008F3510F09FEF03C0823018F491E090931C
:100D70006300C0916300C80F21F481E0809362009A
:100D8000C5C0C03618F4C093620026C08FE512C0FB
:100D9000813E31F4809163008195809363001CC093
:100DA000823B59F481E0809363008091620082303D
:100DB00098F08150809362000FC0833C79F4809159
:100DC000A000843E48F4855E8093A00080918F004F
:100DD000805EADDD82E0E2DAC0E098C0813009F0EB
:100DE00094C06E33710511F4809363002091A000CC
:100DF000FE01FF70213071F46091620070E0685D67
:100E00007F4FCF0134E0969587953A95E1F71CD650
:100E1000C92E01C0C12CEF3FFF4061F4222351F0E5
:100E200021502093A000211105C060E070E088EE01
:100E300098E008DAD0909F008D2D74DDA82EE09008
:100E40009E008E2D6FDDB82E00916100F0909D0008
:100E50008F2D68DD382F10916000209162002C19D1
:100E60008A2D90E06CE070E0EFD5290F602F70E0E4
:100E70008B2D90E0E9D5290F612F70E0832F90E052
:100E8000E3D5822F890F87FD80E051DDC0FD05C0CD
:100E9000D7DC8170D80ED0929F0080919C00E80E24
:100EA000E0929E00CDDC65E2E0D5F90EF0929D0067
:100EB000C7DC8F7329F4C4DC6DE0D7D590939C0018
:100EC000002331F0BDDC8F7319F4015000936100F1
:100ED000B7DC811107C0B4DC62E1C7D59093610033
:100EE00010929E00133030F0ABDC8F7119F411506A
:100EF00010936000A5DCC82FCF7709F06DCFA0DC80
:100F00006AE0B3D59093600001C0C1E08C2FDF91FF
:100F1000CF911F910F91FF90EF90DF90CF90BF90F6
:100F2000AF9008958091750002DD84E690E07ADA52
:100F300080E0FDDC8091690090E068EE73E084D58C
:100F4000845691096FCA0F931F93CF93DF93EC01DF
:100F5000809173009091720020917400222321F0FF
:100F60008091710090917000282F30E0C217D30754
:100F70000CF441C0292F30E02C173D07DCF18091A3
:100F80007400811102C08C2F36C0E09170008091F6
:100F90007100E81B60916F00F0E070E06150710932
:100FA000CF0183D56093C000909171006695262F84
:100FB00030E010E080916F001817E0F400917100AC
:100FC00040916F00812F90E0BF013ED5642F70E00B
:100FD0006150710956D5902F960FAE01491B5109EA
:100FE00057FF03C05195419551092417350714F453
:100FF0001F5FE0CF892FDF91CF911F910F9108954F
:10100000CF93C82FCC2351F085E291DC82E0C6D982
:1010100080E08DDC89E1C2D9C150F4CFCF91089531
:10102000883049F410929B0010929A0082E0E8DF29
:1010300088E17DDC07C0813C39F460E070E088EE37
:1010400098E000D980E00895823C29F460E070E0E7
:1010500089E491E0F6CF8130D9F480919A009091A3
:101060009B000196853524E2920728F490939B001B
:1010700080939A00E7CF10929B0010929A00809183
:101080008F00815054DC80918F008111DBCFD5CF50
:1010900081E00895CF93C0918F0080E048DC83E029
:1010A0007DD98C2FCF9143CCCF93DF93CDB7DEB7D3
:1010B00060970FB6F894DEBF0FBECDBF909193003E
:1010C0009D3110F480E011C090E1E7E7F0E0DE012F
:1010D000119601900D929A95E1F78F70E1E0F0E0A2
:1010E000EC0FFD1FE80FF11D808160960FB6F8949C
:1010F000DEBF0FBECDBFDF91CF9108CCB6DB88231A
:10110000C1F18091B000809374008091B100809310
:1011100073008091B200809372008091B30080933D
:1011200071008091B400809370008091B50080932D
:101130006F008091B60080938A008091B700809301
:1011400076008091B80080936D008091B900809303
:101150006B008091BA0080936C008091BB008093FB
:101160006A008091BC00809369008091BD008093EB
:101170006E00089580917400E0EBF0E08083809130
:1011800073008183809172008283809171008383D8
:1011900080917000848380916F00858380918A00A4
:1011A000868380917600878380916D008087ABE68F
:1011B000B0E08C91818711968C91828780916A0032
:1011C000838780916900848780916E0085876FCBCB
:1011D000CF93DF93EB01883069F480E0A8DB809146
:1011E0006E00837093DBCD2B19F481E08093900027
:1011F000C0E08CC0813051F469317105C8F380932F
:10120000900080916E00837081DBF2CF833041F4D7
:1012100080916E008370833059F7862F45DFE8CFC9
:10122000813B69F481E090E08EDE81DB8091740087
:10123000811102C06897E0F261E070E026C0813E53
:10124000D9F3813871F4C0918A00CC2321F08C2F1E
:1012500090E079DE22C08091750090E074DE67DB5B
:1012600055C0813C71F4C0918A00CC2319F06C2FD9
:1012700070E00BC06091750070E08AE899E0E2D7F9
:1012800045C0823B29F466E970E08AE899E03BC0FA
:10129000823CC9F3833919F480E049DBA9CF833C50
:1012A00029F460E070E087E391E02DC0833B29F4EE
:1012B00060E070E087EC9AE026C0843C39F482E07C
:1012C0009FDE60E070E080EA9BE01DC0853C39F461
:1012D00081E096DE60E070E08EE59BE014C0873C24
:1012E00061F490916E0081E0890F83709C7F982B50
:1012F00090936E000BDB3EDF7BCF8F3C31F460E0E0
:1013000070E08BE790E09ED773CFC1E08C2FDF9128
:10131000CF910895CF93DF939B0140917300C091CB
:10132000720090917400992339F040917100C0913E
:101330007000D091C00001C0D1E0982F9D7F9830FF
:10134000B9F410928C008A3019F42091750030E0C5
:10135000842F90E08217930730F4D0E02C173D07DC
:1013600010F420937500C901EEDDE1DA81E0A9C037
:10137000813C31F460E070E088EE98E063D7A3C070
:10138000823C39F480918F00863908F063C086E989
:1013900081C0833C69F49091740081E0911180E0F8
:1013A00080937400E7DE76DE80918F0090E06FC05E
:1013B000843C31F460E070E082E49CE000D783C0BC
:1013C000813B09F04AC080917400882339F0C9013B
:1013D00068E170E056D3892B09F075C021153105FD
:1013E00071F480918F008C1710F08FEF05C0809101
:1013F0008F004817C8F081E08093660015C027333E
:1014000081E0380788F080918F008C1770F72D36B7
:10141000324050F080918F00481730F03BDE60E0A2
:1014200070E080EA9BE00ED720918F00609166000B
:10143000772767FD70958D2F90E006D3820F911D61
:1014400082DD8093750090918F00891719F08C13BD
:1014500001C020DE809175001DC0813E21F4809185
:10146000660081952EC0823BB9F481E080936600CE
:1014700080917400882331F0C90168E170E001D3E4
:10148000892B09F580918F0090E08D1B91095BDD20
:10149000809375004CDA17C0853C29F480918F0049
:1014A00080938A0006C0853B39F4232B71F4109297
:1014B0008A0060DEEFDD09C0813039F42E3331055A
:1014C00011F48093660080E001C081E0DF91CF914C
:1014D0000895CF93833B09F041C0672B29F481E045
:1014E0008093A3001092A2008091A300882309F4A6
:1014F0004CC09091650080917600191624F48E3FBF
:1015000048F48F5F05C0992329F0823018F081508C
:1015100080937600C091A20090917600C03449F487
:1015200081E48093A20081E0892780937600B2DD78
:101530000DC08091A100891309C0C11102C0AADDAC
:1015400002C0CF3F19F0CF5FC093A2008091760018
:101550008093A10080918F00EAD914C0833EA1F44A
:101560001092A30080916500819580936500809121
:101570007600811102C081E002C08F3F11F4809398
:101580006500F8DD80E001C081E0CF9108950F9300
:101590001F93CF93DF93D82F8B01C0916D0081E013
:1015A00080938C00C33011F48D2FBEDBD83021F432
:1015B00081E0809364007AC0D13C31F460E070E057
:1015C00088EE98E03FD672C0D23C49F48C2F90E070
:1015D000019665E070E069D280936D0059C0D13BFF
:1015E00051F5C23090F400FD61C0EC2FF0E0E559F8
:1015F000FF4F808190916400891B883020F08F3FDD
:10160000A1F58EEF32C088E030C0C43009F04EC082
:1016100090916A0080916400890F80936A008091A4
:101620006A00823010F482E02BC080916A00893712
:1016300048F188E725C0D13E31F48091640081955E
:101640008093640025C0D23B09F581E0809364005B
:10165000C23068F400FD2AC0EC2FF0E0E559FF4FDE
:1016600080818F3F19F180818F5F80831FC0C430DC
:10167000E9F480916A00833028F080916A008150FB
:1016800080936A0080916A0052D910C0D23E11F452
:1016900071DD0CC0D13061F40E33110511F4D0931B
:1016A000640080918E00080F00938E0080E001C0DE
:1016B00081E0DF91CF911F910F9108950F931F93B8
:1016C000CF93DF93D82F8B01883031F480918C0039
:1016D000813011F488E05BDF8D2F8079803959F4F7
:1016E00081E080938B00C0918C00C1110AC0809171
:1016F00075001DD91FC0803831F410928B0080E036
:1017000016D9C0E017C0D130A1F4C0918B00CC2312
:1017100051F080918C008130A1F7B801DF91CF9119
:101720001F910F9134CF033A134058F3D093900098
:1017300001C0C1E08C2FDF91CF911F910F910895CF
:10174000EF92FF921F93CF93DF9300D0CDB7DEB718
:10175000182F7B018079803901F58091730089838E
:10176000809171008A83812F8F70823059F480912B
:10177000740091E09827E1E0F0E0EC0FFD1FE90F25
:10178000F11D08C080917400E1E0F0E0EC0FFD1F56
:10179000E80FF11D8081CBD81CC0803819F480E09F
:1017A000C6D809C0183039F480916E0086958695A8
:1017B000ADD881E036C0113061F489E1E816F1045A
:1017C00088F01093900080916E00869586959ED843
:1017D00009C0133049F490916E009C709C3011F454
:1017E0008E2D62DC80E01DC0133C89F490916E0068
:1017F000892F869586958F5F8370282F220F220F61
:101800009370920F90936E0081D8B4DCEBCF81E09F
:10181000143C39F4F5DB60E070E088EE98E012D516
:10182000E1CF0F900F90DF91CF911F91FF90EF903C
:101830000895883029F41092990080E078D820C06B
:10184000813081F460919900641738F470E06F5F23
:101850007F4F81E595E0B3D413C0F90109958ADC87
:10186000C7D40EC08A3061F4809199009091F30042
:10187000E82FF0E0EB5FFE4F90838F5F809399003D
:1018800080E00895409174004E5F23E830E0D1CFAE
:101890002DE730E041E0CDCFCF93C0E08C2F47D88B
:1018A00085E07CD58C2F869542D885E077D5B4D657
:1018B000882361F0CF5FC03489F75CDCC6E98C2FE8
:1018C00036D881E06BD5C150D1F708C0CC2331F0B8
:1018D0008C2F2DD883E062D5C150F8CFCF910895D9
:1018E0008091BE009091BF002AE0873C920729F4C6
:1018F00069E170E08AE899E015C08A58994071F46E
:1019000080918F00823050F090918F0020918F0055
:1019100026952695892F8695820F09C860E070E08C
:1019200088EE98E08FC4843019F4DADF80E00895FF
:1019300081E0089582E1FBD783E030D580E0F7D7DE
:101940006BD68111A9DFDADB60E070E089E69AE00E
:1019500036D461E070E088EE98E031C41F93CF93F5
:10196000DF938091BE009091BF0020E08B379207FB
:10197000B1F4CEE1D0E01C2F185FFE0184918053BA
:1019800042D88CE291E04ED521961C13F6CF60E050
:1019900070E088EE98E0DF91CF911F9153C42AE068
:1019A000873C920761F0EBE08E359E07D9F4809179
:1019B0008C00813031F580918B00882311F180916A
:1019C0006D00823059F030F08430F9F4DF91CF911E
:1019D0001F918FC9DF91CF911F9103C9DF91CF91E3
:1019E0001F911DC9F1E087339F0721F4DF91CF914B
:1019F0001F9154C88954914021F4DF91CF911F91D8
:101A000091CADF91CF911F9110C7DF91CF911F91A4
:101A10000895F894DCD832D6E8D574D5789481E06E
:101A2000BDD451D460E070E083E99CE0C8D382DF8C
:101A3000EBD480919000882319F080E078D7D4D639
:101A40008DDF10928D00F4CF0024552704C0080EBE
:101A5000591F880F991F009729F076956795B8F35D
:101A60007105B9F7802D952F0895991B79E004C071
:101A7000991F961708F0961B881F7A95C9F78095CD
:101A80000895AA1BBB1B51E107C0AA1FBB1FA617C5
:101A9000B70710F0A61BB70B881F991F5A95A9F717
:101AA00080959095BC01CD01089597FB072E16F403
:101AB000009406D077FD08D0E4DF07FC05D03EF4A3
:101AC000909581959F4F0895709561957F4F0895EA
:101AD000E199FECF9FBB8EBBE09A99278DB3089505
:101AE000262FE199FECF9FBB8EBBE09A01970DB2E6
:101AF000021639F01CBA2DBB0FB6F894E29AE19A9F
:081B00000FBE0895F894FFCF19
:101B08000A121801010101000402412843030E05CD
:101B1800960A9601014180000102010000000000C0
:0A1B280000010000000000050000AD
:00000001FF
