:10000000F4C00EC1C4C40CC10BC10AC109C108C1EE
:1000100050C306C105C104C1CDC402C101C1323003
:1000200031393131303100000000000000000000A3
:1000300000000000000000000000000000000000C0
:1000400000000000000000000000000000000000B0
:1000500000000000000000000000000000000000A0
:100060000000000000000000000000000000000090
:100070000000000000000000000000000000000080
:100080000000000000000000000000000000000070
:100090000000000000000000000000000000000060
:1000A00000000000070D151C232B333C444D576006
:1000B0006A757F8A96A1ADBAC7D4E2F0FF0000004E
:1000C0000000000000000000000000000000000030
:1000D0000000000000000000000000000000000020
:1000E0000000000000000000000000000000000010
:1000F00000000000000000000000000000001011DF
:10010000121314151617191A1B1D1E20222325273A
:10011000292B2E303235373A3D404346494D515414
:10012000585C61656A6E73787E83898F959CA2A9FD
:10013000B1B8C0C8D0D9E2EBF5FFFFFFFFFFFFFF6A
:10014000FFFFFFFFFFFFFFFFFFFFFFFFFFFFFFFFBF
:10015000FFFF00010102020303040405060708096A
:100160000A0C0D0E0F11131416181A1D1F22242726
:100170002A2D3033373B3E42464B4F54595D63681E
:100180006E73797F868C939AA1A8B0B8C0C8D1D974
:10019000E2ECF5FFFFFFFFFFFFFFFFFFFFFFFFFFA9
:1001A000FFFFFFFFFFFFFFFFFFFFFFFFFFFFFFFF5F
:1001B000FFFFFFFFFFFFFFFFFFFFFFFFFFFFFFFF4F
:1001C000FFFFFFFFFFFFFFFFFFFFFFFFFFFFFFFF3F
:1001D000FFFFFFFFFFFFFFFFFFFFFFFFFFFFFFFF2F
:1001E000FFFFFFFFFFFFFFFF000011241FBECFE551
:1001F000D2E0DEBFCDBF10E0A0E6B0E0E0E1FEE17E
:1002000002C005900D92A038B107D9F711E0A0E81F
:10021000B0E001C01D92A631B107E1F77EDDF6CD59
:10022000EFCE81E0089580911301882369F0209139
:10023000CA003091CB0090918A00291B821B8093C9
:100240008A0081E08093740080911401882319F062
:10025000835E8093750080917500873418F086E482
:100260008093750008958091130181118093680037
:10027000089520918100909113018091140122230F
:1002800081F0911190937000882321F097E9981BD9
:1002900090936F0080911501882361F080936E0028
:1002A0000895911190937200882321F097E9981B8B
:1002B0009093710008958CEF93E00197F1F7089502
:1002C000EF92FF920F931F93CF93DF931F92CDB7BF
:1002D000DEB78C017B01842F4091C7005091C8008C
:1002E000452B39F0E091C700F091C80029830995AA
:1002F00029811093C8000093C700012B71F0E09191
:10030000C700F091C800B701822F0F90DF91CF9105
:100310001F910F91FF90EF9009940F90DF91CF9173
:100320001F910F91FF90EF900895DC01909189004B
:10033000983090F4E92FF0E0EE0FFF1FED5FFE4FD5
:10034000B183A0839F5F9093890028E049E0CD01AD
:10035000B7DF8091890008958FEF0895CF93DF93E1
:10036000E0918900EE2359F0E150E0938900F0E03C
:10037000EE0FFF1FED5FFE4FC081D18102C0C0E0D4
:10038000D0E0E0918900EE2341F0F0E0EE0FFF1F96
:10039000EF5FFE4F8081918102C080E090E02AE013
:1003A00049E060E070E08CDFCE01DF91CF910895ED
:1003B0000F931F93CF93DF9300D0CDB7DEB78C019F
:1003C00069837A83CBDF69817A81C8010F900F90AE
:1003D000DF91CF911F910F91A8CF813C29F460E06C
:1003E00070E080E49AE006C0823C39F460E070E09E
:1003F0008BE899E0DDDF80E0089581E00895813C9D
:1004000029F460E070E080E49AE006C0823C31F4B8
:1004100060E070E08DEE91E0CBDF07C0843C39F402
:1004200060E070E088EB9DE080DF80E0089581E08F
:100430000895813C29F460E070E080E49AE006C011
:10044000823C31F460E070E08FEF91E0B1DF07C0F3
:10045000843C39F460E070E08CEB9DE066DF80E086
:10046000089581E008951092000181E08093850055
:1004700008951092B7001092B6009091000180315B
:1004800059F4892F80699F709F3021F48093000177
:1004900081E008958F5FFACF882329F090689093C8
:1004A000000180E00895892F8F7E95FD02C080684D
:1004B000EDCF806CEBCF482FDB0120E030E0C901AD
:1004C00063E070E045DCFC01E153FF4F808188234D
:1004D00031F02F5F3F4F2031310589F703C0408352
:1004E000B283A183089520E030E0F22FE32F2F5F45
:1004F0003F4FC90163E070E02BDCDC01A153BF4F2B
:100500004C918F2F9E2F63E070E022DCFC01E153C1
:10051000FF4F408311968D919C9112979283818316
:100520002F30310511F71092FC001092FE0010924E
:10053000FD00089581E080938500089590E822E011
:1005400048EA57E030E0815070F00FB6F89496BD5D
:1005500026BD0FBEFA013197F1F70FB6F89496BD9C
:1005600036BD0FBEF0CF08950F931F93CF93DF9347
:10057000D82F8B01C0918900C150C7FD0FC0EC2F4F
:10058000EE0FFF0BED5FFE4F0190F081E02DB80103
:100590008D2F09958111F0CF80E001C081E0DF91BE
:1005A000CF911F910F9108958091CF00882349F03A
:1005B0006091D0007091D1008091CF00D5DF93DFA2
:1005C000F3CF08958F929F92AF92BF92CF92DF9216
:1005D000EF92FF920F931F93CF93DF931F92CDB7AC
:1005E000DEB7E090C700F090C8004C0110E800E0D2
:1005F00088EAC82E87E0D82E22E09AEEA92EBB24E6
:10060000B3948114910451F180918700883038F4BB
:100610000FB6F89416BD26BD0FBEC50106C00FB6B5
:10062000F89416BD06BD0FBEC6010197F1F70FB6CF
:10063000F89416BD06BD0FBE80918500811110C0D3
:100640004091C7005091C80091E0891A9108E416C2
:10065000F50639F42983A8DF2981D3CF81E001C0D1
:1006600080E00F90DF91CF911F910F91FF90EF905D
:10067000DF90CF90BF90AF909F908F9008951BCF49
:100680009093B7008093B600BC018091000113CF16
:100690008FE887B908958CE087B9089586B188649A
:1006A00086B908958CE087B986EC86B908953798A5
:1006B00008951F920F920FB60F9211242F933F931C
:1006C0004F935F936F937F938F939F93AF93BF935A
:1006D000EF93FF938091CE00882309F4FDC0109220
:1006E000CE0064B175B180918600860F809386003C
:1006F0009091B5009F5F93709093B500913039F55C
:1007000080E098E542DB695F7F4F7695679560935F
:100710008B008091B400882321F081508093B40035
:10072000D7C080918B008D3178F48091B3008430F4
:1007300020F48F5F8093B300CBC060E070E084E072
:10074000BADE84E18093B4001092B300C1C093304C
:1007500009F0BCC06351714080918A00680F711D1F
:1007600087FD7A9580917400882379F01092740047
:100770007093CB006093CA00E3EAF0E06193719359
:1007800020E0E33BF207D1F71FC02091CA0030916F
:10079000CB00261737073CF42091CA003091CB00DC
:1007A0002F5F3F4F0DC02091CA003091CB006217E0
:1007B000730754F42091CA003091CB0021503109C5
:1007C0003093CB002093CA006091CA007091CB0097
:1007D0002091A2002F5F2093A200277071F4E3EA1A
:1007E000F0E0228133812193319330E0E13BF30744
:1007F000C1F77093B2006093B1002091A3003091D3
:10080000A400AB01421B530B9A0137FF03C02F5FBB
:100810003F4F05C02115310511F02150310991508C
:10082000A1F784E0220F331F8A95E1F7CB01820FF5
:10083000931F90930201809301016091750070E015
:100840009B01245031098217930714F01092A100E4
:100850008617970714F41092A00020919F0022237E
:1008600021F0215020939F0035C0681779079CF430
:100870002091A000283020F42F5F2093A0002AC0F0
:100880001092A0002CE020939F009C01261B370BA8
:10089000B90185E019C06550710986179707D4F42E
:1008A0002091A100283020F42F5F2093A10012C0D6
:1008B0001092A1002CE020939F0020918B002E31FC
:1008C00048F0681B790B86E0F6DD04C0923011F029
:1008D0008CE001C08FE887B9FF91EF91BF91AF9194
:1008E0009F918F917F916F915F914F913F912F9148
:1008F0000F900FBE0F901F901895A89581B5886135
:1009000081BD80E481BD0895A89584B7877F84BFA9
:1009100081B5886181BD11BC08950F931F9361E07B
:100920004DE750E026B323FB222720F926278091AC
:100930009A0090919B00A0919C00B0919D00880F1F
:10094000991FAA1FBB1F822B80939A0090939B0034
:10095000A0939C00B0939D00FA013197F1F78C01B0
:100960009D0101501109210931090E3F1F4F2F4FE1
:100970003F4FC0F28093CD001F910F9108958BB728
:1009800080628BBF08958BB78F7D8BBF08951895BC
:10099000CF93C82F882311F080E101C080E069DD8A
:1009A000882331F0C093CD0080E090E0CF9168CEF5
:1009B000CF9108951F920F920FB60F9211242F938B
:1009C0003F934F935F936F937F938F939F93AF93D7
:1009D000BF93CF93DF93EF93FF93C091CD009DDF43
:1009E000C813D6DFC091B600D091B700CE010196F2
:1009F000CC27D078C82BD92BD093B700C093B600A2
:100A000080910001807F803B19F460E070E001C0BC
:100A1000BE0181E050DD9091000194FF0DC095FF73
:100A200002C0CE0107C06897A0F0906290930001C9
:100A300080E090E025DE0DC0992359F095FD08C0B7
:100A4000629738F090649093000180E090E018DEA7
:100A50000ADD80919E008F5F80939E00837021F459
:100A60001DDE81E08093CE00FF91EF91DF91CF9169
:100A7000BF91AF919F918F917F916F915F914F91B6
:100A80003F912F910F900FBE0F901F9018953CDF54
:100A90000EDE43DF8111FDCFE6DC71DF10928800AE
:100AA00085B7877E806185BF85B7806285BF889561
:100AB00085B78F7D85BF81E080937400F3DD1DCF06
:100AC00085B7877E85BF85B7806285BF889585B7E6
:100AD0008F7D85BF08958093CC0008958091CC00D0
:100AE00090918700891720F480918700815007C07A
:100AF00090918700981718F4809187008F5F4FEFCF
:100B0000480F242F30E0B9016D5A7E4FFB019491BC
:100B100050918700451728F449B5411102C09F3F05
:100B200059F049B5491718F499B59F5F05C049B503
:100B3000941718F499B5915099BDA90143545F4F8A
:100B4000FA019491E8B5E91718F498B59F5F05C0CC
:100B5000E8B59E1718F498B5915098BD295D3F4FA0
:100B6000F9019491EBB5E91718F49BB59F5F05C0A7
:100B7000EBB59E1718F49BB591509BBD99B5FB0141
:100B8000649196130CC098B5FA014491941307C070
:100B90009BB5F9012491921302C0809387000895B8
:100BA000E0916600F09167003196FB70F460F0937D
:100BB0006700E0936600809186008B5A80938600E0
:100BC000E491809186008E0F08950F931F93CF9329
:100BD000DF93F89480E091E0FFD8853A89F408EB40
:100BE00010E0C1E0D1E0CE01F7D8F80181938F0188
:100BF0002196C031F1E0DF07B1F7789481E002C0BF
:100C0000789480E0DF91CF911F910F9108950F9319
:100C10001F93CF93DF93F89408EB10E0C1E0D1E08D
:100C2000F80161918F01CE01DFD82196C031F1E04A
:100C3000DF07B1F765EA80E091E0D6D87894DF91DC
:100C4000CF911F910F91089580918700883010F403
:100C500092E005C08E3010F491E001C090E080E891
:100C60000FB6F89486BD96BD0FBE0895882321F077
:100C7000813029F4BA9804C0BA98C2980895BA9AF3
:100C8000C29A0895CF93C82F809387008093CC0099
:100C90008091880081110AC091E0C23408F490E08C
:100CA00081E0C11101C080E0890FE0DFC11104C003
:100CB00019BC18BC1BBC12C0C1508C2F90E0FC01A9
:100CC000ED5AFE4FE491E9BDFC01E354FF4FE4917E
:100CD000E8BDFC01E95DFF4FE491EBBDCF91B4CFDE
:100CE0000F931F93CF93C82F882311F008EC02C0F5
:100CF00008E0C1E010E089E1C5DFC80163DC80E005
:100D0000C1DF8CE291E05EDCC150A9F784EF91E095
:100D1000CF911F910F9156CCCF93DF93C82F84367C
:100D200038F08CE98C0F843628F0C85C82E004C06F
:100D300080E002C0C82F81E0D0E0CA3018F0DF5F49
:100D4000CA50FBCF882381F0CBDF882381F08D2F21
:100D5000C7DF882361F08C2FC3DF882341F088EE42
:100D600093E0DF91CF912ECCD111F1CFF4CF80E081
:100D7000DF91CF91089580918B00CECFCF93DF93F9
:100D8000883059F41092900060938F0010928E007A
:100D900010928D0010928C0081C0813009F068C0E3
:100DA00090918E00892F8D7F81F420918C0030915D
:100DB0008D002F31310538F42F5F3F4F30938D0078
:100DC00020938C006EC09F5F25C0913051F58091BB
:100DD0008F008823F1F0C0918C00D0918D009E018E
:100DE0002F7133272A30310511F485E204C02431F4
:100DF000310519F480E046DF06C02F31310519F4C2
:100E0000815080938F002196D0938D00C0938C00E9
:100E100045C092E090938E0010928D0010928C004D
:100E200040C09330E9F4C0918C00D0918D002196A0
:100E3000D0938D00C0938C00CE01837099270097CA
:100E400011F489E103C0029711F482E11BDFCB3B6F
:100E5000D10520F180E016DF84E080938E001EC073
:100E60009430E1F4809190008093FF0077DA16C00F
:100E70008138B1F4F8DA80918E00833079F4809172
:100E800090008F5F8093900010928D0010928C00E4
:100E90008BE4F8DE84E052DB80E0F4DE80E001C029
:100EA00081E0DF91CF910895982F880F97FD80956D
:100EB0000895B89A81E083BF91EA9ABDB99ABC9A25
:100EC00080BF80E68CBD8FEF8DBD88E088BB85BB81
:100ED0000895CF93DF93D82FE82FF0E0E659FF4F26
:100EE000C0818DE7CFDED11107C0CA3210F4E3D93B
:100EF00007C081E090E003C08C2F869590E062DB14
:100F000080E0C0DE8C2F90E0DF91CF915BCBEF9241
:100F1000FF920F931F93CF93DF9342DE8F73E82EE0
:100F2000F12C3EDE67E025D701E010E0E80102C0C9
:100F3000CC0FDD1F9A95E2F733DE65E01AD702C0C9
:100F4000000F111F9A95E2F7C00FD11F29DE90E024
:100F5000BE012FD7C80FD91FC739D10514F0C6E974
:100F6000D0E08C2F8FDEC7012DDB9E0143E035954D
:100F700027954A95E1F72115310509F421E0022F63
:100F800010E0C7011FDBC01BD10BD7FF02C0C0E0C0
:100F9000D0E08C2F77DE04DE837031F4C70112DBE2
:100FA000CE01959587956EDEC230D10554F7F8DDF8
:100FB0006DE0DFD6C1E0D0E002C0CC0FDD1F9A9516
:100FC000E2F7EEDD90E0BE01E0D6C80FD91F80E069
:100FD00059DECE01DF91CF911F910F91FF90EF90DD
:100FE000F1CACF93DF93C0916900CC0FC73908F0E5
:100FF000C6E9D4E08C2F46DE85E090E0E3DA80910C
:10100000690040DE81E490E0DDDAD15099F780EDAF
:1010100092E0DF91CF91D6CAAF92BF92CF92DF928A
:10102000EF92FF920F931F93CF93DF93EB018830E2
:1010300021F41092980081E028C0823C19F41092AB
:10104000980042C0813BE1F480916200CD2B49F4CD
:101050008E3610F09FEF03C0823018F491E0909329
:101060006300C0916300C80F21F481E080936200A7
:10107000C5C0CF3618F4C093620026C08EE612C0F9
:10108000813E31F4809163008195809363001CC0A0
:10109000823B59F481E0809363008091620082304A
:1010A00098F08150809362000FC0833C79F4809166
:1010B0009800843E48F4855E809398008091870074
:1010C000805EE0DD82E03ADAC0E098C0813009F06D
:1010D00094C06E33710511F48093630020919800E1
:1010E000FE01FF70213071F46091620070E0675E74
:1010F0007F4FCF0134E0969587953A95E1F728D652
:10110000C92E01C0C12CEF3FFF4061F4222351F0F2
:10111000215020939800211105C060E070E080E428
:101120009AE046D9D09097008D2DBEDEA82EE09093
:1011300096008E2DB9DEB82E00916100F0909500DA
:101140008F2DB2DE382F10916000209162002C1993
:101150008A2D90E067E070E0FBD5290F602F70E0EA
:101160008B2D90E0F5D5290F612F70E0832F90E053
:10117000EFD5822F890F87FD80E084DDC0FD05C09B
:101180000FDD8170D80ED092970080919400E80E08
:10119000E092960005DD65E2ECD5F90EF09295003F
:1011A000FFDC8F7329F4FCDC6DE0E3D590939400B1
:1011B000002331F0F5DC8F7319F4015000936100C6
:1011C000EFDC811107C0ECDC6BE0D3D590936100BC
:1011D00010929600133030F0E3DC8F7119F4115047
:1011E00010936000DDDCC82FCF7709F06DCFD8DC1D
:1011F00066E0BFD59093600001C0C1E08C2FDF9105
:10120000CF911F910F91FF90EF90DF90CF90BF9003
:10121000AF9008958091730035DD84E690E0D2D9D7
:1012200080E030DD8091680090E068EE73E090D55A
:1012300084569109C7C90F931F93CF93DF93EC0195
:10124000809172009091710020918100222321F001
:101250008091700090916F00282F30E0C217D30763
:101260000CF441C0292F30E02C173D07DCF18091B0
:101270008100811102C08C2F36C0E0916F008091F7
:101280007000E81B60916E00F0E070E06150710941
:10129000CF018FD56093C900909170006695262F7D
:1012A00030E010E080916E001817E0F400917000BB
:1012B00040916E00812F90E0BF014AD5642F70E00D
:1012C0006150710962D5902F960FAE01491B5109EB
:1012D00057FF03C05195419551092417350714F460
:1012E0001F5FE0CF892FDF91CF911F910F9108955C
:1012F00080938000C7CCCF93C82FCC2351F085E2D8
:10130000C1DC82E01BD980E0BDDC89E117D9C15086
:10131000F4CFCF910895883049F410929300109241
:10132000920082E0E8DF88E1ADDC07C0813C39F45F
:1013300060E070E080E49AE03BD880E00895823C71
:1013400029F460E070E089E192E0F6CF8130D9F4D1
:1013500080919200909193000196853524E2920746
:1013600028F49093930080939200E7CF109293001B
:101370001092920080918700815084DC80918700D8
:101380008111DBCFD5CF81E00895CF93C091870045
:1013900080E078DC83E0D2D88C2FCF9173CC15DC41
:1013A0008823E1F18091B800809381008091B90099
:1013B000809372008091BA00809371008091BB008D
:1013C000809370008091BC0080936F008091BD007D
:1013D00080936E008091BE00809382008091BF0058
:1013E00080936C008091C00080936A008091C1005E
:1013F00080936B008091C200809369008091C3004C
:10140000809368008091C400809375008091C5002E
:1014100080938A008091C60080936D00089580912A
:101420008100E8EBF0E080838091720081838091FD
:101430007100828380917000838380916F00848328
:1014400080916E00858380918200868380916C00FC
:101450008783AAE6B0E08C91808711968C91818772
:1014600080916900828780916800838780917500F0
:10147000848780918A00858780916D008687C7CB9D
:10148000CF93DF93EB01883069F480E0FBDB809140
:101490006D008370EBDBCD2B19F481E08093880025
:1014A000C0E085C0813051F469317105C8F3809383
:1014B000880080916D008370D9DBF2CF813B69F4A5
:1014C00081E090E0B8DEDEDB80918100811102C016
:1014D000689730F361E070E026C0813ED9F381382F
:1014E00071F4C0918200CC2321F08C2F90E0A3DE18
:1014F00022C08091730090E09EDEC4DB58C0813C26
:1015000071F4C0918200CC2319F06C2F70E00BC0F5
:101510006091730070E08BED9AE04AD748C0823B3F
:1015200029F466E970E08BED9AE03EC0823CC9F395
:10153000833919F480E0A6DBB3CF833C29F460E063
:1015400070E08DEE91E030C0833B29F460E070E004
:1015500084E49CE029C0843C39F482E0CCDE60E085
:1015600070E08DE19DE020C0853C39F481E0C3DE70
:1015700060E070E08BED9CE017C0873C79F420912F
:101580006D00822F83708F5F63E0F3D3892F2C7FF0
:10159000292B20936D006ADB42DF82CF8F3C31F430
:1015A00060E070E081E191E003D77ACFC1E08C2F59
:1015B000DF91CF9108951F93CF93DF93CDB7DEB71F
:1015C00028970FB6F894DEBF0FBECDBF9B014091A8
:1015D0007200E091710090918100992339F040915F
:1015E0007000E0916F001091C90001C011E0982FC8
:1015F0009D7F9830C1F4109284008A3019F42091B4
:10160000730030E0842F90E08217930738F48E2F18
:1016100090E02817390710F420937300C9010BDEFE
:1016200067DE81E06FC0813C31F460E070E080E40F
:101630009AE0BED61CC1823C49F48091870086396D
:1016400010F486E97AC08091730077C0833C69F416
:101650009091810081E0911180E080938100DFDE34
:1016600094DE8091870090E065C0843C31F460E0B6
:1016700070E082EB9DE059D6FAC0813BF1F5809194
:101680008100882339F0C90168E170E07ED3892B9D
:1016900009F0EDC02115310571F4809187008E1796
:1016A00010F08FEF05C0809187004817C8F081E0E7
:1016B0008093650015C0273381E0380788F080915A
:1016C00087008E1770F72D36324050F080918700DA
:1016D000481730F05ADE60E070E08DE19DE068D69A
:1016E0002091870060916500772767FD7095812FB5
:1016F00090E02ED3820F911D1DC0813E31F4809168
:101700006500819580936500B2C0823BC1F481E0A1
:101710008093650080918100882339F0C90168E1D8
:1017200070E033D3892B09F0A2C08091870090E04C
:10173000811B910980DD80937300DADD98C0853CC0
:1017400029F4809187008093820007C0853B41F493
:10175000232B09F08EC01092820061DE16DE89C054
:10176000813009F052C02E33310511F480936500A9
:1017700020FF0CC080918700823808F478C09091D7
:1017800087008091CC00981708F471C088E0E6E7E4
:10179000F0E0DE01119601900D928A95E1F79091AB
:1017A000CC0080918700891738F421FD60C08091BA
:1017B000CC009091870004C0809187009091CC006C
:1017C000891B209199002F5F20939900882309F4A9
:1017D0004EC090918700923838F040918700309148
:1017E000CC0091E0341708F090E09F5F8695E9F710
:1017F000E1E0F0E0EC0FFD1FE90FF11D80818217A1
:10180000B0F56CD91092990032C08530B9F480914E
:101810008700823460F18091870090E0821B930BF7
:101820008134910534F08739910528F086E990E0FC
:1018300002C081E490E08093CC0019C08630C9F4E6
:101840009091870080918000981788F4909187008C
:10185000290F311D90E08217930734F021343105B0
:1018600024F421E430E001C09C012093CC0080E00E
:1018700001C081E028960FB6F894DEBF0FBECDBF41
:10188000DF91CF911F9108950F931F93CF93DF9313
:10189000D82F8B01C0916C0081E080938400C3300D
:1018A00011F48D2FB9DBD83021F481E080936400EE
:1018B0007AC0D13C31F460E070E080E49AE078D501
:1018C00072C0D23C49F48C2F90E0019665E070E044
:1018D00070D280936C0059C0D13B51F5C23090F466
:1018E00000FD61C0EC2FF0E0E659FF4F8081909140
:1018F0006400891B883020F08F3FA1F58EEF32C045
:1019000088E030C0C43009F04EC0909169008091E9
:101910006400890F8093690080916900823010F41F
:1019200082E02BC080916900893748F188E725C0A3
:10193000D13E31F48091640081958093640025C08C
:10194000D23B09F581E080936400C23068F400FD69
:101950002AC0EC2FF0E0E659FF4F80818F3F19F14C
:1019600080818F5F80831FC0C430E9F4809169005B
:10197000833028F0809169008150809369008091C4
:10198000690080D910C0D23E11F449DD0CC0D130BD
:1019900061F40E33110511F4D09364008091860038
:1019A000080F0093860080E001C081E0DF91CF91B5
:1019B0001F910F9108950F931F93CF93DF93D82F0B
:1019C0008B01883031F480918400813011F488E0FB
:1019D0005BDF8D2F8079803959F481E0809383001B
:1019E000C0918400C1110AC0809173004BD91FC0FF
:1019F000803831F41092830080E044D9C0E017C0F1
:101A0000D130A1F4C0918300CC2351F080918400A7
:101A10008130A1F7B801DF91CF911F910F9134CFA1
:101A2000033A134058F3D093880001C0C1E08C2FD3
:101A3000DF91CF911F910F910895EF92FF921F9325
:101A4000CF93DF9300D0CDB7DEB7182F7B0180791D
:101A50008039D1F4809172008983809170008A83EB
:101A6000812F8F70823029F49091810081E0892745
:101A700002C080918100E1E0F0E0EC0FFD1FE80F73
:101A8000F11D8081FFD81CC0803819F480E0FAD89D
:101A900009C0183039F480916D0086958695E6D896
:101AA00081E02FC0113061F489E1E816F104E8F01B
:101AB0001093880080916D0086958695D7D815C0C3
:101AC000133CA9F420916D00822F8695869590E0B5
:101AD000019663E070E06DD1982F990F990F2370F4
:101AE000290F20936D00C2D89ADC80E00AC081E003
:101AF000143C39F400DC60E070E080E49AE058D4F3
:101B0000F4CF0F900F90DF91CF911F91FF90EF9046
:101B10000895883029F41092910080E0B3D820C055
:101B2000813081F460919100641738F470E06F5F48
:101B30007F4F8EEB96E0F9D313C0F90109956FDC66
:101B40000DD40EC08A3061F4809191009091FF0015
:101B5000E82FF0E0ED5EFE4F90838F5F8093910061
:101B600080E00895409181004E5F29E331E0D1CFBC
:101B700023E131E042E0CDCF23E331E041E0C9CFC2
:101B8000CF93C0E08C2F7ED885E0D8D48C2F86955B
:101B900079D885E0D3D4C1D6882391F0CF5FC03403
:101BA00089F785E180931301109214013CD337DC4F
:101BB000C6E98C2F67D881E0C1D4C150D1F708C0E5
:101BC000CC2331F08C2F5ED883E0B8D4C150F8CF4D
:101BD000CF9108958091C7009091C8002CE0843483
:101BE000920729F469E170E08BED9AE015C08B5DF6
:101BF0009A4071F480918700823050F09091870074
:101C00002091870026952695892F8695820F70CB87
:101C100060E070E080E49AE0CBC3843019F4DADF4E
:101C200080E0089581E0089582E12CD883E086D495
:101C300080E028D872D68111A3DFB1DB61E070E0CB
:101C400080E49AE072C31F93CF93DF938091C70023
:101C50009091C80021E081319207B1F4CEE1D0E04B
:101C60001C2F185FFE01849180533AD88CE291E0DA
:101C7000A9D421961C13F6CF60E070E080E49AE0CE
:101C8000DF91CF911F9194C32CE08434920761F0CF
:101C9000ECE08B3D9E07D9F4809184008130A9F55A
:101CA00080918300882389F180916C00823059F003
:101CB00030F0843071F5DF91CF911F9192C9DF919F
:101CC000CF911F9106C9DF91CF911F9120C9F1E0FB
:101CD0008D3E9F0721F4DF91CF911F914CC822E0E8
:101CE0008931920721F4DF91CF911F9193CA8F5FC1
:101CF000914059F48091CA009091CB000DD888EEA4
:101D000093E0DF91CF911F915DC4DF91CF911F913F
:101D1000D7C6DF91CF911F910895F894CAD82FD6D6
:101D2000ECD5C0D4789481E009D49DD360E070E014
:101D30008DE09EE0FAD278DF37D480918800882346
:101D400019F080E09FD7A3D67EDF10928500F4CFF4
:101D50000024552704C0080E591F880F991F0097AB
:101D600029F076956795B8F37105B9F7802D952F11
:101D70000895991B79E004C0991F961708F0961BE7
:101D8000881F7A95C9F780950895AA1BBB1B51E15E
:101D900007C0AA1FBB1FA617B70710F0A61BB70BDB
:101DA000881F991F5A95A9F780959095BC01CD0180
:101DB000089597FB072E16F4009406D077FD08D0FF
:101DC000E4DF07FC05D03EF4909581959F4F089580
:101DD000709561957F4F0895E199FECF9FBB8EBBB3
:101DE000E09A99278DB30895262FE199FECF9FBBE6
:101DF0008EBBE09A01970DB2021639F01CBA2DBBCA
:101E00000FB6F894E29AE19A0FBE0895F894FFCFC6
:101E1000060B180101010004024128430302077D5B
:101E2000147D0141012DF8804222110904020500B0
:00000001FF
