:10000000F4C00EC1D7C40CC10BC10AC109C108C1DB
:1000100050C306C105C104C1E0C402C101C13230F0
:1000200031393131303100000000000000000000A3
:1000300000000000000000000000000000000000C0
:1000400000000000000000000000000000000000B0
:1000500000000000000000000000000000000000A0
:100060000000000000000000000000000000000090
:100070000000000000000000000000000000000080
:100080000000000000000000000000000000000070
:10009000000000000003060A0D1115181C21252977
:1000A0002E32373C42474C52585E656B72798087DE
:1000B0008F979FA7B0B9C2CBD5DFE9F4FF0000004E
:1000C0000000000000000000000000000000000030
:1000D0000000000000000000000000000000000020
:1000E0000000000000000000000000000000000010
:1000F00000000000000000000000000000000B0DE8
:1001000010121417191C1F2225282B2F32363A3EA5
:1001100042464B50555A5F646A70767D838A919946
:10012000A1A9B1B9C2CCD5DFE9F4FFFFFFFFFFFF02
:10013000FFFFFFFFFFFFFFFFFFFFFFFFFFFFFFFFCF
:10014000FFFFFFFFFFFFFFFFFFFFFFFFFFFFFFFFBF
:10015000FFFF000101020203030405050607080969
:10016000090A0E0F10111213141516181A1C1E204E
:100170002225272A2D3033363A3E41454A4E5358E0
:100180005D62686E747B82899199A1AAB3BCC6D066
:10019000DBE7F3FFFFFFFFFFFFFFFFFFFFFFFFFFB7
:1001A000FFFFFFFFFFFFFFFFFFFFFFFFFFFFFFFF5F
:1001B000FFFFFFFFFFFFFFFFFFFFFFFFFFFFFFFF4F
:1001C000FFFFFFFFFFFFFFFFFFFFFFFFFFFFFFFF3F
:1001D000FFFFFFFFFFFFFFFFFFFFFFFFFFFFFFFF2F
:1001E000FFFFFFFFFFFFFFFF000011241FBECFE551
:1001F000D2E0DEBFCDBF10E0A0E6B0E0ECE3FFE16F
:1002000002C005900D92A039B107D9F711E0A0E91D
:10021000B0E001C01D92A932B107E1F714DE8CCE27
:10022000EFCE81E0089580912601882369F0209126
:10023000DD003091DE0090919B00291B821B809392
:100240009B0081E08093740080912701882319F03E
:10025000835E8093750080917500873418F086E482
:100260008093750008958091260181118093680024
:1002700008952091910090912601809127012223D9
:1002800081F0911190937000882321F097E9981BD9
:1002900090936F0080912801882361F080936E0015
:1002A0000895911190937200882321F097E9981B8B
:1002B0009093710008958CEF93E00197F1F7089502
:1002C000EF92FF920F931F93CF93DF931F92CDB7BF
:1002D000DEB78C017B01842F4091DA005091DB0066
:1002E000452B39F0E091DA00F091DB002983099584
:1002F00029811093DB000093DA00012B71F0E0916B
:10030000DA00F091DB00B701822F0F90DF91CF91DF
:100310001F910F91FF90EF9009940F90DF91CF9173
:100320001F910F91FF90EF900895DC0190919A003A
:10033000983090F4E92FF0E0EE0FFF1FEA5EFE4FD9
:10034000B183A0839F5F90939A0028E049E0CD019C
:10035000B7DF80919A0008958FEF0895CF93DF93D0
:10036000E0919A00EE2359F0E150E0939A00F0E01A
:10037000EE0FFF1FEA5EFE4FC081D18102C0C0E0D8
:10038000D0E0E0919A00EE2341F0F0E0EE0FFF1F85
:10039000EC5EFE4F8081918102C080E090E02AE017
:1003A00049E060E070E08CDFCE01DF91CF910895ED
:1003B0000F931F93CF93DF9300D0CDB7DEB78C019F
:1003C00069837A83CBDF69817A81C8010F900F90AE
:1003D000DF91CF911F910F91A8CF813C29F460E06C
:1003E00070E08DEA9AE006C0823C39F460E070E08B
:1003F0008EEC99E0DDDF80E0089581E00895813C96
:1004000029F460E070E08DEA9AE006C0823C31F4A5
:1004100060E070E08DEE91E0CBDF07C0843C39F402
:1004200060E070E08EE49EE080DF80E0089581E08F
:100430000895813C29F460E070E08DEA9AE006C0FE
:10044000823C31F460E070E08FEF91E0B1DF07C0F3
:10045000843C39F460E070E082E59EE066DF80E095
:10046000089581E008951092130181E08093950032
:1004700008951092CA001092C90090911301803122
:1004800059F4892F80699F709F3021F48093130164
:1004900081E008958F5FFACF882329F090689093C8
:1004A000130180E00895892F8F7E95FD02C080683A
:1004B000EDCF806CEBCF482FDB0120E030E0C901AD
:1004C00063E070E0DBDCFC01EE51FF4F80818823AC
:1004D00031F02F5F3F4F2031310589F703C0408352
:1004E000B283A183089520E030E0F22FE32F2F5F45
:1004F0003F4FC90163E070E0C1DCDC01AE51BF4F8A
:100500004C918F2F9E2F63E070E0B8DCFC01EE5120
:10051000FF4F408311968D919C9112979283818316
:100520002F30310511F710920F0110921101109226
:100530001001089581E080939500089590E822E0ED
:1005400048EA57E030E0815070F00FB6F89496BD5D
:1005500026BD0FBEFA013197F1F70FB6F89496BD9C
:1005600036BD0FBEF0CF08950F931F93CF93DF9347
:10057000D82F8B01C0919A00C150C7FD0FC0EC2F3E
:10058000EE0FFF0BEA5EFE4F0190F081E02DB80107
:100590008D2F09958111F0CF80E001C081E0DF91BE
:1005A000CF911F910F9108958091E200882349F027
:1005B0006091E3007091E4008091E200D5DF93DF69
:1005C000F3CF08958F929F92AF92BF92CF92DF9216
:1005D000EF92FF920F931F93CF93DF931F92CDB7AC
:1005E000DEB7E090DA00F090DB004C0110E800E0AC
:1005F00088EAC82E87E0D82E22E09AEEA92EBB24E6
:10060000B3948114910451F180919700883038F4AB
:100610000FB6F89416BD26BD0FBEC50106C00FB6B5
:10062000F89416BD06BD0FBEC6010197F1F70FB6CF
:10063000F89416BD06BD0FBE80919500811110C0C3
:100640004091DA005091DB0091E0891A9108E4169C
:10065000F50639F42983A8DF2981D3CF81E001C0D1
:1006600080E00F90DF91CF911F910F91FF90EF905D
:10067000DF90CF90BF90AF909F908F9008951BCF49
:100680009093CA008093C900BC018091130113CFDD
:100690008FE887B908958CE087B9089586B188649A
:1006A00086B908958CE087B986EC86B908953798A5
:1006B00008951F920F920FB60F9211242F933F931C
:1006C0004F935F936F937F938F939F93AF93BF935A
:1006D000EF93FF938091E100882309F409C1109200
:1006E000E10064B175B180919600860F8093960009
:1006F00080919800882311F081E004C08091C800A7
:100700008F5F83708093C8009091C800913039F555
:1007100080E098E5D0DB6B5F7F4F769567956093BF
:100720009C008091C700882321F081508093C700EE
:10073000D7C080919C008D3178F48091C6008430C0
:1007400020F48F5F8093C600CBC060E070E084E04F
:10075000B2DE84E18093C7001092C600C1C093301E
:1007600009F0BCC06351714080919B00680F711DFE
:1007700087FD7A9580917400882379F01092740037
:100780007093DE006093DD00E6EBF0E0619371931F
:1007900020E0E63CF207D1F71FC02091DD00309148
:1007A000DE00261737073CF42091DD003091DE0093
:1007B0002F5F3F4F0DC02091DD003091DE006217AA
:1007C000730754F42091DD003091DE00215031098F
:1007D0003093DE002093DD006091DD007091DE003B
:1007E0002091B5002F5F2093B500277071F4E6EBE0
:1007F000F0E0228133812193319330E0E43CF30730
:10080000C1F77093C5006093C4002091B600309189
:10081000B700AB01421B530B9A0137FF03C02F5F98
:100820003F4F05C02115310511F02150310991507C
:10083000A1F784E0220F331F8A95E1F7CB01820FE5
:10084000931F90931501809314016091750070E0DF
:100850009B01245031098217930714F01092B400C1
:100860008617970714F41092B3002091B200222348
:1008700021F021502093B20035C0681779079CF40D
:100880002091B300283020F42F5F2093B3002AC0BA
:100890001092B3002CEF2093B2009C01261B370B63
:1008A000B90185E019C06550710986179707D4F41E
:1008B0002091B400283020F42F5F2093B40012C0A0
:1008C0001092B4002CEF2093B20020919C002E31A6
:1008D00048F0681B790B86E0EEDD04C0923010F41E
:1008E0008CE001C08FE887B9809198008111DFDE2C
:1008F000FF91EF91BF91AF919F918F917F916F91F8
:100900005F914F913F912F910F900FBE0F901F90CD
:100910001895A89581B5886181BD80E481BD089551
:10092000A89581B5886181BD83E481BD0895A895AE
:1009300084B7877F84BF81B5886181BD11BC08956C
:100940000F931F9361E04DE750E026B323FB22276E
:1009500020F926278091AB009091AC00A091AD00CA
:10096000B091AE00880F991FAA1FBB1F822B8093E6
:10097000AB009093AC00A093AD00B093AE00FA0131
:100980003197F1F78C019D010150110921093109BD
:100990000E3F1F4F2F4F3F4FC0F28093E0001F913B
:1009A0000F9108958BB780628BBF08958BB78F7DB1
:1009B0008BBF08951895CF93C82F882311F080E13D
:1009C00001C080E056DD882331F0C093E00080E074
:1009D00090E0CF9155CECF9108951F920F920FB610
:1009E0000F9211242F933F934F935F936F937F93B5
:1009F0008F939F93AF93BF93CF93DF93EF93FF9327
:100A000081E080939900809198008823F9F0C0914B
:100A1000B000D091B100BE0183E04DDDCE0188274A
:100A200090782196C82BD92BD093B100C093B000F9
:100A3000BBDD8091B0009091B1008F779927892B11
:100A400009F053C08FEF8093AF0004C01092B10043
:100A50001092B000C091E00073DFC813ACDFC0910A
:100A6000C900D091CA00CE010196CC27D078C82BFE
:100A7000D92BD093CA00C093C90080911301807F05
:100A8000803B19F460E070E001C0BE0181E013DD3D
:100A90009091130194FF0DC095FF02C0CE0107C0D5
:100AA0006897A0F090629093130180E090E0E8DDF9
:100AB0000DC0992359F095FD08C0629738F09064F5
:100AC0009093130180E090E0DBDDCDDC8091AF00FE
:100AD0008F5F8093AF00837041F480919800811103
:100AE000E1DDDCDD81E08093E100FF91EF91DF91BA
:100AF000CF91BF91AF919F918F917F916F915F91B6
:100B00004F913F912F910F900FBE0F901F9018950E
:100B100007DFCDDD15DF8111FDCFA5DC43DF80913F
:100B200098008823A1F01092990085B7877E806194
:100B300085BF85B7806285BF889585B78F7D85BF66
:100B4000809199008111EBCF10929800E8CF81E05D
:100B500080937400A7DDDDCE85B7877E85BF85B71E
:100B6000806285BF889585B78F7D85BF0895809306
:100B7000DF0008958091DF0090919700891720F49D
:100B800080919700815007C090919700981718F4B2
:100B9000809197008F5F4FEF480F242F30E0B9010D
:100BA0006D5A7E4FFB01949150919700451728F4A0
:100BB00049B5411102C09F3F59F049B5491718F492
:100BC00099B59F5F05C049B5941718F499B5915030
:100BD00099BDA90143545F4FFA019491E8B5E91713
:100BE00018F498B59F5F05C0E8B59E1718F498B53E
:100BF000915098BD295D3F4FF9019491EBB5E917EC
:100C000018F49BB59F5F05C0EBB59E1718F49BB514
:100C100091509BBD99B5FB01649196130CC098B59A
:100C2000FA014491941307C09BB5F90124919213E2
:100C300002C0809397000895E0916600F0916700EC
:100C40003196FB70F460F0936700E093660080914A
:100C500096008B5A80939600E491809196008E0FB7
:100C600008950F931F93CF93DF93F89480E091E062
:100C700049D9853A89F40BEC10E0C1E0D1E0CE010E
:100C800041D9F80181938F012196C031F1E0DF074E
:100C9000B1F7789481E002C0789480E0DF91CF9141
:100CA0001F910F9108950F931F93CF93DF93F894A3
:100CB0000BEC10E0C1E0D1E0F80161918F01CE01B1
:100CC00029D92196C031F1E0DF07B1F765EA80E06C
:100CD00091E020D97894DF91CF911F910F910895E1
:100CE00080919700883010F492E005C0803110F4B4
:100CF00091E001C090E080E80FB6F89486BD96BD03
:100D00000FBE0895882321F0813029F4BA9804C0D9
:100D1000BA98C2980895BA9AC29A0895CF93C82FE4
:100D2000809397008093DF0080919800811101C02B
:100D3000E9DFC11104C019BC18BC1BBC12C0C150F2
:100D40008C2F90E0FC01ED5AFE4FE491E9BDFC01CF
:100D5000E354FF4FE491E8BDFC01E95DFF4FE491EE
:100D6000EBBDCF91BDCF0F931F93CF93C82F882397
:100D700011F008EC02C008E0C1E010E089E1CEDF2C
:100D8000C80120DC80E0CADF8CE291E01BDCC150AE
:100D9000A9F784EF91E0CF911F910F9113CCCF93DE
:100DA000DF93C82F843638F08CE98C0F843628F016
:100DB000C85C82E004C080E002C0C82F81E0D0E0BF
:100DC000CA3018F0DF5FCA50FBCF882381F0CBDF39
:100DD000882381F08D2FC7DF882361F08C2FC3DF3C
:100DE000882341F088EE93E0DF91CF91EBCBD111D6
:100DF000F1CFF4CF80E0DF91CF91089580919C00F6
:100E0000CECFCF93DF93883059F41092A100609336
:100E1000A00010929F0010929E0010929D0081C031
:100E2000813009F068C090919F00892F8D7F81F4F7
:100E300020919D0030919E002F31310538F42F5FB5
:100E40003F4F30939E0020939D006EC09F5F25C052
:100E5000913051F58091A0008823F1F0C0919D0060
:100E6000D0919E009E012F7133272A30310511F455
:100E700085E204C02431310519F480E04FDF06C05B
:100E80002F31310519F481508093A0002196D09321
:100E90009E00C0939D0045C092E090939F001092E9
:100EA0009E0010929D0040C09330E9F4C0919D00D7
:100EB000D0919E002196D0939E00C0939D00CE01BC
:100EC00083709927009711F489E103C0029711F408
:100ED00082E124DFCB3BD10520F180E01FDF84E0FD
:100EE00080939F001EC09430E1F48091A100809314
:100EF000120134DA16C08138B1F4B5DA80919F005E
:100F0000833079F48091A1008F5F8093A1001092CB
:100F10009E0010929D008BE401DF84E00FDB80E0F7
:100F2000FDDE80E001C081E0DF91CF910895982F30
:100F3000880F97FD80950895B89A81E083BF91EA64
:100F40009ABDB99ABC9A80BF80E68CBD8FEF8DBDEB
:100F500088E088BB85BB0895CF93DF93D82FE82F17
:100F6000F0E0E659FF4FC0818EE6D8DED11107C010
:100F7000CA3210F4A0D907C081E090E003C08C2FE2
:100F8000869590E01FDB80E0C9DE8C2F90E0DF913A
:100F9000CF9118CBEF92FF920F931F93CF93DF93D4
:100FA0004BDE8F73E82EF12C47DE67E078D701E047
:100FB00010E0E80102C0CC0FDD1F9A95E2F73CDE9D
:100FC00065E06DD702C0000F111F9A95E2F7C00FC0
:100FD000D11F32DE90E0BE0182D7C80FD91FC739BA
:100FE000D10514F0C6E9D0E08C2F98DEC701EADA0B
:100FF0009E0143E0359527954A95E1F72115310586
:1010000009F421E0022F10E0C701DCDAC01BD10B8C
:10101000D7FF02C0C0E0D0E08C2F80DE0DDE8370F1
:1010200031F4C701CFDACE019595879577DEC230CE
:10103000D10554F701DE6DE032D7C1E0D0E002C047
:10104000CC0FDD1F9A95E2F7F7DD90E0BE0133D7B4
:10105000C80FD91F80E062DECE01DF91CF911F91D2
:101060000F91FF90EF90AECACF93DF93C0916900CC
:10107000CC0FC73908F0C6E9D4E08C2F4FDE85E0ED
:1010800090E0A0DA8091690049DE81E490E09ADA8C
:10109000D15099F780ED92E0DF91CF9193CAAF9252
:1010A000BF92CF92DF92EF92FF920F931F93CF9355
:1010B000DF93EB01883021F41092A90081E028C071
:1010C000823C19F41092A90042C0813BE1F4809166
:1010D0006200CD2B49F48E3610F09FEF03C08230B2
:1010E00018F491E090936300C0916300C80F21F45D
:1010F00081E080936200C5C0CF3618F4C0936200CF
:1011000026C08EE612C0813E31F480916300819545
:10111000809363001CC0823B59F481E0809363009C
:1011200080916200823098F08150809362000FC0FD
:10113000833C79F48091A900843E48F4855E8093D5
:10114000A90080919700805EE9DD82E0F7D9C0E0D8
:1011500098C0813009F094C06E33710511F480930A
:1011600063002091A900FE01FF70213071F46091AD
:10117000620070E0675E7F4FCF0134E096958795FF
:101180003A95E1F77BD6C92E01C0C12CEF3FFF4055
:1011900061F4222351F021502093A900211105C0B0
:1011A00060E070E08DEA9AE003D9D090A8008D2D20
:1011B000BEDEA82EE090A7008E2DB9DEB82E0091DD
:1011C0006100F090A6008F2DB2DE382F10916000E4
:1011D000209162002C198A2D90E067E070E04ED6D5
:1011E000290F602F70E08B2D90E048D6290F612FDA
:1011F00070E0832F90E042D6822F890F87FD80E038
:101200008DDDC0FD05C018DD8170D80ED092A8001C
:101210008091A500E80EE092A7000EDD65E23FD6C2
:10122000F90EF092A60008DD8F7329F405DD6DE05C
:1012300036D69093A500002331F0FEDC8F7319F4AD
:10124000015000936100F8DC811107C0F5DC6BE010
:1012500026D6909361001092A700133030F0ECDC9A
:101260008F7119F4115010936000E6DCC82FCF770E
:1012700009F06DCFE1DC66E012D69093600001C00A
:10128000C1E08C2FDF91CF911F910F91FF90EF90D4
:10129000DF90CF90BF90AF900895809173003EDDB6
:1012A00084E690E08FD980E039DD8091680090E09D
:1012B00068EE73E0E3D58456910984C90F931F93B8
:1012C000CF93DF93EC018091720090917100209197
:1012D0009100222321F08091700090916F00282FBF
:1012E00030E0C217D3070CF441C0292F30E02C178F
:1012F0003D07DCF180919100811102C08C2F36C036
:10130000E0916F0080917000E81B60916E00F0E04A
:1013100070E061507109CF01E2D56093DC009091DB
:1013200070006695262F30E010E080916E0018174F
:10133000E0F40091700040916E00812F90E0BF01B9
:101340009DD5642F70E061507109B5D5902F960F2F
:10135000AE01491B510957FF03C0519541955109F1
:101360002417350714F41F5FE0CF892FDF91CF9149
:101370001F910F91089580939000D0CCCF93C82FE8
:10138000CC2351F085E2CADC82E0D8D880E0C6DC0C
:1013900089E1D4D8C150F4CFCF910895883049F471
:1013A0001092A4001092A30082E0E8DF88E1B6DC8E
:1013B00007C0813C39F460E070E08DEA9AE0F8D72C
:1013C00080E00895823C29F460E070E089E192E0D9
:1013D000F6CF8130D9F48091A3009091A4000196BA
:1013E000853524E2920728F49093A4008093A3000B
:1013F000E7CF1092A4001092A30080919700815033
:101400008DDC809197008111DBCFD5CF81E00895ED
:10141000CF93C091970080E081DC83E08FD88C2F40
:10142000CF917CCCCF93DF93CDB7DEB760970FB66B
:10143000F894DEBF0FBECDBF90919C009D3110F49B
:1014400080E011C090E1E6E7F0E0DE011196019046
:101450000D929A95E1F78F70E1E0F0E0EC0FFD1F3F
:10146000E80FF11D808160960FB6F894DEBF0FBEC5
:10147000CDBFDF91CF9146CCF4DB8823E1F18091A1
:10148000CB00809391008091CC008093720080917A
:10149000CD00809371008091CE0080937000809188
:1014A000CF0080936F008091D00080936E00809178
:1014B000D100809392008091D20080936C00809143
:1014C000D30080936A008091D40080936B00809158
:1014D000D500809369008091D60080936800809148
:1014E000D700809375008091D80080939B008091F5
:1014F000D90080936D00089580919100EBECF0E0AD
:1015000080838091720081838091710082838091B9
:101510007000838380916F00848380916E00858347
:1015200080919200868380916C008783AAE6B0E068
:101530008C91808711968C91818780916900828738
:1015400080916800838780917500848780919B00DB
:10155000858780916D008687A6CBCF93DF93EB01C3
:10156000883069F480E0DADB80916D008370CADB3B
:10157000CD2B19F481E080939800C0E094C08130B5
:1015800051F469317105C8F38093980080916D0022
:101590008370B8DBF2CF833041F480916D008370AB
:1015A000833059F7862F3EDFE8CF813B69F481E035
:1015B00090E084DEB3DB80919100811102C06897D6
:1015C000E0F261E070E026C0813ED9F3813871F429
:1015D000C0919200CC2321F08C2F90E06FDE22C0CE
:1015E0008091730090E06ADE99DB5DC0813C71F40C
:1015F000C0919200CC2319F06C2F70E00BC0609169
:10160000730070E087E59BE0D3D64DC0823B29F4A0
:1016100066E970E087E59BE043C0823CC9F383390B
:1016200019F480E07BDBA9CF833C29F460E070E013
:101630008DEE91E035C0833B29F460E070E08DECE5
:101640009CE02EC0843C39F482E098DE60E070E0DB
:1016500086EA9DE025C0853C39F481E08FDE60E0BC
:1016600070E084E69DE01CC0873C61F490916D00C1
:1016700081E0890F83709C7F982B90936D0042DBF3
:101680003BDF7BCF8A3C31F460E070E08EE49EE08B
:101690004CD673CF8F3C31F460E070E081E191E093
:1016A00087D66BCFC1E08C2FDF91CF9108950F9338
:1016B0001F93CF93DF93CDB7DEB728970FB6F8947B
:1016C000DEBF0FBECDBF9B01409172001091710033
:1016D00090919100992339F04091700010916F0022
:1016E0000091DC0001C001E0982F9D7F9830C1F48B
:1016F000109294008A3019F42091730030E0842F06
:1017000090E08217930738F4812F90E0281739076B
:1017100010F420937300C901D1DD2DDE81E07AC081
:10172000813C31F460E070E08DEA9AE041D627C157
:10173000823C39F480919700863908F063C086E9CD
:1017400084C0833C69F49091910081E0911180E024
:1017500080939100D1DE5CDE8091970090E072C0B2
:10176000843C31F460E070E088E49EE0DED507C19F
:10177000813B09F04AC080919100882339F0C9016A
:1017800068E170E098D3892B09F0F9C02115310583
:1017900071F480919700811710F08FEF05C0809150
:1017A00097004817C8F081E08093650015C0273383
:1017B00081E0380788F080919700811770F72D3607
:1017C000324050F080919700481730F021DE60E001
:1017D00070E086EA9DE0ECD520919700609165006D
:1017E000772767FD7095802F90E048D3820F911D79
:1017F00065DD8093730090919700891719F081132C
:1018000001C006DE8091730020C0813E31F48091DA
:101810006500819580936500B2C0823BC1F481E090
:101820008093650080919100882339F0C90168E1B7
:1018300070E041D3892B09F0A2C08091970090E01D
:10184000801B91093BDD8093730095DD98C0853C3A
:1018500029F4809197008093920007C0853B41F462
:10186000232B09F08EC01092920046DED1DD89C094
:10187000813009F052C02E33310511F48093650098
:1018800020FF0CC080919700823808F478C09091B6
:1018900097008091DF00981708F471C088E0E6E8AF
:1018A000F0E0DE01119601900D928A95E1F790919A
:1018B000DF0080919700891738F421FD60C0809186
:1018C000DF009091970004C0809197009091DF0015
:1018D000891B2091AA002F5F2093AA00882309F476
:1018E0004EC090919700923838F040919700309117
:1018F000DF0091E0341708F090E09F5F8695E9F7EC
:10190000E1E0F0E0EC0FFD1FE90FF11D808182178F
:10191000B0F530D91092AA0032C08530B9F4809168
:101920009700823460F18091970090E0821B930BC6
:101930008134910534F08739910528F086E990E0EB
:1019400002C081E490E08093DF0019C08630C9F4C2
:101950009091970080919000981788F4909197004B
:10196000290F311D90E08217930734F0213431059F
:1019700024F421E430E001C09C012093DF0080E0EA
:1019800001C081E028960FB6F894DEBF0FBECDBF30
:10199000DF91CF911F910F9108950F931F93CF93D4
:1019A000DF93D82F8B01C0916C0081E0809394006D
:1019B000C33011F48D2F73DBD83021F481E0809394
:1019C00064007AC0D13C31F460E070E08DEA9AE0C6
:1019D000EFD472C0D23C49F48C2F90E0019665E0C0
:1019E00070E07DD280936C0059C0D13B51F5C2307C
:1019F00090F400FD61C0EC2FF0E0E659FF4F8081CC
:101A000090916400891B883020F08F3FA1F58EEF04
:101A100032C088E030C0C43009F04EC090916900F7
:101A200080916400890F8093690080916900823001
:101A300010F482E02BC080916900893748F188E773
:101A400025C0D13E31F4809164008195809364007B
:101A500025C0D23B09F581E080936400C23068F470
:101A600000FD2AC0EC2FF0E0E659FF4F80818F3F48
:101A700019F180818F5F80831FC0C430E9F48091A9
:101A80006900833028F0809169008150809369005B
:101A90008091690043D910C0D23E11F42DDD0CC0F5
:101AA000D13061F40E33110511F4D09364008091AC
:101AB0009600080F0093960080E001C081E0DF915E
:101AC000CF911F910F9108950F931F93CF93DF93A1
:101AD000D82F8B01883031F480919400813011F43B
:101AE00088E05BDF8D2F8079803959F481E0809325
:101AF0009300C0919400C1110AC0809173000ED967
:101B00001FC0803831F41092930080E007D9C0E004
:101B100017C0D130A1F4C0919300CC2351F0809133
:101B200094008130A1F7B801DF91CF911F910F91FF
:101B300034CF033A134058F3D093980001C0C1E06A
:101B40008C2FDF91CF911F910F910895EF92FF920B
:101B50001F93CF93DF9300D0CDB7DEB7182F7B0153
:101B60008079803901F580917200898380917000BD
:101B70008A83812F8F70823059F48091910091E097
:101B80009827E1E0F0E0EC0FFD1FE90FF11D08C020
:101B900080919100E1E0F0E0EC0FFD1FE80FF11DF6
:101BA0008081BCD81CC0803819F480E0B7D809C047
:101BB000183039F480916D0086958695A3D881E020
:101BC00036C0113061F489E1E816F10488F0109311
:101BD000980080916D008695869594D809C0133041
:101BE00049F490916D009C709C3011F48E2D1ADC9C
:101BF00080E01DC0133C89F490916D00892F86957B
:101C000086958F5F8370282F220F220F9370920F7B
:101C100090936D0077D870DCEBCF81E0143C39F401
:101C2000ADDB60E070E08DEA9AE0C2D3E1CF0F90C7
:101C30000F90DF91CF911F91FF90EF900895883022
:101C400029F41092A20080E069D820C0813081F48C
:101C50006091A200641738F470E06F5F7F4F81E0FD
:101C600097E063D313C0F901099546DC77D30EC022
:101C70008A3061F48091A20090911201E82FF0E087
:101C8000EA5DFE4F90838F5F8093A20080E008950D
:101C9000409191004E5F29E331E0D1CF23E131E063
:101CA00042E0CDCF23E331E041E0C9CFCF93C0E0A4
:101CB0008C2F34D885E042D48C2F86952FD885E0A0
:101CC0003DD43ED6882391F0CF5FC03489F785E1BB
:101CD0008093260110922701A6D20EDCC6E98C2F34
:101CE0001DD881E02BD4C150D1F708C0CC2331F0EE
:101CF0008C2F14D883E022D4C150F8CFCF9108950F
:101D00008091DA009091DB002CE08D3C920729F461
:101D100069E170E087E59BE015C087559B4071F451
:101D200080919700823050F0909197002091970019
:101D300026952695892F8695820F1DCB60E070E051
:101D40008DEA9AE035C3843019F4DADF80E0089533
:101D500081E0089582E1E2D783E0F0D380E0DED72E
:101D6000EFD58111A3DF88DB61E070E08DEA9AE0B6
:101D7000DCC21F93CF93DF938091DA009091DB0058
:101D800021E081319207B1F4CEE1D0E01C2F185F41
:101D9000FE0184918053E7D78CE291E013D4219621
:101DA0001C13F6CF60E070E08DEA9AE0DF91CF91EE
:101DB0001F91FEC22CE08D3C920761F0EDE084366D
:101DC0009E07D9F4809194008130A9F58091930009
:101DD000882389F180916C00823059F030F0843092
:101DE00071F5DF91CF911F913FC9DF91CF911F9185
:101DF000B3C8DF91CF911F91CDC8F1E08D3E9F0711
:101E000021F4DF91CF911F91F9C722E08931920728
:101E100021F4DF91CF911F9140CA8F5F914059F417
:101E20008091DD009091DE00BAD788EE93E0DF91DB
:101E3000CF911F91C7C3DF91CF911F918DC6DF91C5
:101E4000CF911F910895F89477D8ACD562D52AD454
:101E5000789481E073D307D360E070E083EA9EE07A
:101E600064D278DFA1D380919800882319F080E0B4
:101E700055D74ED67EDF10929500F4CF002455271B
:101E800004C0080E591F880F991F009729F07695F6
:101E90006795B8F37105B9F7802D952F0895991BB3
:101EA00079E004C0991F961708F0961B881F7A9551
:101EB000C9F780950895AA1BBB1B51E107C0AA1F53
:101EC000BB1FA617B70710F0A61BB70B881F991FDB
:101ED0005A95A9F780959095BC01CD01089597FB7F
:101EE000072E16F4009406D077FD08D0E4DF07FC37
:101EF00005D03EF4909581959F4F0895709561951A
:101F00007F4F0895E199FECF9FBB8EBBE09A992742
:101F10008DB30895262FE199FECF9FBB8EBBE09A2B
:101F200001970DB2021639F01CBA2DBB0FB6F8940A
:0C1F3000E29AE19A0FBE0895F894FFCFEA
:101F3C00060B18010101000402412843030D07821E
:101F4C000F820141012D0001020100000000000080
:101F5C00010000000000F880422211090402050073
:00000001FF
