:10000000A9C0C3C079C4C1C0C0C0BFC0BEC0BDC04C
:1000100005C3BBC0BAC0B9C082C4B7C0B6C0323015
:1000200031393131303100000000000000000000A3
:1000300000000000000000000000000000000000C0
:1000400000000000000000000000000000000000B0
:1000500000000000000000000000000000000000A0
:100060000000000000000000000000000000000090
:100070000000000000000000000000000000000080
:1000800000000000020507090C0E101316181B1EB5
:100090002124272A2D3034373A3E4245494D5155C7
:1000A0005A5E62676B70757A7F84898F949AA0A676
:1000B000ACB2B8BFC5CCD3DAE1E8F0F7FF0101027A
:1000C000020303040405050606070808090A0A0BCB
:1000D0000C0D0E0F0F10111214151617181A1B1CE9
:1000E0001E1F2122242627292B2D2F313335383A64
:1000F0003C3F4144474A4D505356595D6064676BDD
:100100006F73777C8084898E93989DA3A8AEB4BAD0
:10011000C0C6CCD3DAE1E8F0F7FFFFFFFFFFFFFF37
:10012000FFFFFFFFFFFFFFFFFFFFFFFFFFFFFFFFDF
:10013000FFFFFFFFFFFFFFFFFFFFFFFFFFFFFFFFCF
:10014000FFFFFFFFFFFFFFFFFFFFFFFFFFFFFFFFBF
:10015000FFFF000011241FBECFE5D2E0DEBFCDBF00
:1001600010E0A0E6B0E0E8E8FCE102C005900D92E6
:10017000A038B107D9F711E0A0E8B0E001C01D92A6
:10018000A531B107E1F705DD7DCD3ACF81E00895D6
:1001900080911201882369F02091C9003091CA0032
:1001A00090918A00291B821B80938A0081E08093B2
:1001B000730080911301882319F0835E809374008B
:1001C00080917400873418F086E480937400089559
:1001D000809112018111809368000895209181001F
:1001E0009091120180911301222381F0911190933B
:1001F0006F00882321F097E9981B90936E008091FF
:100200001401882361F080936D00089591119093FB
:100210007100882321F097E9981B9093700008954E
:100220008CEF93E00197F1F70895EF92FF920F930F
:100230001F93CF93DF931F92CDB7DEB78C017B0165
:10024000842F4091C6005091C700452B39F0E091B2
:10025000C600F091C7002983099529811093C70032
:100260000093C600012B71F0E091C600F091C70029
:10027000B701822F0F90DF91CF911F910F91FF90C7
:10028000EF9009940F90DF91CF911F910F91FF9004
:10029000EF900895DC0190918900983090F4E92F57
:1002A000F0E0EE0FFF1FEE5FFE4FB183A0839F5F74
:1002B0009093890028E049E0CD01B7DF8091890063
:1002C00008958FEF0895CF93DF93E0918900EE2397
:1002D00059F0E150E0938900F0E0EE0FFF1FEE5F70
:1002E000FE4FC081D18102C0C0E0D0E0E091890022
:1002F000EE2341F0F0E0EE0FFF1FE050FF4F808152
:10030000918102C080E090E02AE049E060E070E086
:100310008CDFCE01DF91CF9108950F931F93CF9380
:10032000DF9300D0CDB7DEB78C0169837A83CBDF52
:1003300069817A81C8010F900F90DF91CF911F9151
:100340000F91A8CF813C29F460E070E080E099E053
:1003500006C0823C39F460E070E088E899E0DDDFB7
:1003600080E0089581E00895813C29F460E070E028
:1003700080E099E006C0823C31F460E070E082EAFF
:1003800091E0CBDF07C0843C39F460E070E084EF9B
:100390009CE080DF80E0089581E00895813C29F4AD
:1003A00060E070E080E099E006C0823C31F460E0FB
:1003B00070E084EB91E0B1DF07C0843C39F460E089
:1003C00070E088EF9CE066DF80E0089581E00895AA
:1003D0001092FF0081E08093850008951092B7008D
:1003E0001092B6009091FF00803159F4892F8069F6
:1003F0009F709F3021F48093FF0081E008958F5F0C
:10040000FACF882329F090689093FF0080E0089548
:10041000892F8F7E95FD02C08068EDCF806CEBCF79
:10042000482FDB0120E030E0C90163E070E0CCDB65
:10043000FC01E253FF4F8081882331F02F5F3F4F53
:100440002031310589F703C04083B283A183089529
:1004500020E030E0F22FE32F2F5F3F4FC90163E030
:1004600070E0B2DBDC01A253BF4F4C918F2F9E2F67
:1004700063E070E0A9DBFC01E253FF4F408311967B
:100480008D919C911297928381832F30310511F7C2
:100490001092FB001092FD001092FC00089581E084
:1004A00080938500089590E822E048EA57E030E024
:1004B000815070F00FB6F89496BD26BD0FBEFA01BC
:1004C0003197F1F70FB6F89496BD36BD0FBEF0CF59
:1004D00008950F931F93CF93DF93D82F8B01C09173
:1004E0008900C150C7FD0FC0EC2FEE0FFF0BEE5F70
:1004F000FE4F0190F081E02DB8018D2F09958111FB
:10050000F0CF80E001C081E0DF91CF911F910F918A
:1005100008958091CE00882349F06091CF007091BA
:10052000D0008091CE00D5DF93DFF3CF08958F9276
:100530009F92AF92BF92CF92DF92EF92FF920F9372
:100540001F93CF93DF931F92CDB7DEB7E090C60025
:10055000F090C7004C0110E800E088EAC82E87E060
:10056000D82E22E09AEEA92EBB24B39481149104D4
:1005700051F180918700873038F40FB6F89416BD9A
:1005800026BD0FBEC50106C00FB6F89416BD06BD48
:100590000FBEC6010197F1F70FB6F89416BD06BD60
:1005A0000FBE80918500811110C04091C60050910E
:1005B000C70091E0891A9108E416F50639F42983F9
:1005C000A8DF2981D3CF81E001C080E00F90DF91C7
:1005D000CF911F910F91FF90EF90DF90CF90BF9040
:1005E000AF909F908F9008951BCF9093B70080930A
:1005F000B600BC018091FF0013CF8FE887B9089542
:100600008CE087B9089586B1886486B908958CE036
:1006100087B986EC86B90895379808951F920F928E
:100620000FB60F9211242F933F934F935F936F93C5
:100630007F938F939F93AF93BF93EF93FF9380919B
:10064000CD00882309F4FDC01092CD0064B175B1CE
:1006500080918600860F809386009091B5009F5F01
:1006600093709093B500913039F580E098E5C9DA40
:10067000695F7F4F7695679560938B008091B4009A
:10068000882321F081508093B400D7C080918B00E3
:100690008D3178F48091B300843020F48F5F8093A3
:1006A000B300CBC060E070E084E0BADE84E1809308
:1006B000B4001092B300C1C0933009F0BCC06351C4
:1006C000714080918A00680F711D87FD7A95809135
:1006D0007300882379F0109273007093CA006093BE
:1006E000C900E3EAF0E06193719320E0E33BF20795
:1006F000D1F71FC02091C9003091CA0026173707D3
:100700003CF42091C9003091CA002F5F3F4F0DC0CB
:100710002091C9003091CA006217730754F42091E8
:10072000C9003091CA00215031093093CA0020938A
:10073000C9006091C9007091CA002091A2002F5F8A
:100740002093A200277071F4E3EAF0E02281338164
:100750002193319330E0E13BF307C1F77093B2008E
:100760006093B1002091A3003091A400AB01421B23
:10077000530B9A0137FF03C02F5F3F4F05C0211570
:10078000310511F0215031099150A1F784E0220F79
:10079000331F8A95E1F7CB01820F931F90930101DC
:1007A000809300016091740070E09B012450310936
:1007B0008217930714F01092A1008617970714F47C
:1007C0001092A00020919F00222321F0215020931D
:1007D0009F0035C0681779079CF42091A00028304D
:1007E00020F42F5F2093A0002AC01092A0002CE0DC
:1007F00020939F009C01261B370BB90185E019C08F
:100800006550710986179707D4F42091A10028300C
:1008100020F42F5F2093A10012C01092A1002CE0C1
:1008200020939F0020918B002E3148F0681B790B9C
:1008300086E0F6DD04C0923011F08CE001C08FE854
:1008400087B9FF91EF91BF91AF919F918F917F9168
:100850006F915F914F913F912F910F900FBE0F902D
:100860001F901895A89581B5886181BD80E481BDF0
:100870000895A89584B7877F84BF81B5886181BDBD
:1008800011BC08950F931F9361E04DE750E026B32C
:1008900023FB222720F9262780919A0090919B0024
:1008A000A0919C00B0919D00880F991FAA1FBB1FAB
:1008B000822B80939A0090939B00A0939C00B0930E
:1008C0009D00FA013197F1F78C019D01015011094A
:1008D000210931090E3F1F4F2F4F3F4FC0F2809328
:1008E000CC001F910F9108958BB780628BBF089544
:1008F0008BB78F7D8BBF08951895CF93C82F882312
:1009000011F080E101C080E069DD882331F0C093FF
:10091000CC0080E090E0CF9168CECF9108951F92F7
:100920000F920FB60F9211242F933F934F935F9323
:100930006F937F938F939F93AF93BF93CF93DF93E7
:10094000EF93FF93C091CC009DDFC813D6DFC09119
:10095000B600D091B700CE010196CC27D078C82B35
:10096000D92BD093B700C093B6008091FF00807F51
:10097000803B19F460E070E001C0BE0181E050DD11
:100980009091FF0094FF0DC095FF02C0CE0107C0FB
:100990006897A0F090629093FF0080E090E025DEE1
:1009A0000DC0992359F095FD08C0629738F0906406
:1009B0009093FF0080E090E018DE0ADD80919E00B9
:1009C0008F5F80939E00837021F41DDE81E0809311
:1009D000CD00FF91EF91DF91CF91BF91AF919F91AA
:1009E0008F917F916F915F914F913F912F910F90D8
:1009F0000FBE0F901F9018953CDF0EDE43DF811174
:100A0000FDCFE6DC71DF1092880085B7877E8061BC
:100A100085BF85B7806285BF889585B78F7D85BF87
:100A200081E080937300F3DD1DCF85B7877E85BF9E
:100A300085B7806285BF889585B78F7D85BF08950E
:100A40008093CB0008958091CB0090918700891707
:100A500020F480918700815007C0909187009817FB
:100A600018F4809187008F5F6FEF680F262F30E0BA
:100A7000A90143545F4FFA01949170918700671761
:100A800028F469B5611102C09F3F59F069B5691733
:100A900018F499B59F5F05C069B5961718F499B514
:100AA000915099BD295D3F4FF901949168B569173F
:100AB00018F498B59F5F05C068B5961718F498B5F7
:100AC000915098BD99B5FA014491941307C098B517
:100AD000F9012491921302C0809387000895E09158
:100AE0006600F09167003196FB70F460F093670048
:100AF000E0936600809186008B5A80938600E49193
:100B0000809186008E0F08950F931F93CF93DF93EC
:100B1000F89480E091E09CD8853A89F408EB10E0E5
:100B2000C1E0D1E0CE0194D8F80181938F012196E4
:100B3000CF30F1E0DF07B1F7789481E002C078941C
:100B400080E0DF91CF911F910F9108950F931F9334
:100B5000CF93DF93F89408EB10E0C1E0D1E0F80107
:100B600061918F01CE017CD82196CF30F1E0DF0773
:100B7000B1F765EA80E091E073D87894DF91CF9186
:100B80001F910F91089580918700873010F492E0B3
:100B900005C08E3010F491E001C090E080E80FB6FF
:100BA000F89486BD96BD0FBE08958093870080930C
:100BB000CB00811103C019BC18BC0CC0815090E05F
:100BC000FC01E354FF4FE491E9BDFC01E95DFF4FF7
:100BD000849188BDD8CFCF93DF93883059F4109299
:100BE000900060938F0010928E0010928D001092F2
:100BF0008C0081C0813009F068C090918E00892FEF
:100C00008D7F81F420918C0030918D002F31310542
:100C100038F42F5F3F4F30938D0020938C006EC0CF
:100C20009F5F25C0913051F580918F008823F1F0AE
:100C3000C0918C00D0918D009E012F7133272A30F6
:100C4000310511F485E204C02431310519F480E046
:100C5000ACDF06C02F31310519F4815080938F002D
:100C60002196D0938D00C0938C0045C092E0909364
:100C70008E0010928D0010928C0040C09330E9F4E9
:100C8000C0918C00D0918D002196D0938D00C0939F
:100C90008C00CE0183709927009711F489E103C07D
:100CA000029711F482E181DFCB3BD10520F180E096
:100CB0007CDF84E080938E001EC09430E1F480914C
:100CC00090008093FE00FFDA16C08138B1F480DB1B
:100CD00080918E00833079F4809190008F5F8093B3
:100CE000900010928D0010928C008BE45EDF84E007
:100CF000DADB80E05ADF80E001C081E0DF91CF9154
:100D000008950F931F93CF93C82F882311F008ECF9
:100D100002C008E0C1E010E089E147DFC80107DC5C
:100D200080E043DF8CE291E002DCC150A9F784EF60
:100D300091E0CF911F910F91FACBCF93DF93C82F02
:100D4000843638F08CE98C0F843628F0C85C82E059
:100D500004C080E002C0C82F81E0D0E0CA3018F0A3
:100D6000DF5FCA50FBCF882381F0CBDF882381F07F
:100D70008D2FC7DF882361F08C2FC3DF882341F0DC
:100D800088EE93E0DF91CF91D2CBD111F1CFF4CFA8
:100D900080E0DF91CF91089580918B00CECF982F86
:100DA000880F97FD80950895B89A81E083BF81EA06
:100DB0008ABDB99A88E088BB85BB0895CF93DF933D
:100DC000D82FE82FF0E0E659FF4FC08186E9EDDE2D
:100DD000D11107C0CA3210F423DA07C081E090E0D5
:100DE00003C08C2F869590E0A2DB80E0DEDE8C2FA6
:100DF00090E0DF91CF919BCBEF92FF920F931F93E7
:100E0000CF93DF936CDE8F73E82EF12C68DE67E002
:100E1000ECD601E010E0E80102C0CC0FDD1F9A958E
:100E2000E2F75DDE65E0E1D602C0000F111F9A9582
:100E3000E2F7C00FD11F53DE90E0BE01F6D6C80F17
:100E4000D91FC739D10514F0C6E9D0E08C2FADDE2B
:100E5000C7016DDB9E0143E0359527954A95E1F783
:100E60002115310509F421E0022F10E0C7015FDBF5
:100E7000C01BD10BD7FF02C0C0E0D0E08C2F95DEA5
:100E80002EDE837031F4C70152DBCE019595879534
:100E90008CDEC230D10554F722DE6DE0A6D6C1E06B
:100EA000D0E002C0CC0FDD1F9A95E2F718DE90E08B
:100EB000BE01A7D6C80FD91F80E077DECE01DF9133
:100EC000CF911F910F91FF90EF9031CBCF93DF9394
:100ED000C0916900CC0FC73908F0C6E9D4E08C2F67
:100EE00064DE85E090E023DB809169005EDE81E4D2
:100EF00090E01DDBD15099F780ED92E0DF91CF912A
:100F000016CBAF92BF92CF92DF92EF92FF920F93E8
:100F10001F93CF93DF93EB01883021F41092980058
:100F200081E028C0823C19F41092980042C0813BB5
:100F3000E1F480916200CD2B49F48E3610F09FEFE2
:100F400003C0823018F491E090936300C091630075
:100F5000C80F21F481E080936200C5C0CF3618F439
:100F6000C093620026C08EE612C0813E31F48091AB
:100F700063008195809363001CC0823B59F481E03B
:100F80008093630080916200823098F0815080935A
:100F900062000FC0833C79F480919800843E48F44D
:100FA000855E8093980080918700805EFEDD82E000
:100FB0007ADAC0E098C0813009F094C06E337105D0
:100FC00011F48093630020919800FE01FF7021309E
:100FD00071F46091620070E0675E7F4FCF0134E092
:100FE000969587953A95E1F7EFD5C92E01C0C12CAA
:100FF000EF3FFF4061F4222351F0215020939800ED
:10100000211105C060E070E080E099E086D9D090C1
:1010100097008D2DC4DEA82EE09096008E2DBFDEA9
:10102000B82E00916100F09095008F2DB8DE382F1A
:1010300010916000209162002C198A2D90E067E0E9
:1010400070E0C2D5290F602F70E08B2D90E0BCD5E9
:10105000290F612F70E0832F90E0B6D5822F890F82
:1010600087FD80E0A2DDC0FD05C039DD8170D80EAE
:10107000D092970080919400E80EE09296002FDDC8
:1010800065E2B3D5F90EF092950029DD8F7329F44E
:1010900026DD6DE0AAD590939400002331F01FDD8A
:1010A0008F7319F401500093610019DD811107C09D
:1010B00016DD6BE09AD59093610010929600133084
:1010C00030F00DDD8F7119F411501093600007DDC1
:1010D000C82FCF7709F06DCF02DD66E086D59093FB
:1010E000600001C0C1E08C2FDF91CF911F910F9163
:1010F000FF90EF90DF90CF90BF90AF9008958091D8
:10110000720053DD84E690E012DA80E04EDD8091DB
:10111000680090E068EE73E057D58456910907CADD
:101120000F931F93CF93DF93EC0180917100909107
:10113000700020918100222321F080916F00909116
:101140006E00282F30E0C217D3070CF441C0292FBE
:1011500030E02C173D07DCF180918100811102C045
:101160008C2F36C0E0916E0080916F00E81B60917B
:101170006D00F0E070E061507109CF0156D56093C9
:10118000C80090916F006695262F30E010E08091A6
:101190006D001817E0F400916F0040916D00812FF1
:1011A00090E0BF0111D5642F70E06150710929D51D
:1011B000902F960FAE01491B510957FF03C051955F
:1011C000419551092417350714F41F5FE0CF892F8B
:1011D000DF91CF911F910F91089580938000E5CC0E
:1011E000CF93C82FCC2351F085E2DFDC82E05BD9BE
:1011F00080E0DBDC89E157D9C150F4CFCF9108956D
:10120000CF93DF93EB01883049F480E0CEDCCD2B27
:1012100019F481E080938800C0E076C0813021F429
:1012200069317105C8F3F6CF813B69F481E090E044
:1012300077DFBBDC80918100811102C0689760F389
:1012400061E070E026C0813ED9F3813871F4C0912D
:101250008200CC2321F08C2F90E062DF22C08091AD
:10126000720090E05DDFA1DC4FC0813C71F4C09161
:101270008200CC2319F06C2F70E00BC060917200DB
:1012800070E086E79AE049D83FC0823B29F466E9DE
:1012900070E086E79AE035C0823CC9F3833919F4DF
:1012A00080E083DCB9CF833C29F460E070E082EA1F
:1012B00091E027C0833B29F460E070E08CEE9BE076
:1012C00020C0843C39F482E08BDF60E070E082EC87
:1012D00099E017C0853C39F481E082DF60E070E07E
:1012E00083E89CE00EC08A3C31F460E070E084EF5B
:1012F0009CE0D0D791CF8F3C31F460E070E086EC79
:1013000090E00BD889CFC1E08C2FDF91CF91089569
:10131000883049F4109293001092920082E060DFCE
:1013200088E143DC07C0813C39F460E070E080E094
:1013300099E0F3D780E00895823C29F460E070E002
:101340008EEC91E0F6CF8130D9F4809192009091AB
:1013500093000196853524E2920728F49093930038
:1013600080939200E7CF10929300109292008091A8
:10137000870081501ADC809187008111DBCFD5CFA7
:1013800081E008951F93CF93DF9300D0CDB7DEB7F0
:10139000182F80798039C9F48091710089838091F8
:1013A0006F008A83812F8F70823029F490918100A1
:1013B00081E0892702C080918100E1E0F0E0EC0F3C
:1013C000FD1FE80FF11D808103C0803819F480E013
:1013D000ECDB08C0113031F46931710560F0109315
:1013E000880009C081E0143C39F4FADE60E070E066
:1013F00080E099E092D780E00F900F90DF91CF913D
:101400001F910895CF93C091870080E0CEDB83E0E9
:101410004AD88C2FCF91C9CB77DB8823C1F180913B
:10142000B800809381008091B90080937100809111
:10143000BA00809370008091BB0080936F00809110
:10144000BC0080936E008091BD0080936D00809100
:10145000BE00809382008091BF0080936C008091D9
:10146000C00080936A008091C10080936B008091DE
:10147000C200809369008091C300809368008091CE
:10148000C400809374008091C50080938A00089501
:1014900080918100E8EBF0E080838091710081838E
:1014A00080917000828380916F00838380916E00B1
:1014B000848380916D0085838091820086838091F2
:1014C0006C008783AAE6B0E08C91808711968C919E
:1014D00081878091690082878091680083878091ED
:1014E0007400848780918A00858730CB0F931F9387
:1014F000CF93DF93CDB7DEB728970FB6F894DEBF52
:101500000FBECDBF9B014091710010917000909172
:101510008100992339F040916F0010916E00009185
:10152000C80001C001E0982F9D7F9830C1F410924F
:1015300084008A3019F42091720030E0842F90E00A
:101540008217930738F4812F90E02817390710F499
:1015500020937200C901E4DD40DE81E07AC0813C65
:1015600031F460E070E080E099E0D7D627C1823C9A
:1015700039F480918700863908F063C086E984C019
:10158000833C69F49091810081E0911180E0809327
:1015900081007EDF37DF8091870090E072C0843C5D
:1015A00031F460E070E08EEE9CE074D607C1813BC0
:1015B00009F04AC080918100882339F0C90168E1AF
:1015C00070E01FD3892B09F0F9C02115310571F4A2
:1015D00080918700811710F08FEF05C08091870000
:1015E0004817C8F081E08093650015C0273381E07B
:1015F000380788F080918700811770F72D363240C8
:1016000050F080918700481730F0FCDE60E070E019
:1016100082EC99E082D6209187006091650077275F
:1016200067FD7095802F90E0CFD2820F911D78DDFD
:101630008093720090918700891719F0811301C07F
:10164000E1DE8091720020C0813E31F4809165001E
:10165000819580936500B2C0823BC1F481E08093A4
:10166000650080918100882339F0C90168E170E04C
:10167000C8D2892B09F0A2C08091870090E0801B1E
:1016800091094EDD80937200A8DD98C0853C29F455
:10169000809187008093820007C0853B41F4232B13
:1016A00009F08EC010928200F3DEACDE89C081307A
:1016B00009F052C02E33310511F48093650020FFEC
:1016C0000CC080918700823808F478C09091870020
:1016D0008091CB00981708F471C088E0E5E7F0E04E
:1016E000DE01119601900D928A95E1F79091CB0061
:1016F00080918700891738F421FD60C08091CB006C
:101700009091870004C0809187009091CB00891B45
:10171000209199002F5F20939900882309F44EC0EF
:1017200090918700923838F0409187003091CB003B
:1017300091E0341708F090E09F5F8695E9F7E1E0CB
:10174000F0E0EC0FFD1FE90FF11D80818217B0F56D
:101750007AD91092990032C08530B9F4809187000F
:10176000823460F18091870090E0821B930B81347A
:10177000910534F08739910528F086E990E002C0A0
:1017800081E490E08093CB0019C08630C9F4909139
:10179000870080918000981788F490918700290F26
:1017A000311D90E08217930734F02134310524F481
:1017B00021E430E001C09C012093CB0080E001C017
:1017C00081E028960FB6F894DEBF0FBECDBFDF9143
:1017D000CF911F910F9108950F931F93CF93DF9394
:1017E000D82F8B01C0916C0081E080938400C330BE
:1017F00011F48D2F86DBD83021F481E080936400D2
:101800007AC0D13C31F460E070E080E099E085D5A9
:1018100072C0D23C49F48C2F90E0019665E070E0F4
:1018200004D280936C0059C0D13B51F5C23090F482
:1018300000FD61C0EC2FF0E0E659FF4F80819091F0
:101840006400891B883020F08F3FA1F58EEF32C0F5
:1018500088E030C0C43009F04EC09091690080919A
:101860006400890F8093690080916900823010F4D0
:1018700082E02BC080916900893748F188E725C054
:10188000D13E31F48091640081958093640025C03D
:10189000D23B09F581E080936400C23068F400FD1A
:1018A0002AC0EC2FF0E0E659FF4F80818F3F19F1FD
:1018B00080818F5F80831FC0C430E9F4809169000C
:1018C000833028F080916900815080936900809175
:1018D00069006BD910C0D23E11F4DADD0CC0D130F2
:1018E00061F40E33110511F4D093640080918600E9
:1018F000080F0093860080E001C081E0DF91CF9166
:101900001F910F9108950F931F93CF93DF93D82FBB
:101910008B01883031F480918400813011F488E0AB
:101920005BDF8D2F8079803959F481E080938300CB
:10193000C0918400C1110AC08091720036D91FC0C5
:10194000803831F41092830080E02FD9C0E017C0B6
:10195000D130A1F4C0918300CC2351F08091840058
:101960008130A1F7B801DF91CF911F910F9134CF52
:10197000033A134058F3D093880001C0C1E08C2F84
:10198000DF91CF911F910F910895883029F4109223
:10199000910080E00AD920C0813081F460919100EB
:1019A000641738F470E06F5F7F4F8BEE95E072D470
:1019B00013C0F90109956CDD86D40EC08A3061F43C
:1019C000809191009091FE00E82FF0E0EE5EFE4FD6
:1019D00090838F5F8093910080E008954091810013
:1019E0004E5F2EEE30E0D1CF28EC30E042E0CDCF9C
:1019F00028EE30E041E0C9CFCF93C0E08C2FD5D89E
:101A000085E051D58C2F8695D0D885E04CD53AD736
:101A1000882391F0CF5FC03489F785E1809312016C
:101A200010921301B5D334DDC6E98C2FBED881E006
:101A30003AD5C150D1F708C0CC2331F08C2FB5D89E
:101A400083E031D5C150F8CFCF9108958091C60081
:101A50009091C7002BE08C3E920729F469E170E079
:101A600086E79AE015C086579A4071F48091870006
:101A7000823050F09091870020918700269526951E
:101A8000892F8695820FA9CB60E070E080E099E015
:101A900044C4843019F4DADF80E0089581E00895C9
:101AA00082E183D883E0FFD480E07FD8EBD6811138
:101AB000A3DFB2DC61E070E080E099E0EBC31F934C
:101AC000CF93DF938091C6009091C70020E0863CC1
:101AD0009207B1F4CEE1D0E01C2F185FFE01849193
:101AE00080530FD98CE291E022D521961C13F6CFBA
:101AF00060E070E080E099E0DF91CF911F910DC42C
:101B00002BE08C3E920761F0ECE083389E07D9F41D
:101B1000809184008130A9F580918300882389F128
:101B200080916C00823059F030F0843071F5DF9193
:101B3000CF911F91CBC9DF91CF911F913FC9DF9109
:101B4000CF911F9159C9F1E0823A9F0721F4DF91AB
:101B5000CF911F9121C921E08E3C920721F4DF91A2
:101B6000CF911F91CCCA845B914059F48091C900F8
:101B70009091CA00E2D888EE93E0DF91CF911F9157
:101B8000D6C4DF91CF911F9150C7DF91CF911F91A4
:101B90000895F89409D9A8D665D639D5789481E006
:101BA00082D416D460E070E089E49DE073D378DFDE
:101BB000B0D480918800882319F080E0F6D71CD734
:101BC0007EDF10928500F4CF0024552704C0080E54
:101BD000591F880F991F009729F076956795B8F3DC
:101BE0007105B9F7802D952F0895991B79E004C0F0
:101BF000991F961708F0961B881F7A95C9F780954C
:101C00000895AA1BBB1B51E107C0AA1FBB1FA61743
:101C1000B70710F0A61BB70B881F991F5A95A9F795
:101C200080959095BC01CD01089597FB072E16F481
:101C3000009406D077FD08D0E4DF07FC05D03EF421
:101C4000909581959F4F0895709561957F4F089568
:101C5000E199FECF9FBB8EBBE09A99278DB3089583
:101C6000262FE199FECF9FBB8EBBE09A01970DB264
:101C7000021639F01CBA2DBB0FB6F894E29AE19A1D
:081C80000FBE0895F894FFCF98
:101C8800060B180101010004025D284303078214B2
:101C980082015D012DF8804222110904020500002D
:00000001FF
